:020000040000fa
:080000000002040000000000f2
:020000040000fa
:04000800701700006d
:020000040000fa
:04000c007017000069
:020000040000fa
:040010007017000065
:020000040000fa
:040014007017000061
:020000040000fa
:04001800701700005d
:020000040000fa
:04001c007017000059
:020000040000fa
:040020007017000055
:020000040000fa
:040024007017000051
:020000040000fa
:04002800701700004d
:020000040000fa
:04002c007017000049
:020000040000fa
:040030007017000045
:020000040000fa
:040034007017000041
:020000040000fa
:04003800501700005d
:020000040000fa
:04003c007017000039
:020000040000fa
:040040007017000035
:020000040000fa
:04004400fa020000bc
:020000040000fa
:04004800701700002d
:020000040000fa
:04004c007017000029
:020000040000fa
:040050007017000025
:020000040000fa
:040054007017000021
:020000040000fa
:04005800701700001d
:020000040000fa
:04005c007017000019
:020000040000fa
:04006000581700002d
:020000040000fa
:040064007017000011
:020000040000fa
:04006800701700000d
:020000040000fa
:04006c007017000009
:020000040000fa
:040070007017000005
:020000040000fa
:040074007017000001
:020000040000fa
:0400780070170000fd
:020000040000fa
:04007c0070170000f9
:020000040000fa
:0400800070170000f5
:020000040000fa
:0400840070170000f1
:020000040000fa
:0400880060170000fd
:020000040000fa
:04008c0070170000e9
:020000040000fa
:0400900070170000e5
:020000040000fa
:0400940070170000e1
:020000040000fa
:0400980070170000dd
:020000040000fa
:04009c0070170000d9
:020000040000fa
:0400a00070170000d5
:020000040000fa
:0400a40070170000d1
:020000040000fa
:0400a80070170000cd
:020000040000fa
:0400ac0070170000c9
:020000040000fa
:0400b00070170000c5
:020000040000fa
:0400b400ee03000057
:020000040000fa
:0400b80068170000c5
:020000040000fa
:0400bc0070170000b9
:020000040000fa
:0400c00070170000b5
:020000040000fa
:0400c40070170000b1
:020000040000fa
:0400c80070170000ad
:020000040000fa
:0400cc0070170000a9
:020000040000fa
:0400d00070170000a5
:020000040000fa
:0400d40070170000a1
:020000040000fa
:0400d800701700009d
:020000040000fa
:0400dc007017000099
:020000040000fa
:0400e0007017000095
:020000040000fa
:0400e4007017000091
:020000040000fa
:0400e800701700008d
:020000040000fa
:0400ec007017000089
:020000040000fa
:0400f0007017000085
:020000040000fa
:0400f4007017000081
:020000040000fa
:0400f800701700007d
:020000040000fa
:0400fc007017000079
:020000040000fa
:040100007017000074
:020000040000fa
:040104007017000070
:020000040000fa
:040108009a04000055
:020000040000fa
:04010c007017000068
:020000040000fa
:040110007017000064
:020000040000fa
:040114007017000060
:020000040000fa
:04011800701700005c
:020000040000fa
:04011c007017000058
:020000040000fa
:040120007017000054
:020000040000fa
:040124007017000050
:020000040000fa
:04012800701700004c
:020000040000fa
:04012c007017000048
:020000040000fa
:040130007017000044
:020000040000fa
:040134007017000040
:020000040000fa
:04013800701700003c
:020000040000fa
:04013c007017000038
:020000040000fa
:040140007017000034
:020000040000fa
:040144007017000030
:020000040000fa
:04014800701700002c
:020000040000fa
:04014c007017000028
:020000040000fa
:040150007017000024
:020000040000fa
:040154007017000020
:020000040000fa
:04015800701700001c
:020000040000fa
:04015c007017000018
:020000040000fa
:040160007017000014
:020000040000fa
:040164007017000010
:020000040000fa
:04016800701700000c
:020000040000fa
:04016c007017000008
:020000040000fa
:040170007017000004
:020000040000fa
:040174007017000000
:020000040000fa
:0401780070170000fc
:020000040000fa
:04017c0070170000f8
:020000040000fa
:0401800070170000f4
:020000040000fa
:0401840070170000f0
:020000040000fa
:0401880070170000ec
:020000040000fa
:04018c0070170000e8
:020000040000fa
:0401900070170000e4
:020000040000fa
:0401940070170000e0
:020000040000fa
:0401980070170000dc
:020000040000fa
:04019c0070170000d8
:020000040000fa
:0401a00070170000d4
:020000040000fa
:0401a40070170000d0
:020000040000fa
:0401a80070170000cc
:020000040000fa
:0401ac0070170000c8
:020000040000fa
:0401b00070170000c4
:020000040000fa
:0401b40070170000c0
:020000040000fa
:0401b80070170000bc
:020000040000fa
:0401bc0070170000b8
:020000040000fa
:0401c00070170000b4
:020000040000fa
:0401c40070170000b0
:020000040000fa
:0401c80070170000ac
:020000040000fa
:0401cc0070170000a8
:020000040000fa
:0401d00070170000a4
:020000040000fa
:0401d40070170000a0
:020000040000fa
:0401d800701700009c
:020000040000fa
:0401dc007017000098
:020000040000fa
:0401e0007017000094
:020000040000fa
:0401e4007017000090
:020000040000fa
:0401e800701700008c
:020000040000fa
:0401ec007017000088
:020000040000fa
:0401f0007017000084
:020000040000fa
:0401f4007017000080
:020000040000fa
:0401f800701700007c
:020000040000fa
:0401fc007017000078
:020000040000fa
:040200007017000073
:020000040000fa
:04020400701700006f
:020000040000fa
:04020800701700006b
:020000040000fa
:04020c007017000067
:020000040000fa
:040210007017000063
:020000040000fa
:04021400701700005f
:020000040000fa
:04021800701700005b
:020000040000fa
:04021c007017000057
:020000040000fa
:040220007017000053
:020000040000fa
:04022400701700004f
:020000040000fa
:04022800701700004b
:020000040000fa
:04022c007017000047
:020000040000fa
:040230007017000043
:020000040000fa
:04023400701700003f
:020000040000fa
:04023800701700003b
:020000040000fa
:04023c007017000037
:020000040000fa
:040240007017000033
:020000040000fa
:04024400701700002f
:020000040000fa
:04024800701700002b
:020000040000fa
:04024c007017000027
:020000040000fa
:040250007017000023
:020000040000fa
:04025400701700001f
:020000040000fa
:04025800701700001b
:020000040000fa
:04025c007017000017
:020000040000fa
:040260007017000013
:020000040000fa
:04026400701700000f
:020000040000fa
:04026800701700000b
:020000040000fa
:04026c007017000007
:020000040000fa
:040270007017000003
:020000040000fa
:0402740070170000ff
:020000040000fa
:0402780070170000fb
:020000040000fa
:04027c0070170000f7
:020000040000fa
:0402800070170000f3
:020000040000fa
:100400006f3221000e7f24000e01880000000000e2
:10041000000020000000e000020032000001200087
:100420002002880014000700af0a07000000e00067
:1004300003003a0020602400010020000200370081
:100440000000200001002000810f70000100320038
:100450000f000700000020000000e0000200320052
:1004600000000200000000002a3b02000000000023
:100470000040da000000fe00603220000000e000d2
:1004800002003200002020009001880000000600d9
:10049000a1028800800478000000eb001f003700f4
:1004a000e284440054a0b4009905ba00e2844400f8
:1004b00054a0b4009906ba00e284440054a0b400e9
:1004c0000006eb00476fde00fd07b200ae018800ba
:1004d000636ce10003003a000ad801000000eb0061
:1004e0000e003700606ce10008003a00004deb00a0
:1004f0000a05e800020039003420ec000af0a000f0
:100500008b05e900f9ff3e00040037006168e10057
:10051000010032000086eb000b00070019c7ba008b
:100520000e04e0001905ba0003003a000a00e000da
:10053000dbff3a0000000600fe07b200ae028800b2
:100540008a047800f5ff37000cd0a300e20f4d00bd
:100550001c00390089027800354dba000a05e80010
:10056000020039003420ec000af0a0008b05e900fd
:100570000f003200254dba000a05e80002003900dc
:100580003420ec000af0a0008b05e90008003200de
:100590000c00e0000600320015cdba000a05e800a4
:1005a000020039003420ec000af0a0008b05e900bd
:1005b0008984e80054a0b4000b00e000e2ff3a0098
:1005c000000006009902ba00055d78008b05e9007d
:1005d000f7ff3200c82ade00055d78008b05e900d0
:1005e000f3ff32000c00e000f1ff320019ddba0029
:1005f000eeff3700809fbe000000fa00008f2d0044
:100600003008880070828000818280006100400094
:10061000e08048007082880081828800d08180005c
:10062000e10f500006003a00b0868000c1868000cd
:1006300061004000e0804800b0868800c1868800e4
:10064000e0818000e10f500006003a00d086800073
:10065000e186800061004000e0804800d08688008c
:10066000e1868800f0818000e10f500006003a002a
:10067000f08680000187800061004000e080480033
:10068000f08688000187880000828000e10f50001a
:1006900003003a00708780000000e800708788003f
:1006a000908680000000e8009086880050868000d8
:1006b0000000e80050868800a08680000000e80066
:1006c000a08688001087800021878000610040009c
:1006d000e0804800108788002187880030878000ec
:1006e0004187800061004000e0804800308788003a
:1006f000418788005087800061878000610040004a
:10070000e0804800508788006187880090818000e1
:10071000e10f50002d003a00608580000000e800e5
:1007200060858800708580000000e8007085880082
:10073000808580000000e80080858800908580002a
:100740000000e80090858800a08580000000e80097
:10075000a0858800b08580000000e800b085880092
:10076000c08580000000e800c0858800d08580003a
:100770000000e800d0858800e08580000000e800e7
:10078000e0858800f08580000000e800f0858800a2
:10079000008680000000e800008688001086800047
:1007a0000000e80010868800208680000000e80035
:1007b00020868800308680000000e80030868800af
:1007c000408680000000e8004086880000e8a9001c
:1007d0000080fa004f00be00004006003600f8001e
:1007e000809fbe00829fbe00849fbe00869fbe0089
:1007f0000000fa000468a900502080006100600039
:100800000000e000010032000a04a900502080002e
:10081000620060000000e0003f003200600f07004f
:100820000080fb002080880020808000004078004d
:100830006c10070000007800308088003180800054
:1008400000082000808f500002003a0010002000b5
:10085000108288003180800000092000808f5000c5
:100860002a003a0020808000004078008040eb00a1
:100870005311070040808800408080004880de00df
:100880004080880040808000e60f500004003a005d
:100890001000200060808800120ea8001b003700a6
:1008a00040808000e30f500004003a001000200058
:1008b000d0808800120ea80014003700408080000d
:1008c000e80f500004003a001000200070808800fb
:1008d000120ea9000d00370040808000e90f500083
:1008e00004003a0010002000e0808800120ea800ea
:1008f00006003700408080000000e00003003a005e
:100900001000200080808800120ea9002024ef0033
:100910002224ef000a24a9000080fa004f03be0041
:100920004f02be004f01be004f00be003600f9006e
:10093000004006003600f800809fbe00829fbe0087
:10094000849fbe00869fbe000000fa000708a90031
:1009500050288000610060000000e00001003200cb
:100960000a05a90050288000620060000000e00035
:1009700044093200521507000080fb000080880007
:1009800000808000004078005e16070000007800bc
:1009900010808800108080006101b900e0f72f000e
:1009a000f1ff2f000200400083804800e233200066
:1009b00003002000820f5000838f58002e093e0054
:1009c0000006010041033700560337006a03370071
:1009d0007403370089033700270937009c03370069
:1009e000b1033700c5033700cf033700e4033700f6
:1009f000f803370002043700170437001e093700d8
:100a00002a0437003f043700530437005d043700e1
:100a1000720437008604370090043700a5043700bd
:100a200015093700b8043700cd043700e10437005a
:100a3000eb04370000053700140537001e053700aa
:100a4000330537000c093700460537005b053700d2
:100a50006f053700790537008e053700a20537008e
:100a6000ac053700c105370003093700d40537004e
:100a7000e9053700fd053700ff083700fe0837009d
:100a8000fd083700fc083700fb083700fa0837007c
:100a9000f9083700f8083700f7083700f60837007c
:100aa000f5083700f4083700f3083700f20837007c
:100ab000f1083700f0083700ef083700f605370077
:100ac0000a0637001d063700310637004506370095
:100ad000590637006d063700810637009506370046
:100ae000a9063700bd063700d1063700e5063700f6
:100af000f90637000d0737002107370035073700a3
:100b0000490737005d073700710737008507370051
:100b100099073700ad073700c1073700d507370001
:100b2000e9073700fd0737001108370025083700af
:100b300039083700d0083700cf0837004b08370096
:100b400051083700570837005d0837006308370041
:100b5000690837006f083700750837007b083700d1
:100b600081083700870837008d0837009308370061
:100b7000990837009f083700bf083700be083700c4
:100b8000bd083700bc083700bb083700ba0837007b
:100b9000b9083700b8083700b7083700b60837007b
:100ba000b5083700b4083700b3083700b20837007b
:100bb000b1083700b0083700c1023700ae0837006f
:100bc000ad083700ac083700ab083700aa0837007b
:100bd000a9083700a8083700a7083700a60837007b
:100be000a5083700a4083700a3083700a20837007b
:100bf000a1083700a00837009f0837009e0837007b
:100c00009d0837009c0837009b0837009a0837007a
:100c1000990837009808370097083700960837007a
:100c2000950837009408370093083700920837007a
:100c300091083700900837008f0837008e0837007a
:100c40008d0837008c0837008b0837008a0837007a
:100c5000890837008808370087083700860837007a
:100c6000850837008408370083083700820837007a
:100c700081083700800837007f0837007e0837007a
:100c80007d0837007c0837007b0837007a0837007a
:100c9000790837007808370077083700760837007a
:100ca000750837007408370073083700720837007a
:100cb00071083700700837006f0837006e0837007a
:100cc0006d0837006c0837006b0837006a0837007a
:100cd000690837006808370067083700660837007a
:100ce000650837006408370063083700620837007a
:100cf00061083700600837005f0837005e0837007a
:100d00005d0837005c0837005b0837005a08370079
:100d10005908370058083700570837005608370079
:100d20005508370054083700530837005208370079
:100d300051083700500837004f0837004e08370079
:100d40004d0837004c0837004b0837004a08370079
:100d50004908370048083700470837004608370079
:100d60004508370044083700430837004208370079
:100d700041083700400837003f0837003e08370079
:100d80003d0837003c0837003b0837003a08370079
:100d90003908370038083700370837003608370079
:100da0003508370034083700330837003208370079
:100db00031083700300837002f0837002e08370079
:100dc0002d0837002c0837002b0837002a08370079
:100dd0002908370028083700270837002608370079
:100de0002508370024083700230837002208370079
:100df00021083700200837001f0837001e08370079
:100e00001d0837001c0837001b0837001a08370078
:100e10001908370018083700170837001608370078
:100e20001508370014083700130837001208370078
:100e300011083700100837000f0837000e08370078
:100e40000d0837000c0837000b0837000a08370078
:100e50000908370008083700070837000608370078
:100e60000508370004083700030837000208370078
:100e70000108370000083700ff073700fe0737007a
:100e8000fd073700fc073700fb073700fa0737007c
:100e9000f9073700f8073700f7073700f60737007c
:100ea000f5073700f4073700f3073700f20737007c
:100eb000f1073700f0073700ef073700ee0737007c
:100ec000ed073700ec073700eb073700ea0737007c
:100ed000e9073700e8073700e7073700e60737007c
:100ee000e5073700e4073700e3073700e20737007c
:100ef000e1073700e0073700df073700de0737007c
:100f0000dd073700dc073700db073700da0737007b
:100f1000d9073700d8073700d7073700d60737007b
:100f2000d5073700d4073700d3073700d20737007b
:100f3000d1073700d0073700cf073700ce0737007b
:100f4000cd073700cc073700cb073700ca0737007b
:100f5000c9073700c8073700c7073700c60737007b
:100f6000c5073700c4073700c3073700c20737007b
:100f7000c1073700c0073700bf073700be0737007b
:100f8000bd073700bc073700bb073700ba0737007b
:100f9000b9073700b8073700b7073700b60737007b
:100fa000b5073700b4073700b3073700b20737007b
:100fb000b1073700b0073700af073700ae0737007b
:100fc000ad073700ac073700ab073700aa0737007b
:100fd000a9073700a8073700a7073700a60737007b
:100fe000a5073700a4073700a3073700a20737007b
:100ff000a1073700a00737009f0737009e0737007b
:101000009d0737009c0737009b0737009a0737007a
:10101000990737009807370097073700960737007a
:10102000950737009407370093073700920737007a
:1010300091073700900737008f0737008e0737007a
:101040008d0737008c0737008b0737008a0737007a
:10105000890737008807370087073700860737007a
:10106000850737008407370083073700820737007a
:1010700081073700800737007f0737007e0737007a
:101080007d0737007c0737007b0737007a0737007a
:10109000790737007807370077073700760737007a
:1010a000750737007407370073073700720737007a
:1010b00071073700700737006f0737006e0737007a
:1010c0006d0737006c0737006b0737006a0737007a
:1010d000690737006807370067073700660737007a
:1010e000650737006407370063073700620737007a
:1010f00061073700600737005f0737005e0737007a
:101100005d0737005c0737005b0737005a07370079
:101110005907370058073700570737005607370079
:101120005507370054073700530737005207370079
:1011300051073700500737004f0737004e07370079
:101140004d0737004c0737004b0737004a07370079
:101150004907370048073700470737004607370079
:101160004507370044073700430737004207370079
:1011700041073700400737003f0737003e07370079
:101180003d0737003c0737003b0737003a07370079
:101190003907370038073700370737003607370079
:1011a0003507370034073700330737003207370079
:1011b00031073700300737002f0737002e07370079
:1011c0002d0737002c0737002b0737002a07370079
:1011d0002907370028073700270737002607370079
:1011e0002507370024073700230737002207370079
:1011f00021073700200737001f0737001e07370079
:101200001d0737001c0737001b0737001a07370078
:101210001907370018073700170737001607370078
:101220001507370014073700130737001207370078
:1012300011073700100737000f0737000e07370078
:101240000d0737000c0737000b0737000a07370078
:101250000907370008073700070737000607370078
:101260000507370004073700030737000207370078
:101270000107370000073700ff063700fe0637007a
:10128000fd063700fc063700fb063700fa0637007c
:10129000f9063700f8063700f7063700f60637007c
:1012a000f5063700f4063700f3063700f20637007c
:1012b000f1063700f0063700ef063700ee0637007c
:1012c000ed063700ec063700eb063700ea0637007c
:1012d000e9063700e8063700e7063700e60637007c
:1012e000e5063700e4063700e3063700e20637007c
:1012f000e1063700e0063700df063700de0637007c
:10130000dd063700dc063700db063700da0637007b
:10131000d9063700d8063700d7063700d60637007b
:10132000d5063700d4063700d3063700d20637007b
:10133000d1063700d0063700cf063700ce0637007b
:10134000cd063700cc063700cb063700ca0637007b
:10135000c9063700c8063700c7063700c60637007b
:10136000c5063700c4063700c3063700c20637007b
:10137000c1063700c0063700bf063700be0637007b
:10138000bd063700bc063700bb063700ba0637007b
:10139000b9063700b8063700b7063700b60637007b
:1013a000b5063700b4063700b3063700b20637007b
:1013b000b1063700b0063700af063700ae0637007b
:1013c000ad063700ac063700ab063700aa0637007b
:1013d000a9063700a8063700a7063700a60637007b
:1013e000a5063700a4063700a3063700a20637007b
:1013f000a1063700a00637009f0637009e0637007b
:101400009d0637009c0637009b0637009a0637007a
:10141000990637009806370097063700960637007a
:10142000950637009406370093063700920637007a
:1014300091063700900637008f0637008e0637007a
:101440008d0637008c0637008b0637008a0637007a
:10145000890637008806370087063700860637007a
:10146000850637008406370083063700820637007a
:1014700081063700800637007f0637007e0637007a
:101480007d0637007c0637007b0637007a0637007a
:10149000790637007806370077063700760637007a
:1014a000750637007406370073063700720637007a
:1014b00071063700700637006f0637006e0637007a
:1014c0006d0637006c0637006b0637006a0637007a
:1014d000690637006806370067063700660637007a
:1014e000650637006406370063063700620637007a
:1014f00061063700600637005f0637005e0637007a
:101500005d0637005c0637005b0637005a06370079
:101510005906370058063700570637005606370079
:101520005506370054063700530637005206370079
:1015300051063700500637004f0637004e06370079
:101540004d0637004c0637004b0637004a06370079
:101550004906370048063700470637004606370079
:101560004506370044063700430637004206370079
:1015700041063700400637003f0637003e06370079
:101580003d0637003c0637003b0637003a06370079
:101590003906370038063700370637003606370079
:1015a0003506370034063700330637003206370079
:1015b00031063700300637002f0637002e06370079
:1015c0002d0637002c0637002b0637002a06370079
:1015d0002906370028063700270637002606370079
:1015e0002506370024063700230637002206370079
:1015f00021063700200637001f0637001e06370079
:101600001d0637001c0637001b0637001a06370078
:101610001906370018063700170637001606370078
:101620001506370014063700130637001206370078
:1016300011063700100637000f0637000e06370078
:101640000d0637000c0637000b0637000a06370078
:101650000906370008063700070637000606370078
:101660000506370004063700030637000206370078
:101670000106370000063700ff053700fe0537007a
:10168000fd053700fc053700fb053700fa0537007c
:10169000f9053700f8053700f7053700f60537007c
:1016a000f5053700f4053700f3053700f20537007c
:1016b000f1053700f0053700ef053700d405370096
:1016c0004e30ef005030ef00eb053700ac30ef004c
:1016d00000808000004078008040eb00001407008c
:1016e000f0888800008080000040780011c0b300be
:1016f000fb1307000089880000808000004078000c
:1017000021c0b300f6130700108988000080800014
:101710000040780031c0b300f11307002089880031
:10172000d505370000808000004078008040eb0045
:10173000eb130700308988000080800000407800ab
:1017400011c0b300e61307004089880000808000c4
:101750000040780021c0b300e113070050898800e1
:10176000008080000040780031c0b300dc13070027
:1017700060898800c0053700008080000040780044
:101780008040eb00d613070070898800008080003d
:101790000040780011c0b300d11307008089880091
:1017a000b5053700ae30ef000080800000407800c3
:1017b0008040eb00ca1307009089880000808000f9
:1017c0000040780011c0b300c5130700a08988004d
:1017d000008080000040780021c0b300c0130700e3
:1017e000b0898800008080000040780031c0b300dc
:1017f000bb130700c08988009f0537000080800068
:10180000004078008040eb00b5130700d0898800c5
:10181000008080000040780011c0b300b0130700c2
:10182000e0898800008080000040780021c0b3007b
:10183000ab130700f089880000808000004078002a
:1018400031c0b300a6130700008a88008a0537005c
:10185000b030ef0000808000004078008040eb0056
:101860009f130700108a88000080800000407800e5
:1018700011c0b3009a130700208a880000808000fe
:101880000040780021c0b30095130700308a88001b
:10189000008080000040780031c0b3009013070042
:1018a000408a88007405370000808000004078007e
:1018b0008040eb008a130700508a88000080800077
:1018c0000040780011c0b30085130700608a8800cb
:1018d000008080000040780021c0b3008013070022
:1018e000708a8800008080000040780031c0b3001a
:1018f0007b130700808a88005f0537000080800026
:10190000004078008040eb0075130700908a880043
:10191000008080000040780011c0b3007013070001
:10192000a08a880054053700b230ef0000808000a4
:10193000004078008040eb0069130700b08a8800ff
:10194000008080000040780011c0b30064130700dd
:10195000c08a8800008080000040780021c0b30069
:101960005f130700d08a8800008080000040780064
:1019700031c0b3005a130700e08a88003e053700e3
:1019800000808000004078008040eb005413070086
:10199000f08a8800008080000040780011c0b30009
:1019a0004f130700008b8800008080000040780003
:1019b00021c0b3004a130700108b8800008080000c
:1019c0000040780031c0b30045130700208b880029
:1019d0002905370000808000004078008040eb003f
:1019e0003f130700308b88000080800000407800a3
:1019f00011c0b3003a130700408b88001e05370062
:101a0000b430ef0000808000004078008040eb00a0
:101a100033130700508b880000808000004078005e
:101a200011c0b3002e130700608b88000080800077
:101a30000040780021c0b30029130700708b880094
:101a4000008080000040780031c0b30024130700fc
:101a5000808b8800080537000080800000407800f7
:101a60008040eb001e130700908b880000808000f0
:101a70000040780011c0b30019130700a08b880044
:101a8000008080000040780021c0b30014130700dc
:101a9000b08b8800008080000040780031c0b30027
:101aa0000f130700c08b8800f3043700b630ef0037
:101ab00000808000004078008040eb0008130700a1
:101ac000d08b8800008080000040780011c0b300f7
:101ad00003130700e08b880000808000004078003e
:101ae00021c0b300fe120700f08b88000080800048
:101af0000040780031c0b300f9120700008c880064
:101b0000dd04370000808000004078008040eb005a
:101b1000f3120700108c88000080800000407800dd
:101b200011c0b300ee120700208c880000808000f6
:101b30000040780021c0b300e9120700308c880013
:101b4000008080000040780031c0b300e41207003c
:101b5000408c8800c8043700008080000040780076
:101b60008040eb00de120700508c8800008080006f
:101b70000040780011c0b300d9120700608c8800c3
:101b8000bd043700b830ef000080800000407800ce
:101b90008040eb00d2120700708c8800008080002b
:101ba0000040780011c0b300cd120700808c88007f
:101bb000008080000040780021c0b300c8120700f8
:101bc000908c8800008080000040780031c0b30015
:101bd000c3120700a08c8800a70437000080800093
:101be000004078008040eb00bd120700b08c8800f8
:101bf000008080000040780011c0b300b8120700d8
:101c0000c08c8800008080000040780021c0b300b4
:101c1000b3120700d08c880000808000004078005c
:101c200031c0b300ae120700e08c88009204370088
:101c300000808000004078008040eb00a812070080
:101c4000f08c8800008080000040780011c0b30054
:101c5000a3120700008d880087043700ba30ef0018
:101c600000808000004078008040eb009c1207005c
:101c7000108d8800008080000040780011c0b30003
:101c800097120700208d88000080800000407800b7
:101c900021c0b30092120700308d880000808000c0
:101ca0000040780031c0b3008d120700408d8800dd
:101cb0007104370000808000004078008040eb0015
:101cc00087120700508d8800008080000040780057
:101cd00011c0b30082120700608d88000080800070
:101ce0000040780021c0b3007d120700708d88008d
:101cf000008080000040780031c0b30078120700f7
:101d0000808d88005c043700bc30ef0000808000cc
:101d1000004078008040eb0071120700908d880031
:101d2000008080000040780011c0b3006c120700f2
:101d3000a08d8800008080000040780021c0b300a2
:101d400067120700b08d8800008080000040780096
:101d500031c0b30062120700c08d8800460437000e
:101d600000808000004078008040eb005c1207009b
:101d7000d08d8800008080000040780011c0b30042
:101d800057120700e08d8800008080000040780036
:101d900021c0b30052120700f08d8800008080003f
:101da0000040780031c0b3004d120700008e88005b
:101db0003104370000808000004078008040eb0054
:101dc00047120700108e88000080800000407800d5
:101dd00011c0b30042120700208e8800260437008d
:101de000be30ef0000808000004078008040eb00b3
:101df0003b120700308e8800008080000040780091
:101e000011c0b30036120700408e880000808000a9
:101e10000040780021c0b30031120700508e8800c6
:101e2000008080000040780031c0b3002c12070011
:101e3000608e880010043700008080000040780029
:101e40008040eb0026120700708e88000080800022
:101e50000040780011c0b30021120700808e880076
:101e6000008080000040780021c0b3001c120700f1
:101e7000908e8800008080000040780031c0b30060
:101e800017120700a08e8800fb0337000080800037
:101e9000004078008040eb0011120700b08e8800ef
:101ea000008080000040780011c0b3000c120700d1
:101eb000c08e8800f0033700c030ef000080800043
:101ec000004078008040eb0005120700d08e8800ab
:101ed000008080000040780011c0b30000120700ad
:101ee000e08e8800008080000040780021c0b300b0
:101ef000fb110700f08e8800008080000040780011
:101f000031c0b300f6110700008f8800da033700f4
:101f100000808000004078008040eb00f011070056
:101f2000108f8800008080000040780011c0b3004e
:101f3000eb110700208f88000080800000407800af
:101f400021c0b300e6110700308f880000808000b8
:101f50000040780031c0b300e1110700408f8800d5
:101f6000c5033700c230ef000080800000407800d9
:101f70008040eb00da110700508f8800008080005d
:101f80000040780011c0b300d5110700608f8800b1
:101f9000008080000040780021c0b300d01107000d
:101fa000708f8800008080000040780031c0b3004e
:101fb000cb110700808f8800af03370000808000be
:101fc000004078008040eb00c5110700908f88002a
:101fd000008080000040780011c0b300c0110700ed
:101fe000a08f8800008080000040780021c0b300ee
:101ff000bb110700b08f880000808000004078008f
:1020000031c0b300b6110700c08f88009a033700b3
:1020100000808000004078008040eb00b011070095
:10202000d08f8800008080000040780011c0b3008d
:10203000ab110700e08f88008f033700c430ef003a
:1020400000808000004078008040eb00a411070071
:10205000f08f8800008080000040780011c0b3003d
:102060009f110700009088000080800000407800e9
:1020700021c0b3009a1107001090880000808000f2
:102080000040780031c0b30095110700209088000f
:102090007903370000808000004078008040eb002a
:1020a0008f11070030908800008080000040780089
:1020b00011c0b3008a1107004090880000808000a2
:1020c0000040780021c0b3008511070050908800bf
:1020d000008080000040780031c0b300801107000c
:1020e0006090880064033700008080000040780022
:1020f0008040eb007a11070070908800008080001b
:102100000040780011c0b30075110700809088006e
:1021100059033700c630ef0000808000004078008f
:102120008040eb006e1107009090880000808000d6
:102130000040780011c0b30069110700a09088002a
:10214000008080000040780021c0b30064110700c7
:10215000b0908800008080000040780031c0b3005b
:102160005f110700c09088004303370000808000a3
:10217000004078008040eb0059110700d0908800a3
:10218000008080000040780011c0b30054110700a7
:10219000e0908800008080000040780021c0b300fb
:1021a0004f110700f0908800008080000040780008
:1021b00031c0b3004a110700009188002e03370098
:1021c000c830ef0000808000004078008040eb00c5
:1021d00043110700109188000080800000407800c3
:1021e00011c0b3003e1107002091880000808000dc
:1021f0000040780021c0b3003911070030918800f9
:10220000008080000040780031c0b3003411070026
:10221000409188001803370000808000004078005b
:102220008040eb002e110700509188000080800054
:102230000040780011c0b3002911070060918800a8
:10224000008080000040780021c0b3002411070006
:1022500070918800008080000040780031c0b30099
:102260001f11070080918800030337000080800061
:10227000004078008040eb00191107009091880021
:10228000008080000040780011c0b30014110700e6
:10229000a0918800f802370000808000004078009c
:1022a0008040eb000e110700b09188000080800094
:1022b0000040780011c0b30009110700c0918800e8
:1022c000008080000040780021c0b30004110700a6
:1022d000d0918800008080000040780031c0b300b9
:1022e000ff100700e0918800e302370000808000c3
:1022f000004078008040eb00f9100700f091880062
:10230000008080000040780011c0b300f410070086
:1023100000928800008080000040780021c0b30057
:10232000ef100700109288000080800000407800c5
:1023300031c0b300ea1007002092880000808000be
:10234000004078008040eb00e510070030928800e4
:10235000008080000040780011c0b300e01007004a
:1023600040928800008080000040780021c0b300c7
:10237000db10070050928800008080000040780049
:1023800031c0b300d610070060928800ba0237004f
:1023900000808000004078008040eb00d0100700f3
:1023a00070928800008080000040780011c0b30067
:1023b000cb100700809288000080800000407800e9
:1023c00021c0b300c61007009092880000808000f2
:1023d0000040780031c0b300c1100700a09288000f
:1023e000a502370000808000004078008040eb00ac
:1023f000bb100700b0928800008080000040780089
:1024000011c0b300b6100700c092880000808000a1
:102410000040780021c0b300b1100700d0928800be
:10242000008080000040780031c0b300ac1007008d
:10243000e092880090023700008080000040780021
:102440008040eb00a6100700f0928800008080001a
:102450000040780011c0b300a1100700009388006d
:10246000008080000040780021c0b3009c1007006d
:1024700010938800008080000040780031c0b300d5
:1024800097100700209388007b02370000808000af
:10249000004078008040eb009110070030938800e6
:1024a000008080000040780011c0b3008c1007004d
:1024b00040938800008080000040780021c0b30075
:1024c000871007005093880000808000004078004b
:1024d00031c0b300821007006093880066023700a5
:1024e00000808000004078008040eb007c100700f6
:1024f00070938800008080000040780011c0b30015
:1025000077100700809388000080800000407800ea
:1025100021c0b300721007009093880000808000f3
:102520000040780031c0b3006d100700a093880010
:102530005102370000808000004078008040eb00ae
:1025400067100700b093880000808000004078008a
:1025500011c0b30062100700c093880000808000a3
:102560000040780021c0b3005d100700d0938800c0
:10257000008080000040780031c0b3005810070090
:10258000e09388003c023700008080000040780023
:102590008040eb0052100700f0938800008080001c
:1025a0000040780011c0b3004d100700009488006f
:1025b000008080000040780021c0b3004810070070
:1025c00010948800008080000040780031c0b30083
:1025d0004310070020948800270237000080800005
:1025e000004078008040eb003d10070030948800e8
:1025f000008080000040780011c0b3003810070050
:1026000040948800008080000040780021c0b30022
:10261000331007005094880000808000004078004c
:1026200031c0b3002e1007006094880012023700fa
:1026300000808000004078008040eb0028100700f8
:1026400070948800008080000040780011c0b300c2
:1026500023100700809488000080800000407800ec
:1026600021c0b3001e1007009094880000808000f5
:102670000040780031c0b30019100700a094880012
:10268000fd01370000808000004078008040eb00b2
:1026900013100700b094880000808000004078008c
:1026a00011c0b3000e100700c094880000808000a5
:1026b0000040780021c0b30009100700d0948800c2
:1026c000008080000040780031c0b3000410070093
:1026d000e0948800e8013700008080000040780026
:1026e0008040eb00fe0f0700f0948800008080001f
:1026f0000040780011c0b300f90f07000095880072
:10270000008080000040780021c0b300f40f070073
:1027100010958800008080000040780031c0b30030
:10272000ef0f070020958800d3013700008080005c
:10273000004078008040eb00e90f070030958800ea
:10274000008080000040780011c0b300e40f070053
:1027500040958800008080000040780021c0b300d0
:10276000df0f07005095880000808000004078004f
:1027700031c0b300da0f070060958800be01370052
:1027800000808000004078008040eb00d40f0700fc
:1027900070958800008080000040780011c0b30070
:1027a000cf0f0700809588000080800000407800ef
:1027b00021c0b300ca0f07009095880000808000f8
:1027c0000040780031c0b300c50f0700a095880015
:1027d000a901370000808000004078008040eb00b5
:1027e000bf0f0700b095880000808000004078008f
:1027f00011c0b300ba0f0700c095880000808000a8
:102800000040780021c0b300b50f0700d0958800c4
:10281000008080000040780031c0b300b00f070096
:10282000e095880094013700008080000040780027
:102830008040eb00aa0f0700f09588000080800020
:102840000040780011c0b300a50f07000096880073
:10285000008080000040780021c0b300a00f070076
:1028600010968800008080000040780031c0b300de
:102870009b0f0700209688007f01370000808000b2
:10288000004078008040eb00950f070030968800ec
:10289000008080000040780011c0b300900f070056
:1028a00040968800008080000040780021c0b3007e
:1028b0008b0f070050968800008080000040780051
:1028c00031c0b300860f0700609688006a013700a8
:1028d00000808000004078008040eb00800f0700ff
:1028e00070968800008080000040780011c0b3001e
:1028f0007b0f0700809688000080800000407800f1
:1029000021c0b300760f07009096880000808000f9
:102910000040780031c0b300710f0700a096880016
:102920005501370000808000004078008040eb00b7
:102930006b0f0700b0968800008080000040780090
:1029400011c0b300660f0700c096880000808000a9
:102950000040780021c0b300610f0700d0968800c6
:10296000008080000040780031c0b3005c0f070099
:10297000e096880040013700008080000040780029
:102980008040eb00560f0700f09688000080800022
:102990000040780011c0b300510f07000097880075
:1029a000008080000040780021c0b3004c0f070079
:1029b00010978800008080000040780031c0b3008c
:1029c000470f0700209788002b0137000080800008
:1029d000004078008040eb00410f070030978800ee
:1029e000008080000040780011c0b3003c0f070059
:1029f00040978800008080000040780021c0b3002c
:102a0000370f070050978800008080000040780052
:102a100031c0b300320f07006097880016013700fd
:102a200000808000004078008040eb002c0f070001
:102a300070978800008080000040780011c0b300cb
:102a4000270f0700809788000080800000407800f2
:102a500021c0b300220f07009097880000808000fb
:102a60000040780031c0b3001d0f0700a097880018
:102a70000101370000808000004078008040eb00ba
:102a8000170f0700b0978800008080000040780092
:102a900011c0b300120f0700c097880000808000ab
:102aa0000040780021c0b3000d0f0700d0978800c8
:102ab000008080000040780031c0b300080f07009c
:102ac000e0978800ec00370000808000004078002c
:102ad0008040eb00020f0700f09788000080800024
:102ae0000040780011c0b300fd0e07000098880078
:102af000008080000040780021c0b300f80e07007d
:102b000010988800008080000040780031c0b30039
:102b1000f30e070020988800d7003700008080005f
:102b2000004078008040eb00ed0e070030988800f0
:102b3000008080000040780011c0b300e80e07005c
:102b400040988800008080000040780021c0b300d9
:102b5000e30e070050988800008080000040780055
:102b600031c0b300de0e070060988800c200370055
:102b700000808000004078008040eb00d80e070005
:102b800070988800008080000040780011c0b30079
:102b9000d30e0700809888000080800000407800f5
:102ba00021c0b300ce0e07009098880000808000fe
:102bb0000040780031c0b300c90e0700a09888001b
:102bc000ad00370000808000004078008040eb00be
:102bd000c30e0700b0988800008080000040780095
:102be00011c0b300be0e0700c098880000808000ae
:102bf0000040780021c0b300b90e0700d0988800cb
:102c0000008080000040780031c0b300b40e07009f
:102c1000e09888009800370000808000004078002d
:102c20008040eb00ae0e0700f09888000080800026
:102c30000040780011c0b300a90e07000099880079
:102c4000008080000040780021c0b300a40e07007f
:102c500010998800008080000040780031c0b300e7
:102c60009f0e0700209988008300370000808000b5
:102c7000004078008040eb00990e07004800de001d
:102c8000708488007c00370000808000004078005d
:102c90008040eb00920e07004800de008084880030
:102ca0007500370000808000004078008040eb0015
:102cb0008b0e07004800de00908488006e0037000d
:102cc00000808000004078008040eb00840e070008
:102cd0004800de00a0848800670037000080800084
:102ce000004078008040eb007d0e07004800de00c9
:102cf000b0848800600037000080800000407800c9
:102d00008040eb00760e07004800de00c08488009b
:102d10005900370000808000004078008040eb00c0
:102d20006f0e07004800de00d08488005200370094
:102d300000808000004078008040eb00680e0700b3
:102d40004800de00e08488004b00370000808000ef
:102d5000004078008040eb00610e07004800de0074
:102d6000f084880044003700008080000040780034
:102d70008040eb005a0e07004800de000085880006
:102d80003d00370000808000004078008040eb006c
:102d9000530e07004800de0010858800360037001b
:102da00000808000004078008040eb004c0e07005f
:102db0004800de00208588002f003700008080005a
:102dc000004078008040eb00450e07004800de0020
:102dd000308588002800370000808000004078009f
:102de0008040eb003e0e07004800de004085880072
:102df0002100370000808000004078008040eb0018
:102e0000370e07004800de00508588001a003700a2
:102e100010002000208288000080800000407800a0
:102e20008040eb002e0e0700800078004005210056
:102e300001087800008080000040780011c0b300d5
:102e4000270e07008000780040052100110098003f
:102e500040052100900078004005210010009000fe
:102e60004880de0000806000cf80de004083880064
:102e700051838800000000002025ef002225ef008c
:102e80000a25a9000080fa004f03be004f02be00d1
:102e90004f01be004f00be003600f90000400600a2
:102ea0000000fa000088a9000080fa000040060037
:102eb0000000fa0001c8a9000080fa0000400600e6
:102ec0000000fa000308a9000080fa000040060094
:102ed0000000fa000488a9000080fa000040060003
:0c2ee0000040da000000fe0000000500c9
:020000040000fa
:102eec006d0b0000a90b0000f60b0000310c00006c
:102efc00650c0000930c0000bb0c0000e00c000003
:102f0c00010d00001f0d00003b0d0000540d0000d2
:102f1c006c0d0000820d0000970d0000aa0d000042
:102f2c00bc0d0000cd0d0000dd0d0000eb0d000010
:102f3c00f70d0000ff0d0000020e0000050e000052
:102f4c00070e0000090e00000c0e00000e0e000013
:102f5c00110e0000130e0000160e0000190e0000da
:102f6c001c0e0000200e0000230e0000270e000097
:102f7c002b0e0000300e0000350e00003a0e000043
:102f8c00400e0000460e00004c0e0000520e0000d9
:102f9c00580e00005e0e0000640e00006a0e000069
:102fac00700e0000760e00007d0e0000840e0000f6
:102fbc008a0e0000900e0000960e00009c0e000081
:102fcc00a20e0000a90e0000b00e0000b70e00000b
:102fdc00be0e0000c50e0000cb0e0000d00e00008f
:102fec00d40e0000d90e0000dd0e0000e20e000031
:102ffc00e60e0000ea0e0000ee0e0000f20e0000dd
:10300c00f50e0000f90e0000fc0e0000000f000091
:10301c00030f0000070f00000a0f00000d0f000047
:10302c00100f0000130f0000160f0000190f000006
:10303c001c0f00001e0f0000210f0000240f0000c9
:10304c00260f0000290f00002b0f00002e0f000090
:10305c00300f0000320f0000350f0000370f00005a
:10306c003a0f00003c0f00003e0f0000410f000023
:10307c00430f0000450f0000470f0000490f0000f0
:10308c004c0f00004e0f0000500f0000520f0000bc
:10309c00540f0000560f0000580f00005a0f00008c
:1030ac005d0f00005f0f0000610f0000630f000058
:1030bc00650f0000680f00006a0f00006c0f000025
:1030cc006f0f0000710f0000730f0000760f0000ef
:1030dc00780f00007b0f00007e0f0000810f0000b6
:1030ec00830f0000860f00008a0f00008d0f000078
:1030fc00910f0000950f0000990f00009d0f00002c
:10310c00a20f0000a60f0000ab0f0000af0f0000d5
:10311c00b40f0000b80f0000bd0f0000c10f00007d
:10312c00c40f0000c80f0000cc0f0000cf0f000030
:10313c00d20f0000d50f0000d80f0000db0f0000ed
:10314c00dd0f0000e00f0000e20f0000e40f0000b4
:10315c00e70f0000e90f0000eb0f0000ed0f00007f
:10316c00ef0f0000f00f0000f20f0000f40f000052
:10317c00f50f0000f70f0000f90f0000fa0f000028
:10318c00fc0f0000fd0f0000ff0f000000100000fe
:10319c0002100000041000000610000007100000d0
:1031ac00091000000b1000000d1000000f100000a3
:1031bc001110000013100000151000001810000072
:1031cc001a1000001d100000201000002310000039
:1031dc0026100000291000002d10000030100000f7
:1031ec0034100000391000003e10000043100000a5
:1031fc00481000004e100000551000005c1000003c
:10320c006710000000000000050000000a0000002c
:10321c000f00000014000000190000001e00000048
:10322c0023000000280000002d00000032000000e8
:10323c00370000003c000000410000004600000088
:10324c004b00000050000000550000005a00000028
:10325c005f00000064000000690000006e000000c8
:10326c0073000000780000007d0000008200000068
:10327c00870000008c000000910000009600000008
:10328c009b000000a0000000a5000000aa000000a8
:10329c00af000000b4000000b9000000be00000048
:1032ac00c3000000c8000000cd000000d2000000e8
:1032bc00d7000000dc000000e1000000e600000088
:1032cc00eb000000f0000000f5000000fa00000028
:1032dc00ff00000004010000090100000e010000c5
:1032ec0013010000180100001d0100002201000064
:1032fc00270100002c010000310100003601000004
:10330c003b01000040010000450100004a010000a3
:10331c004f01000054010000590100005e01000043
:10332c0063010000680100006d01000072010000e3
:10333c00770100007c010000810100008601000083
:10334c008b01000090010000950100009a01000023
:10335c009f010000a4010000a9010000ae010000c3
:10336c00b3010000b8010000bd010000c201000063
:10337c00c7010000cc010000d1010000d601000003
:10338c00db010000e0010000e5010000ea010000a3
:10339c00ef010000f4010000f9010000fe01000043
:1033ac0003020000080200000d02000012020000df
:1033bc00170200001c02000021020000260200007f
:1033cc002b02000030020000350200003a0200001f
:1033dc003f02000044020000490200004e020000bf
:1033ec0053020000580200005d020000620200005f
:1033fc00670200006c0200007102000076020000ff
:10340c007b02000080020000850200008a0200009e
:10341c008f02000094020000990200009e0200003e
:10342c00a3020000a8020000ad020000b2020000de
:10343c00b7020000bc020000c1020000c60200007e
:10344c00cb020000d0020000d5020000da0200001e
:10345c00df020000e4020000e9020000ee020000be
:10346c00f3020000f8020000fd020000020300005d
:10347c00070300000c0300001103000016030000fa
:10348c001b03000020030000250300002a0300009a
:10349c002f03000034030000390300003e0300003a
:1034ac0043030000480300004d03000052030000da
:1034bc00570300005c03000061030000660300007a
:1034cc006b03000070030000750300007a0300001a
:1034dc007f03000084030000890300008e030000ba
:1034ec0093030000980300009d030000a20300005a
:1034fc00a7030000ac030000b1030000b6030000fa
:10350c00bb030000c0030000c5030000ca03000099
:10351c00cf030000d4030000d9030000de03000039
:0c352c00e3030000e8030000c9000000f9
:020000040000fa
:103538002000fa00889fbe00200f9800320f9800e4
:10354800430f9800510f9800640f9800750f98006a
:103558006000b800008fbe006000b8002007980027
:10356800310798006000b80040079800510798009c
:103578000004a8002e089000000040000000400051
:103588008000780000442000008040006007980018
:103598002e0890004280de00000040008000780085
:1035a8000042200000804000700798002e0890001c
:1035b8004380de0000004000800078008041200049
:1035c80000804000000f980040412000100f980034
:1035d8005e089000e10f500049003a003e09900053
:1035e800ce099000f0ff2f000100200002027800b1
:1035f800030178008001780001007800030262006e
:10360800000061008000eb00c000dd000000200029
:103618000001be006120b8000001710081817100c5
:1036280022079800330798003e089000ce089000c3
:10363800408cde00cf8cde000801be003000200088
:103648000100200002027800030178008001780060
:103658000100780003026200000061008000eb00b6
:10366800c000dd00000020000001be006120b8009d
:10367800000171008181710042079800530798008a
:103688003e089000ce089000428bde00cf8bde0013
:103698000601be00f07f2000010020000202780031
:1036a80083017800000178000100780002016200bf
:1036b800008061008000eb00c000dd0000002000f9
:1036c800008fbe006110b8001e1f70001e977000aa
:1036d8001e007800c500dd004e009000008040000c
:1036e800e80040006e009000010878006e0090002d
:1036f8000080e800ae00900001087800190037004b
:103708003e099000ce099000f07f200001002000c3
:103718000202780083017800000178000100780037
:1037280002016200008061008000eb00c000dd0043
:1037380000002000008fbe006110b8001e1f70003e
:103748001e9770001e007800c500dd006e00900016
:10375800010878006e0090000080e8008000eb000f
:10376800010878007e009000900078002e089000f4
:10377800630060004200dd00f20020000010dd0060
:103788000080ea00808060007e00900001087800d8
:103798002e089000630060004200dd00ee089000f3
:1037a8008008dd007e009000100078008100700025
:1037b8007e009000010878000e08900090007800c4
:1037c8002e089000670060000000400032002000d2
:1037d8000010dd000080ea00808060000e08900084
:1037e800010878002e089000670060000000400083
:1037f800fe0890008008dd000e0890001000780098
:10380800810070000e089000010878001100200067
:103818002e0890000008dd00800078001e08900047
:1038280010007800810070001e08900001087800e0
:103838000004a9004f04be000080fa000000060042
:103848001800fa00889fbe0070079800020f9800c1
:10385800130f9800210f9800340f98006000b800eb
:10386800008fbe006000b80020079800310798005c
:103878006000b80040079800510798000004a800ad
:103888007e009000000040000000400080007800aa
:103898000043200000804000600798003e08900028
:1038a800e10f500053003a000e0990009e09900065
:1038b800f0ff2f00010020000202780003017800c9
:1038c80080017800010078000302620000006100b6
:1038d8008000eb00c000dd00000020000001be00f9
:1038e8006120b800000171008181710022079800f1
:1038f800330798000e0890009e089000408cde0068
:10390800cf8cde000801be0030002000010020003e
:103918000202780003017800800178000100780035
:1039280003026200000061008000eb00c000dd00bf
:10393800000020000001be006120b80000017100f5
:103948008181710042079800530798000e08900083
:103958009e089000428bde00cf8bde000601be0081
:10396800f07f200001002000020278008301780027
:103978000001780001007800020162000080610007
:103988008000eb00c000dd0000002000008fbe00ba
:103998006110b8001e1f70001e9770002e0890005e
:1039a800e10f500008003a001e007800c500dd0055
:1039b8004e00900000804000e80040006e0090003b
:1039c80001087800060037001e007800c500dd00f9
:1039d8004e009000808040006e0090000108780042
:1039e8006e0090000080e800ae00900001087800aa
:1039f800220037000e0990009e099000f07f2000f9
:103a0800010020000202780083017800000178009c
:103a18000100780002016200008061008000eb0074
:103a2800c000dd0000002000008fbe006110b8005b
:103a38001e1f70001e9770002e089000e10f5000a6
:103a480006003a001e0078004500dd00e80040004e
:103a58006e00900001087800040037001e0078000e
:103a6800c500dd006e009000010878006e0090002f
:103a78000080e8008000eb00010878000004a9003d
:103a88004f04be000080fa00000006002a00fa0079
:103a9800889fbe008a9fbe008c9fbe00400f980082
:103aa800520f9800630f9800710f98000417980040
:103ab8006000b800008fbe006000b80020079800c2
:103ac800310798006000b800400798005107980037
:103ad8006000b80060079800710798006000b8009f
:103ae800000f9800110f98006000b800200f980090
:103af800310f98007e0890000000e0004900320075
:103b08005e089000ee089000f203200003002000f9
:103b180000027800810278008200780003007800b3
:103b280001026200008062006101b800c011dd007e
:103b3800020020000200be006121b80002007000ef
:103b480083807000000f9800110f98005e089000a5
:103b5800ee0890004a09dd004603de000603710006
:103b6800c68bde000600be00f2ff20000300200026
:103b78008002780081007800020278000300780053
:103b880004826200008060008000eb00c000dd005d
:103b9800000020000001be006120b8000001710093
:103ba80081817100220f9800330f98005e08900001
:103bb800ee089000c289de00131798004f8ade00d5
:103bc800241798001e119000ae119000f07f20007d
:103bd80001002000020278000301780080017800cb
:103be8000100780003026200000061008000eb0021
:103bf800c000dd00000020000001be006120b80008
:103c080000017100818171006207980073079800b4
:103c18002e099000be0990002207980033079800eb
:103c2800130037005e099000ee099000f07f200035
:103c3800010020000202780003017800800178006a
:103c48000100780003026200000061008000eb00c0
:103c5800c000dd00000020000001be006120b800a7
:103c68000001710081817100620798007307980054
:103c78000e109000e10f500017003a006e009000ff
:103c8800fe0090004209dd00ce01de0083017100d4
:103c98004201dd007e0890008000eb00000071000a
:103ca800818071000002be000410a000048fbe00d5
:103cb8000e0990009e0990004a18dd00c610de002b
:103cc800810070004a10dd000090a00040079800b5
:103cd80051079800120037006e009000fe00900017
:103ce8004209dd00ce01de00830171004201dd00e2
:103cf8007e0890008000eb00001f710001977100a2
:103d08000e0990009e0990004a18dd00c610de00da
:103d1800810070004a10dd004007980051079800a4
:103d28007e0890000000e0001e0032001e007800af
:103d3800800178000310a0004e0890004400dd00c8
:103d48006100b80000f0a7000120200005c0240091
:103d58003517980006002000461798003e1290007c
:103d6800ce1290000003d0000401d00002004300ee
:103d78004220a800858048004200a9004220ae00e9
:103d88004200a8000080d300a20180000102780050
:103d980000007800a401880003087800a2018800c8
:103da800170037009e0178004e0890004400dd009f
:103db8006100b80000f0a700012020000cc024001a
:103dc8000d0020000002d0008c02d0000500420047
:103dd8004220a8008d8048004200a9004220ae0081
:103de8004200a8000080d300a201800001027800f0
:103df80000007800a401880003087800a201880068
:103e0800ae0190004e0890004400dd000080e800fc
:103e18006100b80000f0a700012020000ac02400bb
:103e28000b0020000003d0000a01d000020043006c
:103e38004220a8008b8048004200a9004220ae0022
:103e48004200a8000080d300a2018000010278008f
:103e580000007800a401880003087800a201880007
:103e6800ce0190004e0890004400dd006400400040
:103e78006100b80000f0a7000120200008c024005d
:103e8800090020000002d0008802d000050042008e
:103e98004220a800898048004200a9004220ae00c4
:103ea8004200a8000080d300a2018000010278002f
:103eb80000007800a401880003087800a2018800a7
:103ec8004f06be004f05be004f04be000080fa003a
:103ed800000006001a00fa00889fbe008a9fbe00f4
:103ee8008c9fbe00000f78001107980022079800e9
:103ef800330798004407980055079800660798000c
:103f08002e0090006101b8000002eb008000eb0079
:103f18001e007800ddfe07001e0078004400dd006a
:103f2800640040006100b80000f0a70001202000f4
:103f380002c024007207980003002000030f9800b5
:103f48007e0290008e0a90000003d0000401d00089
:103f5800020043004220a800858048004200a900d2
:103f68004220ae004200a8000080d30092018000e9
:103f78008101780003d0fe000000780090007800ee
:103f880002d0fe0000ff2f00808060001e0090001d
:103f9800808140001e0078004400dd00640040007d
:103fa8006100b80000f0a7000120200004c0240030
:103fb800140f980005002000250f98001e0a900095
:103fc800ae0a90000003d0000401d00002004300b4
:103fd8004220a800858048004200a9004220ae0087
:103fe8004200a8000080d300a201800001027800ee
:103ff80000007800a401880003087800a201880066
:104008003e009000c800dd004800de00008070001f
:104018009e007800c408dd00e68040006109b80011
:1040280002f0a7000320200004c02400340f9800e9
:1040380005002000450f98003e0a9000ce0a900027
:104048000203d0008400d000010143004220a800f0
:10405800858149004200a9004220ae004200a80024
:104068000281d300a10180000302780002017800d8
:10407800a401880000097800a10188004e00900082
:10408800c800dd004800de00008070009e00780057
:10409800c408dd00e88040006109b80002f0a7000c
:1040a800032020000cc024000d0020000202d000d4
:1040b8008c02d000050142004220a8008d814900f1
:1040c8004200a9004220ae004200a8000281d300ad
:1040d800a10180000302780002017800a401880091
:1040e80000097800a10188005e009000c800dd008a
:1040f8004800de00008070009e007800c408dd00e3
:10410800ea8040006109b80002f0a70003202000ff
:104118000ac024000b0020000203d0008a00d0004f
:10412800010143004220a8008b8149004200a900f8
:104138004220ae004200a8000281d300a101800005
:104148000302780002017800a401880000097800c1
:10415800a10188006e009000c800dd004800de0064
:10416800008070009e007800c408dd00ec804000ec
:104178006109b80002f0a7000320200008c024004d
:10418800090020000202d0008802d0000501420088
:104198004220a800898149004200a9004220ae00bf
:1041a8004200a8000281d300a10180000302780028
:1041b80002017800a401880000097800a1018800a4
:1041c8004f06be004f05be004f04be000080fa0037
:1041d800000006002800fa00889fbe008a9fbe00e3
:1041e8008c9fbe00000f9800110f9800220f9800b6
:1041f8006357980074579800055f9800165f9800f9
:10420800275f98002e0890006101b8000002eb00bb
:104218008000eb000e0890001cfe07006e50900016
:104228000080fb00000f78007e5090000080fb00ab
:10423800100798000e5890000080fb002007980097
:104248001e5890000080fb00300798002e58900000
:104258000080fb00400798000ef897000080fb00e4
:10426800500798006ef097000080fb0060079800e8
:104278004ef097000080fb00700798000e08900031
:104288004400dd00640040006100b80000f0a700b1
:104298000120200002c02400620f980003002000c3
:1042a800730f98006e0a9000fe0a90000003d00079
:1042b8000401d000020043004220a8008580480085
:1042c8004200a9004220ae004200a8000080d300ae
:1042d800920180008101780003d0fe000000780080
:1042e8009000780002d0fe0000ff2f008080600060
:1042f8001e089000808140000e0890004400dd00f8
:10430800640040006100b80000f0a7000120200010
:1043180004c0240004179800050020001517980011
:104328000e1290009e1290000003d0000401d000ed
:10433800020043004220a800858048004200a900ee
:104348004220ae004200a8000080d300a2018000f5
:104358000102780000007800a401880003087800b2
:10436800a20188001e009000c800dd00f00f2000a8
:104378001e006000810170000e0890004400dd00fe
:10438800660040006100b80000f0a700012020008e
:1043980004c0240024179800050020003517980051
:1043a8002e129000be1290000003d0000401d0002d
:1043b800020043004220a800858048004200a9006e
:1043c8004220ae004200a8000080d300a201800075
:1043d8000102780000007800a40188000308780032
:1043e800a20188003e009000c800dd002e01900068
:1043f800f00f200000006100810170000e0890009d
:104408004400dd00680040006100b80000f0a7002b
:10441800012020000cc024000d0020000002d00064
:104428008c02d000050042004220a8008d80480080
:104438004200a9004220ae004200a8000080d3003c
:10444800a20180000102780000007800a401880021
:1044580003087800a20188005e009000c800dd0013
:104468004e019000f00f20000000610081017000f3
:104478000e0890004400dd006a0040006100b800aa
:1044880000f0a700012020000ac024000b00200033
:104498000003d0000a01d000020043004220a80017
:1044a8008b8048004200a9004220ae004200a800cc
:1044b8000080d300a201800001027800000078008b
:1044c800a401880003087800a20188007e009000fb
:1044d800c800dd006e019000f00f200000006100b0
:1044e800810170000e0890004400dd006c0040005f
:1044f8006100b80000f0a7000120200008c02400d7
:10450800090020000002d0008802d0000500420007
:104518004220a800898048004200a9004220ae003d
:104528004200a8000080d300a201800001027800a8
:1045380000007800a401880003087800a201880020
:104548004f06be004f05be004f04be000080fa00b3
:10455800000006000400fa00100798000004a800f4
:1045680040412000000f78001e007800900078007d
:10457800120020001e0090000010dd000080ea00fc
:10458800808060001e007800010878000004a900ff
:104598000080fa00000006000200fa0000218000f6
:1045a800610060000000e000030032000040eb0002
:1045b800004f7800f10037000021800062006000a1
:1045c8000000e0000300320010c0b300004f780084
:1045d800ea00370000218000640060000000e0006d
:1045e8000300320020c0b300004f7800e30037001a
:1045f80000218000680060000000e0000300320035
:1046080030c0b300004f7800dc0037000021800084
:10461800700060000000e0000300320040c0b300fa
:10462800004f7800d50037000121800000022000eb
:10463800008060000000e0000300320050c0b300ba
:10464800004f7800cd0037000121800000042000d1
:10465800008060000000e0000300320060c0b3008a
:10466800004f7800c50037000121800000082000b5
:10467800008060000000e0000300320070c0b3005a
:10468800004f7800bd003700012180000010200095
:10469800008060000000e0000300320080c0b3002a
:1046a800004f7800b500370001218000002020006d
:1046b800008060000000e0000300320090c0b300fa
:1046c800004f7800ad003700012180000040200035
:1046d800008060000000e00003003200a0c0b300ca
:1046e800004f7800a50037000121800000802000dd
:1046f800008060000000e00003003200b0c0b3009a
:10470800004f78009d003700012180000000210043
:10471800008060000000e00003003200c0c0b30069
:10472800004f78009500370001218000000022002a
:10473800008060000000e00003003200d0c0b30039
:10474800004f78008d003700012180000000240010
:10475800008060000000e00003003200e0c0b30009
:10476800004f7800850037000121800000002800f4
:10477800008060000000e00003003200f0c0b300d9
:10478800004f78007d003700102180006100600034
:104798000000e0000300320000c1b300004f7800c1
:1047a8007600370010218000620060000000e00001
:1047b8000300320010c1b300004f78006f003700cb
:1047c80010218000640060000000e0000300320057
:1047d80020c1b300004f7800680037001021800026
:1047e800680060000000e0000300320030c1b30040
:1047f800004f7800610037001021800070006000d1
:104808000000e0000300320040c1b300004f780010
:104818005a0037001121800000022000008060004b
:104828000000e0000300320050c1b300004f7800e0
:104838005200370011218000000420000080600031
:104848000000e0000300320060c1b300004f7800b0
:104858004a00370011218000000820000080600015
:104868000000e0000300320070c1b300004f780080
:1048780042003700112180000010200000806000f5
:104888000000e0000300320080c1b300004f780050
:104898003a003700112180000020200000806000cd
:1048a8000000e0000300320090c1b300004f780020
:1048b8003200370011218000004020000080600095
:1048c8000000e00003003200a0c1b300004f7800f0
:1048d8002a0037001121800000802000008060003d
:1048e8000000e00003003200b0c1b300004f7800c0
:1048f80022003700112180000000210000806000a4
:104908000000e00003003200c0c1b300004f78008f
:104918001a0037001121800000002200008060008a
:104928000000e00003003200d0c1b300004f78005f
:104938001200370011218000000024000080600070
:104948000000e00003003200e0c1b300004f78002f
:104958000a00370011218000000028000080600054
:104968000000e00003003200f0c1b300004f7800ff
:104978000200370000c0eb00004f78001e407800ae
:104988000080fa00000006000000fa000021800004
:1049980000f0a7000000ea000000e9004f00de0078
:1049a800804078001021800000f0a7000000ea0095
:1049b8000000e9004f00de000040780000c0600001
:1049c8000004e0000200320010c0b300010037000c
:1049d8000040eb000080fa00000006001400fa0016
:1049e800889fbe008a9fbe008c9fbe0020579800fb
:1049f8002e5090000080fb004400dd006100b800ec
:104a080000f0a700012020000ac024000b002000ad
:104a18000006d0008a06d0000d0046004220a800fb
:104a28008b8048004200a9004220ae004200a80046
:104a38000080d3009a018000810578000bd0fe0029
:104a480000007800100078000ad0fe0061006000c5
:104a5800200798002e0090000000e00029003a008e
:104a68002e5090000080fb004400dd006100b8007b
:104a780000f0a7000120200008c024000900200041
:104a88000001d0008801d000030041004220a800a6
:104a9800898048004200a9004220ae004200a800d8
:104aa8000080d300920180008101780003d0fe00cd
:104ab800000078001000780002d0fe004200de00fe
:104ac8006101b800f07f2000010020000202780098
:104ad800830178000001780001007800020162007b
:104ae800008061008000eb00c000dd0000002000b5
:104af800008fbe006110b8001e1f70001e97700066
:104b0800870037002e5090000080fb004400dd0035
:104b18006100b80000f0a7000120200002c02400b6
:104b2800030020000002d0008202d00005004200ed
:104b38004220a800838048004200a9004220ae001d
:104b48004200a8000080d300920180008101780013
:104b580003d0fe00000078001000780002d0fe00ac
:104b68008000eb0030079800410798003e00900055
:104b7800ce009000c001dd000200200000002000ef
:104b8800f17f20000204780003017800800178009a
:104b98000100780003046400000061008000eb005d
:104ba800c000dd00000020000001be006140b80028
:104bb8000001710081817100320798004307980055
:104bc8002e5090000080fb004400dd000080e800cb
:104bd8006100b80000f0a7000120200006c02400f2
:104be800070020000006d0008606d0000d00460011
:104bf8004220a800878048004200a9004220ae0059
:104c08004200a8000080d300920180008101780052
:104c180003d0fe00000078001000780002d0fe00eb
:104c28008000eb0050079800610798005e00900034
:104c3800ee0090004609dd00ca01de008301710024
:104c48004601dd0000fc2f0031002000020378003f
:104c580003017800800178000100780003036300f5
:104c6800000061008000eb00c000dd0000002000b3
:104c78000001be006130b80000017100818171003f
:104c880052079800630798002e5090000080fb00a0
:104c98004400dd00640040006100b80000f0a70097
:104ca8000120200004c02400050020000001d000dd
:104cb8008401d000030041004220a80085804800fc
:104cc8004200a9004220ae004200a8000080d300a4
:104cd800920180008101780003d0fe000000780076
:104ce8001000780002d0fe004a00de008000eb00d1
:104cf80070079800010f98003e019000ce019000c7
:104d08005e009000ee00900000017100818171004a
:104d18007e0090008e089000001f710001977100be
:104d28001e0078009e0090004f06be004f05be0092
:104d38004f04be000080fa00000006000400fa00dc
:104d4800204798002e4090000080fb004400dd00c2
:104d5800640040006100b80000f0a70001202000b6
:104d680002c02400030020000002d0008202d0000c
:104d7800050042004220a800838048004200a900a4
:104d88004220ae004200a8000080d30092018000bb
:104d98008101780003d0fe00000078001000780040
:104da80002d0fe00004078006f4f60001e4078007f
:104db8000080fa00000006000400fa00204798006e
:104dc800314798002e4090008080fb003e409000c4
:104dd8000080fb0063004000c308dd000080400045
:104de800000040006100b80000f0a700012020008a
:104df80002c02400030020000002d0008202d0007c
:104e0800050042004220a800838048004200a90013
:104e18004220ae004200a8000080d300920180002a
:104e28008101780003d0fe0000007800100f7800a0
:104e380002d0fe001e007800c800dd004800de0039
:104e4800008f70001e0078000080fa000000060045
:104e58002000fa00889fbe00200f9800320f9800ab
:104e6800430f9800510f9800640f9800750f980031
:104e78006000b800008fbe006000b80020079800ee
:104e8800310798006000b800400798005107980063
:104e98000005a8002e089000000040000000400017
:104ea80080007800005420000080400060079800cf
:104eb8002e0890004280de0000004000800078004c
:104ec8000052200000804000700798002e089000d3
:104ed8004380de0000004000800078008051200000
:104ee80000804000000f980040512000100f9800eb
:104ef8005e089000e10f500049003a003e0990001a
:104f0800ce099000f0ff2f00010020000202780077
:104f18000301780080017800010078000302620034
:104f2800000061008000eb00c000dd0000002000f0
:104f38000001be006120b80000017100818171008c
:104f480022079800330798003e089000ce0890008a
:104f5800408cde00cf8cde000801be00300020004f
:104f68000100200002027800030178008001780027
:104f78000100780003026200000061008000eb007d
:104f8800c000dd00000020000001be006120b80064
:104f98000001710081817100420798005307980051
:104fa8003e089000ce089000428bde00cf8bde00da
:104fb8000601be00f07f20000100200002027800f8
:104fc8008301780000017800010078000201620086
:104fd800008061008000eb00c000dd0000002000c0
:104fe800008fbe006110b8001e1f70001e97700071
:104ff8001e007800c500dd004e00900000804000d3
:10500800e80040006e009000010878006e009000f3
:105018000080e800ae009000010878001900370011
:105028003e099000ce099000f07f2000010020008a
:1050380002027800830178000001780001007800fe
:1050480002016200008061008000eb00c000dd000a
:1050580000002000008fbe006110b8001e1f700005
:105068001e9770001e007800c500dd006e009000dd
:10507800010878006e0090000080e8008000eb00d6
:10508800010878007e009000900078002e089000bb
:10509800630060004200dd00f20020000010dd0027
:1050a8000080ea00808060007e009000010878009f
:1050b8002e089000630060004200dd00ee089000ba
:1050c8008008dd007e0090001000780081007000ec
:1050d8007e009000010878000e089000900078008b
:1050e8002e08900067006000000040003200200099
:1050f8000010dd000080ea00808060000e0890004b
:10510800010878002e089000670060000000400049
:10511800fe0890008008dd000e089000100078005e
:10512800810070000e08900001087800110020002e
:105138002e0890000008dd00800078001e0890000e
:1051480010007800810070001e08900001087800a7
:105158000005a9004f04be000080fa000000060008
:105168001800fa00889fbe0070079800020f980088
:10517800130f9800210f9800340f98006000b800b2
:10518800008fbe006000b800200798003107980023
:105198006000b80040079800510798000005a80073
:1051a8007e00900000004000000040008000780071
:1051b8000053200000804000600798003e089000df
:1051c800e10f500053003a000e0990009e0990002c
:1051d800f0ff2f0001002000020278000301780090
:1051e800800178000100780003026200000061007d
:1051f8008000eb00c000dd00000020000001be00c0
:105208006120b800000171008181710022079800b7
:10521800330798000e0890009e089000408cde002e
:10522800cf8cde000801be00300020000100200005
:1052380002027800030178008001780001007800fc
:1052480003026200000061008000eb00c000dd0086
:10525800000020000001be006120b80000017100bc
:105268008181710042079800530798000e0890004a
:105278009e089000428bde00cf8bde000601be0048
:10528800f07f2000010020000202780083017800ee
:1052980000017800010078000201620000806100ce
:1052a8008000eb00c000dd0000002000008fbe0081
:1052b8006110b8001e1f70001e9770002e08900025
:1052c800e10f500008003a001e007800c500dd001c
:1052d8004e00900000804000e80040006e00900002
:1052e80001087800060037001e007800c500dd00c0
:1052f8004e009000808040006e0090000108780009
:105308006e0090000080e800ae0090000108780070
:10531800220037000e0990009e099000f07f2000bf
:105328000100200002027800830178000001780063
:105338000100780002016200008061008000eb003b
:10534800c000dd0000002000008fbe006110b80022
:105358001e1f70001e9770002e089000e10f50006d
:1053680006003a001e0078004500dd00e800400015
:105378006e00900001087800040037001e007800d5
:10538800c500dd006e009000010878006e009000f6
:105398000080e8008000eb00010878000005a90003
:1053a8004f04be000080fa00000006002a00fa0040
:1053b800889fbe008a9fbe008c9fbe00400f980049
:1053c800520f9800630f9800710f98000417980007
:1053d8006000b800008fbe006000b8002007980089
:1053e800310798006000b8004007980051079800fe
:1053f8006000b80060079800710798006000b80066
:10540800000f9800110f98006000b800200f980056
:10541800310f98007e0890000000e000490032003b
:105428005e089000ee089000f203200003002000c0
:10543800000278008102780082007800030078007a
:1054480001026200008062006101b800c011dd0045
:10545800020020000200be006121b80002007000b6
:1054680083807000000f9800110f98005e0890006c
:10547800ee0890004a09dd004603de0006037100cd
:10548800c68bde000600be00f2ff200003002000ed
:10549800800278008100780002027800030078001a
:1054a80004826200008060008000eb00c000dd0024
:1054b800000020000001be006120b800000171005a
:1054c80081817100220f9800330f98005e089000c8
:1054d800ee089000c289de00131798004f8ade009c
:1054e800241798001e119000ae119000f07f200044
:1054f8000100200002027800030178008001780092
:105508000100780003026200000061008000eb00e7
:10551800c000dd00000020000001be006120b800ce
:10552800000171008181710062079800730798007b
:105538002e099000be0990002207980033079800b2
:10554800130037005e099000ee099000f07f2000fc
:105558000100200002027800030178008001780031
:105568000100780003026200000061008000eb0087
:10557800c000dd00000020000001be006120b8006e
:10558800000171008181710062079800730798001b
:105598000e109000e10f500017003a006e009000c6
:1055a800fe0090004209dd00ce01de00830171009b
:1055b8004201dd007e0890008000eb0000007100d1
:1055c800818071000002be000410a000048fbe009c
:1055d8000e0990009e0990004a18dd00c610de00f2
:1055e800810070004a10dd000090a000400798007c
:1055f80051079800120037006e009000fe009000de
:105608004209dd00ce01de00830171004201dd00a8
:105618007e0890008000eb00001f71000197710068
:105628000e0990009e0990004a18dd00c610de00a1
:10563800810070004a10dd0040079800510798006b
:105648007e0890000000e0001e0032001e00780076
:10565800800178000310a0004e0890004400dd008f
:105668006100b80000f0a700012020000580240098
:105678003517980006002000461798003e12900043
:10568800ce1290000003d0000401d00002004300b5
