:020000040000fa
:080000000002040000000000f2
:020000040000fa
:04000800621700007b
:020000040000fa
:04000c006217000077
:020000040000fa
:040010006217000073
:020000040000fa
:04001400621700006f
:020000040000fa
:04001800621700006b
:020000040000fa
:04001c006217000067
:020000040000fa
:040020006217000063
:020000040000fa
:04002400621700005f
:020000040000fa
:04002800621700005b
:020000040000fa
:04002c006217000057
:020000040000fa
:040030006217000053
:020000040000fa
:04003400621700004f
:020000040000fa
:04003800421700006b
:020000040000fa
:04003c006217000047
:020000040000fa
:040040006217000043
:020000040000fa
:04004400fa020000bc
:020000040000fa
:04004800621700003b
:020000040000fa
:04004c006217000037
:020000040000fa
:040050006217000033
:020000040000fa
:04005400621700002f
:020000040000fa
:04005800621700002b
:020000040000fa
:04005c006217000027
:020000040000fa
:040060004a1700003b
:020000040000fa
:04006400621700001f
:020000040000fa
:04006800621700001b
:020000040000fa
:04006c006217000017
:020000040000fa
:040070006217000013
:020000040000fa
:04007400621700000f
:020000040000fa
:04007800621700000b
:020000040000fa
:04007c006217000007
:020000040000fa
:040080006217000003
:020000040000fa
:0400840062170000ff
:020000040000fa
:04008800521700000b
:020000040000fa
:04008c0062170000f7
:020000040000fa
:0400900062170000f3
:020000040000fa
:0400940062170000ef
:020000040000fa
:0400980062170000eb
:020000040000fa
:04009c0062170000e7
:020000040000fa
:0400a00062170000e3
:020000040000fa
:0400a40062170000df
:020000040000fa
:0400a80062170000db
:020000040000fa
:0400ac0062170000d7
:020000040000fa
:0400b00062170000d3
:020000040000fa
:0400b400ee03000057
:020000040000fa
:0400b8005a170000d3
:020000040000fa
:0400bc0062170000c7
:020000040000fa
:0400c00062170000c3
:020000040000fa
:0400c40062170000bf
:020000040000fa
:0400c80062170000bb
:020000040000fa
:0400cc0062170000b7
:020000040000fa
:0400d00062170000b3
:020000040000fa
:0400d40062170000af
:020000040000fa
:0400d80062170000ab
:020000040000fa
:0400dc0062170000a7
:020000040000fa
:0400e00062170000a3
:020000040000fa
:0400e400621700009f
:020000040000fa
:0400e800621700009b
:020000040000fa
:0400ec006217000097
:020000040000fa
:0400f0006217000093
:020000040000fa
:0400f400621700008f
:020000040000fa
:0400f800621700008b
:020000040000fa
:0400fc006217000087
:020000040000fa
:040100006217000082
:020000040000fa
:04010400621700007e
:020000040000fa
:040108009c04000053
:020000040000fa
:04010c006217000076
:020000040000fa
:040110006217000072
:020000040000fa
:04011400621700006e
:020000040000fa
:04011800621700006a
:020000040000fa
:04011c006217000066
:020000040000fa
:040120006217000062
:020000040000fa
:04012400621700005e
:020000040000fa
:04012800621700005a
:020000040000fa
:04012c006217000056
:020000040000fa
:040130006217000052
:020000040000fa
:04013400621700004e
:020000040000fa
:04013800621700004a
:020000040000fa
:04013c006217000046
:020000040000fa
:040140006217000042
:020000040000fa
:04014400621700003e
:020000040000fa
:04014800621700003a
:020000040000fa
:04014c006217000036
:020000040000fa
:040150006217000032
:020000040000fa
:04015400621700002e
:020000040000fa
:04015800621700002a
:020000040000fa
:04015c006217000026
:020000040000fa
:040160006217000022
:020000040000fa
:04016400621700001e
:020000040000fa
:04016800621700001a
:020000040000fa
:04016c006217000016
:020000040000fa
:040170006217000012
:020000040000fa
:04017400621700000e
:020000040000fa
:04017800621700000a
:020000040000fa
:04017c006217000006
:020000040000fa
:040180006217000002
:020000040000fa
:0401840062170000fe
:020000040000fa
:0401880062170000fa
:020000040000fa
:04018c0062170000f6
:020000040000fa
:0401900062170000f2
:020000040000fa
:0401940062170000ee
:020000040000fa
:0401980062170000ea
:020000040000fa
:04019c0062170000e6
:020000040000fa
:0401a00062170000e2
:020000040000fa
:0401a40062170000de
:020000040000fa
:0401a80062170000da
:020000040000fa
:0401ac0062170000d6
:020000040000fa
:0401b00062170000d2
:020000040000fa
:0401b40062170000ce
:020000040000fa
:0401b80062170000ca
:020000040000fa
:0401bc0062170000c6
:020000040000fa
:0401c00062170000c2
:020000040000fa
:0401c40062170000be
:020000040000fa
:0401c80062170000ba
:020000040000fa
:0401cc0062170000b6
:020000040000fa
:0401d00062170000b2
:020000040000fa
:0401d40062170000ae
:020000040000fa
:0401d80062170000aa
:020000040000fa
:0401dc0062170000a6
:020000040000fa
:0401e00062170000a2
:020000040000fa
:0401e400621700009e
:020000040000fa
:0401e800621700009a
:020000040000fa
:0401ec006217000096
:020000040000fa
:0401f0006217000092
:020000040000fa
:0401f400621700008e
:020000040000fa
:0401f800621700008a
:020000040000fa
:0401fc006217000086
:020000040000fa
:040200006217000081
:020000040000fa
:04020400621700007d
:020000040000fa
:040208006217000079
:020000040000fa
:04020c006217000075
:020000040000fa
:040210006217000071
:020000040000fa
:04021400621700006d
:020000040000fa
:040218006217000069
:020000040000fa
:04021c006217000065
:020000040000fa
:040220006217000061
:020000040000fa
:04022400621700005d
:020000040000fa
:040228006217000059
:020000040000fa
:04022c006217000055
:020000040000fa
:040230006217000051
:020000040000fa
:04023400621700004d
:020000040000fa
:040238006217000049
:020000040000fa
:04023c006217000045
:020000040000fa
:040240006217000041
:020000040000fa
:04024400621700003d
:020000040000fa
:040248006217000039
:020000040000fa
:04024c006217000035
:020000040000fa
:040250006217000031
:020000040000fa
:04025400621700002d
:020000040000fa
:040258006217000029
:020000040000fa
:04025c006217000025
:020000040000fa
:040260006217000021
:020000040000fa
:04026400621700001d
:020000040000fa
:040268006217000019
:020000040000fa
:04026c006217000015
:020000040000fa
:040270006217000011
:020000040000fa
:04027400621700000d
:020000040000fa
:040278006217000009
:020000040000fa
:04027c006217000005
:020000040000fa
:040280006217000001
:020000040000fa
:100400008f3121000eff27000e0188000000000040
:10041000000020000000e000020032000001200087
:100420002002880014000700a80a07000000e0006e
:1004300003003a00207e2400010020000200370063
:100440000000200001002000810f70000100320038
:100450000f000700000020000000e0000200320052
:100460000000020000000000fe3e0200000000004c
:100470000040da000000fe00200020000000e00044
:1004800002003200100020009001880000000600e9
:10049000a1028800800478000000eb001f003700f4
:1004a000e284440054a0b4009905ba00e2844400f8
:1004b00054a0b4009906ba00e284440054a0b400e9
:1004c0000006eb00476fde00fd07b200ae018800ba
:1004d000636ce10003003a000ad801000000eb0061
:1004e0000e003700606ce10008003a00004deb00a0
:1004f0000a05e800020039003420ec000af0a000f0
:100500008b05e900f9ff3e00040037006168e10057
:10051000010032000086eb000b00070019c7ba008b
:100520000e04e0001905ba0003003a000a00e000da
:10053000dbff3a0000000600fe07b200ae028800b2
:100540008a047800f5ff37000cd0a300e20f4d00bd
:100550001c003b0089027800354dba000a05e8000e
:10056000020039003420ec000af0a0008b05e900fd
:100570000f003200254dba000a05e80002003900dc
:100580003420ec000af0a0008b05e90008003200de
:100590000c00e0000600320015cdba000a05e800a4
:1005a000020039003420ec000af0a0008b05e900bd
:1005b0008984e80054a0b4000b00e000e2ff3a0098
:1005c000000006009902ba00055d78008b05e9007d
:1005d000f7ff3200c82ade00055d78008b05e900d0
:1005e000f3ff32000c00e000f1ff320019ddba0029
:1005f000eeff3700809fbe000000fa00008f2d0044
:100600003008880070828000818280006100400094
:10061000e08048007082880081828800d08180005c
:10062000e10f500006003a00b0868000c1868000cd
:1006300061004000e0804800b0868800c1868800e4
:10064000e0818000e10f500006003a00d086800073
:10065000e186800061004000e0804800d08688008c
:10066000e1868800f0818000e10f500006003a002a
:10067000f08680000187800061004000e080480033
:10068000f08688000187880000828000e10f50001a
:1006900003003a00708780000000e800708788003f
:1006a000908680000000e8009086880050868000d8
:1006b0000000e80050868800a08680000000e80066
:1006c000a08688001087800021878000610040009c
:1006d000e0804800108788002187880030878000ec
:1006e0004187800061004000e0804800308788003a
:1006f000418788005087800061878000610040004a
:10070000e0804800508788006187880090818000e1
:10071000e10f50002d003a00608580000000e800e5
:1007200060858800708580000000e8007085880082
:10073000808580000000e80080858800908580002a
:100740000000e80090858800a08580000000e80097
:10075000a0858800b08580000000e800b085880092
:10076000c08580000000e800c0858800d08580003a
:100770000000e800d0858800e08580000000e800e7
:10078000e0858800f08580000000e800f0858800a2
:10079000008680000000e800008688001086800047
:1007a0000000e80010868800208680000000e80035
:1007b00020868800308680000000e80030868800af
:1007c000408680000000e8004086880000e8a9001c
:1007d0000080fa004f00be00004006003600f8001e
:1007e000809fbe00829fbe00849fbe00869fbe0089
:1007f0000000fa000468a900502080006100600039
:100800000000e000010032000a04a900502080002e
:10081000620060000000e000400032002617070080
:100820000080fb002080880020808000004078004d
:100830003218070000007800308088003180800086
:1008400000082000808f500002003a0010002000b5
:10085000108288003180800000092000808f5000c5
:100860002b003a0020808000004078008040eb00a0
:100870003219070040808800408080004880de00f8
:100880004080880040808000e60f500005003a005c
:1008900010002000608088001a30ef00120ea800bf
:1008a0001b00370040808000e30f500004003a0036
:1008b00010002000d0808800120ea800140037001d
:1008c00040808000e80f500004003a001000200033
:1008d00070808800120ea9000d0037004080800053
:1008e000e90f500004003a0010002000e08088006a
:1008f000120ea80006003700408080000000e000d3
:1009000003003a001000200080808800120ea90029
:100910002024ef002224ef000a24a9000080fa001e
:100920004f03be004f02be004f01be004f00be008d
:100930003600f900004006003600f800809fbe0037
:10094000829fbe00849fbe00869fbe000000fa000a
:100950000708a90050288000610060000000e00046
:10096000010032000a05a9005028800062006000e2
:100970000000e0003c093200fb0f07000080fb0094
:100980000080880000808000004078000711070088
:100990000000780010808800108080006101b9009c
:1009a000e0f72f00f1ff2f00020040008380480095
:1009b000e233200003002000820f5000838f580094
:1009c00026093e00000601004103370056033700a8
:1009d0006a03370074033700890337001f093700a3
:1009e0009c033700b1033700c5033700cf0337003e
:1009f000e4033700f8033700020437001704370018
:100a0000160937002a0437003f0437005304370023
:100a10005d04370072043700860437009004370005
:100a2000a50437000d093700b8043700cd0437009e
:100a3000e1043700eb0437000005370014053700e8
:100a40001e05370033053700040937004605370017
:100a50005b0537006f053700790537008e053700d5
:100a6000a2053700ac053700c1053700fb08370089
:100a7000d4053700e9053700fd053700f7083700d2
:100a8000f6083700f5083700f4083700f308370098
:100a9000f2083700f1083700f0083700ef08370098
:100aa000ee083700ed083700ec083700eb08370098
:100ab000ea083700e9083700e8083700e708370098
:100ac000f60537000a0637001d06370031063700e5
:100ad00045063700590637006d0637008106370096
:100ae00095063700a9063700bd063700d106370046
:100af000e5063700f90637000d07370021073700f4
:100b000035073700490737005d07370071073700a1
:100b10008507370099073700ad073700c107370051
:100b2000d5073700e9073700fd0737001108370000
:100b30002508370039083700c8083700c7083700cc
:100b40004b08370051083700570837005d08370059
:100b500063083700690837006f08370075083700e9
:100b60007b08370081083700870837008d08370079
:100b700093083700990837009f083700b7083700f7
:100b8000b6083700b5083700b4083700b308370097
:100b9000b2083700b1083700b0083700af08370097
:100ba000ae083700ad083700ac083700ab08370097
:100bb000aa083700a9083700a8083700c102370083
:100bc000a6083700a5083700a4083700a308370097
:100bd000a2083700a1083700a00837009f08370097
:100be0009e0837009d0837009c0837009b08370097
:100bf0009a08370099083700980837009708370097
:100c00009608370095083700940837009308370096
:100c10009208370091083700900837008f08370096
:100c20008e0837008d0837008c0837008b08370096
:100c30008a08370089083700880837008708370096
:100c40008608370085083700840837008308370096
:100c50008208370081083700800837007f08370096
:100c60007e0837007d0837007c0837007b08370096
:100c70007a08370079083700780837007708370096
:100c80007608370075083700740837007308370096
:100c90007208370071083700700837006f08370096
:100ca0006e0837006d0837006c0837006b08370096
:100cb0006a08370069083700680837006708370096
:100cc0006608370065083700640837006308370096
:100cd0006208370061083700600837005f08370096
:100ce0005e0837005d0837005c0837005b08370096
:100cf0005a08370059083700580837005708370096
:100d00005608370055083700540837005308370095
:100d10005208370051083700500837004f08370095
:100d20004e0837004d0837004c0837004b08370095
:100d30004a08370049083700480837004708370095
:100d40004608370045083700440837004308370095
:100d50004208370041083700400837003f08370095
:100d60003e0837003d0837003c0837003b08370095
:100d70003a08370039083700380837003708370095
:100d80003608370035083700340837003308370095
:100d90003208370031083700300837002f08370095
:100da0002e0837002d0837002c0837002b08370095
:100db0002a08370029083700280837002708370095
:100dc0002608370025083700240837002308370095
:100dd0002208370021083700200837001f08370095
:100de0001e0837001d0837001c0837001b08370095
:100df0001a08370019083700180837001708370095
:100e00001608370015083700140837001308370094
:100e10001208370011083700100837000f08370094
:100e20000e0837000d0837000c0837000b08370094
:100e30000a08370009083700080837000708370094
:100e40000608370005083700040837000308370094
:100e5000020837000108370000083700ff07370095
:100e6000fe073700fd073700fc073700fb07370098
:100e7000fa073700f9073700f8073700f707370098
:100e8000f6073700f5073700f4073700f307370098
:100e9000f2073700f1073700f0073700ef07370098
:100ea000ee073700ed073700ec073700eb07370098
:100eb000ea073700e9073700e8073700e707370098
:100ec000e6073700e5073700e4073700e307370098
:100ed000e2073700e1073700e0073700df07370098
:100ee000de073700dd073700dc073700db07370098
:100ef000da073700d9073700d8073700d707370098
:100f0000d6073700d5073700d4073700d307370097
:100f1000d2073700d1073700d0073700cf07370097
:100f2000ce073700cd073700cc073700cb07370097
:100f3000ca073700c9073700c8073700c707370097
:100f4000c6073700c5073700c4073700c307370097
:100f5000c2073700c1073700c0073700bf07370097
:100f6000be073700bd073700bc073700bb07370097
:100f7000ba073700b9073700b8073700b707370097
:100f8000b6073700b5073700b4073700b307370097
:100f9000b2073700b1073700b0073700af07370097
:100fa000ae073700ad073700ac073700ab07370097
:100fb000aa073700a9073700a8073700a707370097
:100fc000a6073700a5073700a4073700a307370097
:100fd000a2073700a1073700a00737009f07370097
:100fe0009e0737009d0737009c0737009b07370097
:100ff0009a07370099073700980737009707370097
:101000009607370095073700940737009307370096
:101010009207370091073700900737008f07370096
:101020008e0737008d0737008c0737008b07370096
:101030008a07370089073700880737008707370096
:101040008607370085073700840737008307370096
:101050008207370081073700800737007f07370096
:101060007e0737007d0737007c0737007b07370096
:101070007a07370079073700780737007707370096
:101080007607370075073700740737007307370096
:101090007207370071073700700737006f07370096
:1010a0006e0737006d0737006c0737006b07370096
:1010b0006a07370069073700680737006707370096
:1010c0006607370065073700640737006307370096
:1010d0006207370061073700600737005f07370096
:1010e0005e0737005d0737005c0737005b07370096
:1010f0005a07370059073700580737005707370096
:101100005607370055073700540737005307370095
:101110005207370051073700500737004f07370095
:101120004e0737004d0737004c0737004b07370095
:101130004a07370049073700480737004707370095
:101140004607370045073700440737004307370095
:101150004207370041073700400737003f07370095
:101160003e0737003d0737003c0737003b07370095
:101170003a07370039073700380737003707370095
:101180003607370035073700340737003307370095
:101190003207370031073700300737002f07370095
:1011a0002e0737002d0737002c0737002b07370095
:1011b0002a07370029073700280737002707370095
:1011c0002607370025073700240737002307370095
:1011d0002207370021073700200737001f07370095
:1011e0001e0737001d0737001c0737001b07370095
:1011f0001a07370019073700180737001707370095
:101200001607370015073700140737001307370094
:101210001207370011073700100737000f07370094
:101220000e0737000d0737000c0737000b07370094
:101230000a07370009073700080737000707370094
:101240000607370005073700040737000307370094
:10125000020737000107370000073700ff06370095
:10126000fe063700fd063700fc063700fb06370098
:10127000fa063700f9063700f8063700f706370098
:10128000f6063700f5063700f4063700f306370098
:10129000f2063700f1063700f0063700ef06370098
:1012a000ee063700ed063700ec063700eb06370098
:1012b000ea063700e9063700e8063700e706370098
:1012c000e6063700e5063700e4063700e306370098
:1012d000e2063700e1063700e0063700df06370098
:1012e000de063700dd063700dc063700db06370098
:1012f000da063700d9063700d8063700d706370098
:10130000d6063700d5063700d4063700d306370097
:10131000d2063700d1063700d0063700cf06370097
:10132000ce063700cd063700cc063700cb06370097
:10133000ca063700c9063700c8063700c706370097
:10134000c6063700c5063700c4063700c306370097
:10135000c2063700c1063700c0063700bf06370097
:10136000be063700bd063700bc063700bb06370097
:10137000ba063700b9063700b8063700b706370097
:10138000b6063700b5063700b4063700b306370097
:10139000b2063700b1063700b0063700af06370097
:1013a000ae063700ad063700ac063700ab06370097
:1013b000aa063700a9063700a8063700a706370097
:1013c000a6063700a5063700a4063700a306370097
:1013d000a2063700a1063700a00637009f06370097
:1013e0009e0637009d0637009c0637009b06370097
:1013f0009a06370099063700980637009706370097
:101400009606370095063700940637009306370096
:101410009206370091063700900637008f06370096
:101420008e0637008d0637008c0637008b06370096
:101430008a06370089063700880637008706370096
:101440008606370085063700840637008306370096
:101450008206370081063700800637007f06370096
:101460007e0637007d0637007c0637007b06370096
:101470007a06370079063700780637007706370096
:101480007606370075063700740637007306370096
:101490007206370071063700700637006f06370096
:1014a0006e0637006d0637006c0637006b06370096
:1014b0006a06370069063700680637006706370096
:1014c0006606370065063700640637006306370096
:1014d0006206370061063700600637005f06370096
:1014e0005e0637005d0637005c0637005b06370096
:1014f0005a06370059063700580637005706370096
:101500005606370055063700540637005306370095
:101510005206370051063700500637004f06370095
:101520004e0637004d0637004c0637004b06370095
:101530004a06370049063700480637004706370095
:101540004606370045063700440637004306370095
:101550004206370041063700400637003f06370095
:101560003e0637003d0637003c0637003b06370095
:101570003a06370039063700380637003706370095
:101580003606370035063700340637003306370095
:101590003206370031063700300637002f06370095
:1015a0002e0637002d0637002c0637002b06370095
:1015b0002a06370029063700280637002706370095
:1015c0002606370025063700240637002306370095
:1015d0002206370021063700200637001f06370095
:1015e0001e0637001d0637001c0637001b06370095
:1015f0001a06370019063700180637001706370095
:101600001606370015063700140637001306370094
:101610001206370011063700100637000f06370094
:101620000e0637000d0637000c0637000b06370094
:101630000a06370009063700080637000706370094
:101640000606370005063700040637000306370094
:10165000020637000106370000063700ff05370095
:10166000fe053700fd053700fc053700fb05370098
:10167000fa053700f9053700f8053700f705370098
:10168000f6053700f5053700f4053700f305370098
:10169000f2053700f1053700f0053700ef05370098
:1016a000ee053700ed053700ec053700eb05370098
:1016b000ea053700e9053700e8053700e705370098
:1016c000d40537004e30ef005030ef00e30537000f
:1016d000ac30ef0000808000004078008040eb00dc
:1016e000c20e0700808888000080800000407800db
:1016f00011c0b300bd0e07009088880000808000f4
:101700000040780021c0b300b80e0700a088880010
:10171000008080000040780031c0b300b30e0700a5
:10172000b0888800cd053700008080000040780038
:101730008040eb00ad0e0700c0888800008080006c
:101740000040780011c0b300a80e0700d0888800c0
:10175000008080000040780021c0b300a30e070085
:10176000e0888800008080000040780031c0b3002d
:101770009e0e0700f0888800b805370000808000c2
:10178000004078008040eb00980e07000089880038
:10179000008080000040780011c0b300930e070065
:1017a00010898800ad053700ae30ef000080800062
:1017b000004078008040eb008c0e070020898800f4
:1017c000008080000040780011c0b300870e070041
:1017d00030898800008080000040780021c0b3007c
:1017e000820e070040898800008080000040780059
:1017f00031c0b3007d0e070050898800970537007f
:1018000000808000004078008040eb00770e0700e9
:1018100060898800008080000040780011c0b3001b
:10182000720e0700708988000080800000407800f8
:1018300021c0b3006d0e0700808988000080800001
:101840000040780031c0b300680e0700908988001e
:1018500082053700b030ef00008080000040780043
:101860008040eb00610e0700a089880000808000a6
:101870000040780011c0b3005c0e0700b0898800fa
:10188000008080000040780021c0b300570e0700a0
:10189000c0898800008080000040780031c0b3001b
:1018a000520e0700d08988006c0537000080800048
:1018b000004078008040eb004c0e0700e089880073
:1018c000008080000040780011c0b300470e070080
:1018d000f0898800008080000040780021c0b300bb
:1018e000420e0700008a88000080800000407800d7
:1018f00031c0b3003d0e0700108a8800570537003d
:1019000000808000004078008040eb00370e070028
:10191000208a8800008080000040780011c0b30059
:10192000320e0700308a88004c053700b230ef00d5
:1019300000808000004078008040eb002b0e070004
:10194000408a8800008080000040780011c0b30009
:10195000260e0700508a8800008080000040780032
:1019600021c0b300210e0700608a8800008080003b
:101970000040780031c0b3001c0e0700708a880058
:101980003605370000808000004078008040eb0082
:10199000160e0700808a88000080800000407800d2
:1019a00011c0b300110e0700908a880000808000eb
:1019b0000040780021c0b3000c0e0700a08a880008
:1019c000008080000040780031c0b300070e07009f
:1019d000b08a880021053700008080000040780030
:1019e0008040eb00010e0700c08a88000080800064
:1019f0000040780011c0b300fc0d0700d08a8800b9
:101a000016053700b430ef000080800000407800f9
:101a10008040eb00f50d0700e08a88000080800020
:101a20000040780011c0b300f00d0700f08a880074
:101a3000008080000040780021c0b300eb0d07005b
:101a4000008b8800008080000040780031c0b30027
:101a5000e60d0700108b880000053700008080002d
:101a6000004078008040eb00e00d0700208b8800ec
:101a7000008080000040780011c0b300db0d07003b
:101a8000308b8800008080000040780021c0b300c7
:101a9000d60d0700408b8800008080000040780051
:101aa00031c0b300d10d0700508b8800eb04370024
:101ab000b630ef0000808000004078008040eb00ee
:101ac000ca0d0700608b880000808000004078000d
:101ad00011c0b300c50d0700708b88000080800026
:101ae0000040780021c0b300c00d0700808b880043
:101af000008080000040780031c0b300bb0d0700bb
:101b0000908b8800d504370000808000004078006a
:101b10008040eb00b50d0700a08b8800008080009e
:101b20000040780011c0b300b00d0700b08b8800f2
:101b3000008080000040780021c0b300ab0d07009a
:101b4000c08b8800008080000040780031c0b30066
:101b5000a60d0700d08b8800c004370000808000ed
:101b6000004078008040eb00a00d0700e08b88006b
:101b7000008080000040780011c0b3009b0d07007a
:101b8000f08b8800b5043700b830ef00008080008b
:101b9000004078008040eb00940d0700008c880026
:101ba000008080000040780011c0b3008f0d070056
:101bb000108c8800008080000040780021c0b300b5
:101bc0008a0d0700208c880000808000004078008b
:101bd00031c0b300850d0700308c88009f043700aa
:101be00000808000004078008040eb007f0d0700ff
:101bf000408c8800008080000040780011c0b30055
:101c00007a0d0700508c880000808000004078002a
:101c100021c0b300750d0700608c88000080800033
:101c20000040780031c0b300700d0700708c880050
:101c30008a04370000808000004078008040eb007c
:101c40006a0d0700808c88000080800000407800ca
:101c500011c0b300650d0700908c88007f04370029
:101c6000ba30ef0000808000004078008040eb0038
:101c70005e0d0700a08c8800008080000040780086
:101c800011c0b300590d0700b08c8800008080009f
:101c90000040780021c0b300540d0700c08c8800bc
:101ca000008080000040780031c0b3004f0d070075
:101cb000d08c8800690437000080800000407800e4
:101cc0008040eb00490d0700e08c88000080800018
:101cd0000040780011c0b300440d0700f08c88006c
:101ce000008080000040780021c0b3003f0d070055
:101cf000008d8800008080000040780031c0b30073
:101d00003a0d0700108d880054043700bc30ef00f6
:101d100000808000004078008040eb00330d070019
:101d2000208d8800008080000040780011c0b30042
:101d30002e0d0700308d8800008080000040780064
:101d400021c0b300290d0700408d8800008080006d
:101d50000040780031c0b300240d0700508d88008a
:101d60003e04370000808000004078008040eb0097
:101d70001e0d0700608d8800008080000040780004
:101d800011c0b300190d0700708d8800008080001d
:101d90000040780021c0b300140d0700808d88003a
:101da000008080000040780031c0b3000f0d0700b4
:101db000908d880029043700008080000040780062
:101dc0008040eb00090d0700a08d88000080800096
:101dd0000040780011c0b300040d0700b08d8800ea
:101de0001e043700be30ef00008080000040780005
:101df0008040eb00fd0c0700c08d88000080800053
:101e00000040780011c0b300f80c0700d08d8800a6
:101e1000008080000040780021c0b300f30c070070
:101e2000e08d8800008080000040780031c0b30061
:101e3000ee0c0700f08d8800080437000080800059
:101e4000004078008040eb00e80c0700008e88001e
:101e5000008080000040780011c0b300e30c070050
:101e6000108e8800008080000040780021c0b30000
:101e7000de0c0700208e8800008080000040780083
:101e800031c0b300d90c0700308e8800f30337004f
:101e900000808000004078008040eb00d30c0700f9
:101ea000408e8800008080000040780011c0b300a0
:101eb000ce0c0700508e8800e8033700c030ef00da
:101ec00000808000004078008040eb00c70c0700d5
:101ed000608e8800008080000040780011c0b30050
:101ee000c20c0700708e88000080800000407800df
:101ef00021c0b300bd0c0700808e880000808000e8
:101f00000040780031c0b300b80c0700908e880004
:101f1000d203370000808000004078008040eb0052
:101f2000b20c0700a08e880000808000004078007e
:101f300011c0b300ad0c0700b08e88000080800097
:101f40000040780021c0b300a80c0700c08e8800b4
:101f5000008080000040780031c0b300a30c07006f
:101f6000d08e8800bd033700c230ef0000808000b3
:101f7000004078008040eb009c0c0700e08e880059
:101f8000008080000040780011c0b300970c07006b
:101f9000f08e8800008080000040780021c0b300ef
:101fa000920c0700008f88000080800000407800bd
:101fb00031c0b3008d0c0700108f8800a7033700d5
:101fc00000808000004078008040eb00870c070014
:101fd000208f8800008080000040780011c0b3008e
:101fe000820c0700308f880000808000004078005d
:101ff00021c0b3007d0c0700408f88000080800066
:102000000040780031c0b300780c0700508f880082
:102010009203370000808000004078008040eb0091
:10202000720c0700608f88000080800000407800fc
:1020300011c0b3006d0c0700708f88008703370054
:10204000c430ef0000808000004078008040eb004a
:10205000660c0700808f88000080800000407800b8
:1020600011c0b300610c0700908f880000808000d1
:102070000040780021c0b3005c0c0700a08f8800ee
:10208000008080000040780031c0b300570c07008a
:10209000b08f880071033700008080000040780016
:1020a0008040eb00510c0700c08f8800008080004a
:1020b0000040780011c0b3004c0c0700d08f88009e
:1020c000008080000040780021c0b300470c07006a
:1020d000e08f8800008080000040780031c0b300ad
:1020e000420c0700f08f88005c03370000808000fe
:1020f000004078008040eb003c0c07000090880016
:10210000008080000040780011c0b300370c070049
:102110001090880051033700c630ef000080800027
:10212000004078008040eb00300c070020908800d1
:10213000008080000040780011c0b3002b0c070025
:1021400030908800008080000040780021c0b300fb
:10215000260c070040908800008080000040780036
:1021600031c0b300210c0700509088003b033700ba
:1021700000808000004078008040eb001b0c0700ce
:1021800060908800008080000040780011c0b3009b
:10219000160c0700709088000080800000407800d6
:1021a00021c0b300110c07008090880000808000df
:1021b0000040780031c0b3000c0c070090908800fc
:1021c00026033700c830ef00008080000040780010
:1021d0008040eb00050c0700a09088000080800084
:1021e0000040780011c0b300000c0700b0908800d8
:1021f000008080000040780021c0b300fb0b070086
:10220000c0908800008080000040780031c0b3009a
:10221000f60b0700d0908800100337000080800084
:10222000004078008040eb00f00b0700e090880051
:10223000008080000040780011c0b300eb0b070065
:10224000f0908800008080000040780021c0b3003a
:10225000e60b0700009188000080800000407800b5
:1022600031c0b300e10b070010918800fb0237007a
:1022700000808000004078008040eb00db0b07000e
:1022800020918800008080000040780011c0b300d9
:10229000d60b070030918800f002370000808000e4
:1022a000004078008040eb00d00b07004091880090
:1022b000008080000040780011c0b300cb0b070005
:1022c00050918800008080000040780021c0b30059
:1022d000c60b0700609188000080800000407800f5
:1022e00031c0b300c10b070070918800db023700da
:1022f00000808000004078008040eb00bb0b0700ae
:1023000080918800008080000040780011c0b300f8
:10231000b60b070090918800008080000040780094
:1023200021c0b300b10b0700a0918800008080009d
:102330000040780031c0b300ac0b0700b0918800ba
:1023400000808000004078008040eb00a70b070071
:10235000c0918800008080000040780011c0b30068
:10236000a20b0700d0918800008080000040780018
:1023700021c0b3009d0b0700e09188000080800021
:102380000040780031c0b300980b0700f09188003e
:10239000b202370000808000004078008040eb00ef
:1023a000920b0700009288000080800000407800b7
:1023b00011c0b3008d0b07001092880000808000d0
:1023c0000040780021c0b300880b070020928800ed
:1023d000008080000040780031c0b300830b07000c
:1023e000309288009d023700008080000040780015
:1023f0008040eb007d0b0700409288000080800049
:102400000040780011c0b300780b0700509288009c
:10241000008080000040780021c0b300730b0700eb
:1024200060928800008080000040780031c0b300d6
:102430006e0b0700709288008802370000808000d1
:10244000004078008040eb00680b07008092880015
:10245000008080000040780011c0b300630b0700cb
:1024600090928800008080000040780021c0b30076
:102470005e0b0700a092880000808000004078007a
:1024800031c0b300590b0700b092880073023700c7
:1024900000808000004078008040eb00530b070074
:1024a000c0928800008080000040780011c0b30016
:1024b0004e0b0700d092880000808000004078001a
:1024c00021c0b300490b0700e09288000080800023
:1024d0000040780031c0b300440b0700f092880040
:1024e0005e02370000808000004078008040eb00f2
:1024f0003e0b0700009388000080800000407800b9
:1025000011c0b300390b07001093880000808000d1
:102510000040780021c0b300340b070020938800ee
:10252000008080000040780031c0b3002f0b07000e
:102530003093880049023700008080000040780016
:102540008040eb00290b070040938800008080004a
:102550000040780011c0b300240b0700509388009e
:10256000008080000040780021c0b3001f0b0700ee
:1025700060938800008080000040780031c0b30084
:102580001a0b070070938800340237000080800027
:10259000004078008040eb00140b07008093880017
:1025a000008080000040780011c0b3000f0b0700ce
:1025b00090938800008080000040780021c0b30024
:1025c0000a0b0700a093880000808000004078007c
:1025d00031c0b300050b0700b09388001f0237001d
:1025e00000808000004078008040eb00ff0a070078
:1025f000c0938800008080000040780011c0b300c4
:10260000fa0a0700d093880000808000004078001c
:1026100021c0b300f50a0700e09388000080800025
:102620000040780031c0b300f00a0700f093880042
:102630000a02370000808000004078008040eb00f4
:10264000ea0a0700009488000080800000407800bb
:1026500011c0b300e50a07001094880000808000d4
:102660000040780021c0b300e00a070020948800f1
:10267000008080000040780031c0b300db0a070012
:1026800030948800f5013700008080000040780019
:102690008040eb00d50a070040948800008080004d
:1026a0000040780011c0b300d00a070050948800a1
:1026b000008080000040780021c0b300cb0a0700f2
:1026c00060948800008080000040780031c0b30032
:1026d000c60a070070948800e0013700008080007f
:1026e000004078008040eb00c00a0700809488001a
:1026f000008080000040780011c0b300bb0a0700d2
:1027000090948800008080000040780021c0b300d1
:10271000b60a0700a094880000808000004078007e
:1027200031c0b300b10a0700b0948800cb01370074
:1027300000808000004078008040eb00ab0a07007a
:10274000c0948800008080000040780011c0b30071
:10275000a60a0700d094880000808000004078001e
:1027600021c0b300a10a0700e09488000080800027
:102770000040780031c0b3009c0a0700f094880044
:10278000b601370000808000004078008040eb00f8
:10279000960a0700009588000080800000407800bd
:1027a00011c0b300910a07001095880000808000d6
:1027b0000040780021c0b3008c0a070020958800f3
:1027c000008080000040780031c0b300870a070015
:1027d00030958800a101370000808000004078001b
:1027e0008040eb00810a070040958800008080004f
:1027f0000040780011c0b3007c0a070050958800a3
:10280000008080000040780021c0b300770a0700f4
:1028100060958800008080000040780031c0b300df
:10282000720a0700709588008c01370000808000d4
:10283000004078008040eb006c0a0700809588001b
:10284000008080000040780011c0b300670a0700d4
:1028500090958800008080000040780021c0b3007f
:10286000620a0700a0958800008080000040780080
:1028700031c0b3005d0a0700b095880077013700ca
:1028800000808000004078008040eb00570a07007d
:10289000c0958800008080000040780011c0b3001f
:1028a000520a0700d0958800008080000040780020
:1028b00021c0b3004d0a0700e09588000080800029
:1028c0000040780031c0b300480a0700f095880046
:1028d0006201370000808000004078008040eb00fb
:1028e000420a0700009688000080800000407800bf
:1028f00011c0b3003d0a07001096880000808000d8
:102900000040780021c0b300380a070020968800f4
:10291000008080000040780031c0b300330a070017
:10292000309688004d01370000808000004078001c
:102930008040eb002d0a0700409688000080800050
:102940000040780011c0b300280a070050968800a4
:10295000008080000040780021c0b300230a0700f7
:1029600060968800008080000040780031c0b3008d
:102970001e0a07007096880038013700008080002a
:10298000004078008040eb00180a0700809688001d
:10299000008080000040780011c0b300130a0700d7
:1029a00090968800008080000040780021c0b3002d
:1029b0000e0a0700a0968800008080000040780082
:1029c00031c0b300090a0700b09688002301370020
:1029d00000808000004078008040eb00030a070080
:1029e000c0968800008080000040780011c0b300cd
:1029f000fe090700d0968800008080000040780023
:102a000021c0b300f9090700e0968800008080002b
:102a10000040780031c0b300f4090700f096880048
:102a20000e01370000808000004078008040eb00fd
:102a3000ee090700009788000080800000407800c1
:102a400011c0b300e90907001097880000808000da
:102a50000040780021c0b300e409070020978800f7
:102a6000008080000040780031c0b300df0907001b
:102a700030978800f900370000808000004078001f
:102a80008040eb00d9090700409788000080800053
:102a90000040780011c0b300d409070050978800a7
:102aa000008080000040780021c0b300cf090700fb
:102ab00060978800008080000040780031c0b3003b
:102ac000ca09070070978800e40037000080800082
:102ad000004078008040eb00c40907008097880020
:102ae000008080000040780011c0b300bf090700db
:102af00090978800008080000040780021c0b300db
:102b0000ba090700a0978800008080000040780084
:102b100031c0b300b5090700b0978800cf00370077
:102b200000808000004078008040eb00af09070083
:102b3000c0978800008080000040780011c0b3007a
:102b4000aa090700d0978800008080000040780024
:102b500021c0b300a5090700e0978800008080002d
:102b60000040780031c0b300a0090700f09788004a
:102b7000ba00370000808000004078008040eb0001
:102b80009a090700009888000080800000407800c3
:102b900011c0b300950907001098880000808000dc
:102ba0000040780021c0b3009009070020988800f9
:102bb000008080000040780031c0b3008b0907001e
:102bc00030988800a5003700008080000040780021
:102bd0008040eb0085090700409888000080800055
:102be0000040780011c0b3008009070050988800a9
:102bf000008080000040780021c0b3007b090700fe
:102c000060988800008080000040780031c0b300e8
:102c100076090700709888009000370000808000d7
:102c2000004078008040eb00700907008098880021
:102c3000008080000040780011c0b3006b090700dd
:102c400090988800008080000040780021c0b30088
:102c500066090700a0988800008080000040780086
:102c600031c0b30061090700b09888007b003700cd
:102c700000808000004078008040eb005b09070086
:102c80004800de00708488007400370000808000f7
:102c9000004078008040eb00540907004800de0047
:102ca000808488006d00370000808000004078003c
:102cb0008040eb004d0907004800de00908488004a
:102cc0006600370000808000004078008040eb0004
:102cd000460907004800de00a08488005f00370036
:102ce00000808000004078008040eb003f09070032
:102cf0004800de00b0848800580037000080800063
:102d0000004078008040eb00380907004800de00f2
:102d1000c0848800510037000080800000407800a7
:102d20008040eb00310907004800de00d0848800b5
:102d30004a00370000808000004078008040eb00af
:102d40002a0907004800de00e084880043003700bd
:102d500000808000004078008040eb0023090700dd
:102d60004800de00f08488003c00370000808000ce
:102d7000004078008040eb001c0907004800de009e
:102d80000085880035003700008080000040780012
:102d90008040eb00150907004800de001085880020
:102da0002e00370000808000004078008040eb005b
:102db0000e0907004800de00208588002700370044
:102dc00000808000004078008040eb000709070089
:102dd0004800de0030858800200037000080800039
:102de000004078008040eb00000907004800de004a
:102df000408588001900370000808000004078007e
:102e00008040eb00f90807004800de00508588008c
:102e1000120037001000200020828800008080000f
:102e2000004078008040eb00f00807008000780048
:102e300040052100010878000080800000407800f3
:102e400011c0b300e90807008000780040052100a8
:102e50000080e80001087800000000002025ef0055
:102e60002225ef000a25a9000080fa004f03be00ca
:102e70004f02be004f01be004f00be003600f900f9
:102e8000004006000000fa000088a9000080fa0057
:102e9000004006000000fa0001c8a9000080fa0006
:102ea000004006000000fa000308a9000080fa00b4
:102eb000004006000000fa000488a9000080fa0023
:102ec000004006000040da000000fe00000005009f
:102ed0000001be00220007000470a70003f0a1005b
:102ee0006509b100160032000d0035006828e100c8
:102ef00006003500f0ff2f00f1ff27000300e0007f
:102f000013003b0001002800000005000000400005
:102f1000818048008502e900fcff3a000800370084
:102f2000f88f420002003c008000eb00000005002a
:102f30008100d1000080d3008502e800fcff3a0048
:102f40000300e00002003b0060001000e080180079
:102f5000000006004f89de008201780094013700ee
:102f6000c70ade00f107b200f50fb2000800320018
:102f7000e1cf4200020032000170a00024000500f1
:102f8000810f7000010032000408050044000500b4
:102f9000810f700002003a00140005008502e9006c
:102fa0000000400081c04800fcff3b000170a00011
:102fb00024000500889fbe008a9fbe008c9fbe0033
:102fc0001b0020000202be000586680006002800e3
:102fd000060666004709de00f20fb20082003200ea
:102fe0000243e80080003200c729de00f30fb20080
:102ff0007d0032000343e8007b003200f107b2009d
:103000000170a000f507b2000570a000c708dd0040
:103010004903de00868070004700dd00c72add001e
:103020004923de00868272004722dd00030551003d
:103030000403500085835800030031000000400065
:10304000818048000a05e9008c1f78008a9fbe0035
:1030500004005000858058000402420085824a0026
:1030600000004000818048000005eb000004be0025
:103070006033b8000406be000d48e1005600310080
:10308000110009004dccd8000c01b8000d02b800a9
:103090008481410060824a008283530003045c0003
:1030a00084845c0060055d000a00e00025003a00b1
:1030b000800578000d40e10049003100880078006b
:1030c00007007800110009004d88d8000c01b800f5
:1030d0000d02b8008481410060824a006003110043
:1030e00083835b0004045c00e0845c000900e00072
:1030f00021003a004f01be000300e0002b00320027
:10310000e3016000070673008c817100010032004a
:10311000640070004200de004e5edd000c007000b6
:10312000c258de0001e0a0009b000700cf0178003c
:10313000818071004f06be004f05be004f04be00e7
:10314000000006008c8343000d044c00e0844c001a
:1031500060054d000000e9000a00e000d4ff3200e5
:103160008c8343000d044c00e0844c0060054d004e
:103170000000e900ceff37000c0343008d834b00b5
:1031800060044c00e0844c000000e9000900e0000d
:10319000d8ff32000c0343008d834b0060044c00c9
:1031a000e0844c000000e900d2ff37004200de005e
:1031b0004e5edd000c007000c258de0001e0a00091
:1031c000cf0178000300e000daff32006000100059
:1031d000e0801800d7ff3700f0ff2f00aaff37006c
:1031e000f0ff2f00b9ff37000404be0050000700b5
:1031f000870678000004fd008104fd004c000700f4
:10320000078366000678a300030032000960a70068
:103210000800be002c0037000d78a3000200320029
:103220000800be00280037000778a30026003a00f7
:1032300001f0a10009f0a1000668a300030032001c
:10324000f1ff2700f0ff2f00baff37000d68a30041
:10325000030032000800be008c807000b5ff37000c
:103260000768a30007003a000648a30003003200e5
:10327000f1ff2700f0ff2f00aeff37000d48a3003d
:10328000030032006000b8008c807000a9ff370096
:103290000748a3000400320001f8270000002000c6
:1032a0008c807000a3ff37008e0007000004fd0033
:1032b0008104fd00020578008a0007000802be00b4
:1032c0008a01780059ff37000160a0001202200037
:1032d0007288880097ff37000100e000120032007a
:1032e0000500e00010003200889fbe008a9fbe00eb
:1032f0008c9fbe000006eb0001f8a3000300320023
:1033000060001000e08018000cf0a00005f8a30099
:103310000300320060021200e0821a000cf0a200ea
:103320008005eb0041ff37006000b8000200050097
:103330002700200001f0a70017002000470bde0047
:10334000f60fb200040032000643e8000a00320023
:103350004702b3000000060001037800f607b20040
:103360000603700002003a000703b30000000600e5
:103370008702b3000000060001037800f607b200e0
:1033800006037000020032000770a0000000060073
:103390000760a000000006008101700027003200d5
:1033a0008002eb0001f8a30003003200600010006f
:1033b000e080180015002000f407200002024200ff
:1033c00020003400f703200087036000060420007b
:1033d0000003630002082000000161004700de00d6
:1033e000c909dd0000807100c708de000600e000aa
:1033f0000800320087037100060032001000b000a0
:103400000180b0000188a30002003200c108de0084
:103410000402e800f107b200f30f20000320e100ee
:1034200003003d004722dd008100720029003700c3
:1034300001f827000000eb00260037006000b8000c
:1034400000000600680212007f20e1000200340044
:103450006000b8001f0037006011b8007020e10064
:103460000400350080017800010078008000eb0046
:10347000700252000400e00009003400f003120062
:103480000719dd008419de000703dd008681710065
:103490000400de00070bdd00060070008408de007b
:1034a000f7ff27008383630087037100060028006d
:1034b00003036300070032000700e00003003a0046
:1034c0006101600002817300020032001000b00050
:1034d0000180b0000500a6000000060001f0a00079
:1034e000000006004f0ade004709de00f107b200c7
:1034f000f20fb2000b003200f207b1000170a00021
:10350000c708dd00c901de00838070004700dd00d0
:103510000400a6000000060060001000e080180013
:1035200000000600810f700001003a000000060054
:103530008182cf000500e00010003e008082cf00b5
:10354000ee8242007028e1000400390007003e00ce
:10355000800078000000eb000e003700708312003e
:103560008600de000500dd000a003700708352008f
:103570008600dd000000eb0006003700e28252000a
:103580008508dd00708312000603de00868070006f
:103590000500dd007507b0000501ea000400a60083
:1035a0000000060060001000e08018000000060027
:1035b000881f7800030478000300e00007003d0046
:1035c00060001000e080180060011900e08119001f
:1035d00002003b0001f02d0003003700040007004b
:1035e00008f0a70001f0a0004f04780000000600da
:1035f000889fbe008a9fbe00008270000402710096
:1036000004827100260032000004be000200be00e9
:103610006011b8006b092000950220000182cf00e4
:103620000a0039000541b1000082cf0007003900cf
:103630000541b1000982cf00040039000541b10005
:103640000882cf00010039000541b1000542520057
:10365000120032000a003b008281710061016400a7
:103660008100d1000080d3008984d3000884d30076
:103670008b05e8000442e800f7ff3a000700370036
:103680000804440089844c00000048008180480000
:103690008b05e9000442e900f9ff3a000300070046
:1036a0004f05be004f04be00000006008100200050
:1036b000618055000b003d000b00200061fe2f00d3
:1036c0000100e1001d00340082817100610164008d
:1036d0008904d1000884d3000000e800faff3a0012
:1036e00071002000610064000300700002006000af
:1036f0000900320061044400e0844c000988a50000
:10370000050032008b05e8006808e10002003a007d
:103710008904d1000884d300f20f20000258e10090
:1037200005003d00c75ddd00f907b2008980750026
:1037300008007800000006000bf827008b007800d6
:043740000000050080
:020000040000fa
:103744002c00fa00889fbe008a9fbe008c9fbe009a
:1037540074034700000b7800760047000288be001f
:103764007a004700010878007c00470004087800cc
:103774007e004700050878006000b800008fbe0096
:103784006000b800640147000089be006000b80012
:10379400680147000089be000004a80074004700c7
:1037a4001000780000004000000040008000780015
:1037b40000442000808040006c004700010878002d
:1037c40074004700100078004280de0000004000d2
:1037d4008000780000422000808040006e00470096
:1037e4000108780074004700100078004380de0070
:1037f400000040008000780080412000808040006c
:103804007000470001087800414120007200470021
:10381400010878007a00470010007800e10f50009a
:1038240044003a00760047009000900010007800b1
:10383400f2ff2f00030020008002780001027800cc
:10384400020078008300780000806200810062003a
:1038540031179800201798002e109000be10900089
:10386400640147000089be00760047009000900084
:10387400100078004089de00021798004f89de00ae
:10388400121798000e1090009e109000000078000f
:10389400630060008000eb00511798004017980007
:1038a4004e109000de109000680147000089be00b1
:1038b400760047009000900010007800428ede00f1
:1038c400cf8ede000c01be00f07f2000010020003e
:1038d40002027800030178008001780081007800fa
:1038e4000300620081006100810578000005780012
:1038f4000a8fbe001e0078004500dd00e800470086
:103904009100780001004000e80040006c0047008e
:1039140010007800010878006c004700100078005f
:103924000080e800e4004700910078000108780076
:1039340018003700760047001001780090019000cd
:10394400f07f2000010020000202780003017800cb
:10395400800178008100780003006200810061002a
:103964008104780000047800088fbe001e007800ef
:10397400c500dd006c0047001000780001087800e5
:103984006c004700100078000080e8008000eb0025
:10399400010878006e0047001000780010017800dc
:1039a4007400470010007800630060004200dd00ee
:1039b400f10020000008dd000080ea0080006100c2
:1039c4006e0047001000780001087800740047007a
:1039d40010007800630060004200dd00fc00470036
:1039e400910078000008dd00ee00470091007800a7
:1039f40091007800808070006e004700100078000d
:103a04000108780070004700100078001001780069
:103a14007400470010007800670060000000400058
:103a2400310020000008dd000080ea008000610011
:103a34007000470010007800010878007400470007
:103a4400100078006700600000004000fe0047009e
:103a5400910078000008dd00f00047009100780034
:103a6400910078008080700070004700100078009a
:103a74000108780010002000f4004700910078004d
:103a84000100dd00f2004700910078009100780009
:103a940080807000720047001000780001087800f0
:103aa4000004a9004f06be004f05be004f04be002f
:103ab4000080fa00000006002000fa00889fbe0083
:103ac4008a9fbe008c9fbe00ee024700800a7800e9
:103ad400700047000288be007400470001087800a7
:103ae40076004700040878006000b800008fbe002c
:103af4006000b800640147000089be006000b8009f
:103b0400680147000089be000004a8006e00470059
:103b140010007800000040000000400080007800a1
:103b240000432000808040006c00470001087800ba
:103b34007600470010007800e10f50004f003a0073
:103b4400700047009000900010007800f2ff2f00f2
:103b5400030020008002780001027800020078004f
:103b6400830078000080620081006200710f980079
:103b7400600f98006e089000fe08900064014700f2
:103b84000089be007000470090009000100078008b
:103b94004089de00420f98004f89de00520f9800e2
:103ba4004e089000de08900000007800630060007a
:103bb4008006eb00000678000c00be006801470098
:103bc4000089be007000470090009000100078004b
:103bd400428dde00cf8dde000a01be00f07f2000a2
:103be40001002000020278000301780080017800bf
:103bf4008100780003006200810061008104780084
:103c040000047800088fbe0074004700100078009c
:103c1400e10f50000a003a001e0078004500dd0064
:103c2400e80047009100780001004000e8004000ef
:103c34006c00470010007800010878000800370085
:103c44001e0078004500dd00e80047009100780080
:103c5400810040006c0047001000780001087800e3
:103c64006c004700100078000080e800e400470082
:103c740091007800010878002300370070004700a5
:103c84001001780090019000f07f200001002000d6
:103c94000202780003017800800178008100780036
:103ca4000300620081006100810378000003780052
:103cb400068fbe007400470010007800e10f50002a
:103cc40007003a001e0078004500dd00e8004000cf
:103cd4006c004700100078000108780005003700e8
:103ce4001e007800c500dd006c004700100078005d
:103cf400010878006c004700100078000080e8009c
:103d04008000eb00010878000004a9004f06be0003
:103d14004f05be004f04be000080fa0000000600fc
:103d24003a00fa00889fbe008a9fbe008c9fbe00a6
:103d3400f8024700800a78007a0047000288be0033
:103d44007e00470001087800000220000e004000b9
:103d5400040878006000b800008fbe006011b8004d
:103d6400640047000288be006011b8006800470084
:103d74000288be006011b8006c0047000288be00d3
:103d84006011b800700047000288be006011b800de
:103d9400740047000288be007e00470010007800cf
:103da4000000e000410032007a00470090009000db
:103db40010007800f2032000030020008002780045
:103dc400010278008200780003007800818062009c
:103dd4000000620080047800010478000801be003d
:103de400700047000288be007a00470090009000ef
:103df400100078004a09dd004605de000a0571005e
:103e0400c68dde000a00be00f2ff20000300200081
:103e140080027800010278008200780003007800b4
:103e2400818062000000620080067800010678004c
:103e34000c00be00740147000089be007a004700f0
:103e44009000900010007800c289de0013179800db
:103e54004f8ade00241798001e109000ae109000c8
:103e6400f27f200003002000800278000102780025
:103e74000200780083007800008062008100620004
:103e840041179800301798003e109000ce10900013
:103e94006c0147000089be0064004700f40047003d
:103ea4003118780021107800100037007a0047009c
:103eb4009000900010007800f27f200003002000a2
:103ec4008002780001027800020078008300780004
:103ed40000806200810062008103780000037800a2
:103ee4000600be006c0147000089be0000022000ed
:103ef4000e00400010007800e10f50001a003a0054
:103f04006c00470090009000100078004209dd002a
:103f1400ce01de00830171004201dd007e00470016
:103f2400100078008000eb000000710081807100b7
:103f34000001be000210a000028fbe007000470006
:103f440010017800900190004a18dd00c610de00d0
:103f5400810070004a10dd000090a0006801470055
:103f64000089be00150037006c00470090009000e7
:103f7400100078004209dd00ce01de0083017100eb
:103f84004201dd007e004700100078008000eb0055
:103f9400001f710001977100700047001001780044
:103fa400900190004a18dd00c610de008100700008
:103fb4004a10dd00680147000089be007e0047000a
:103fc400100078000000e0001f0032001e0078009e
:103fd400800178000310a0007800470010007800ea
:103fe4004400dd006100b80000f0a70011002000cb
:103ff40004802800541798001500200065179800c5
:104004005e129000ee1290000003d0000401d00074
:10401400020043004220a800858048004200a90015
:104024004220ae004200a8000080d300a20180001c
:104034000102780000007800a401880003087800d9
:10404400a20188001c0037001e0278007800470097
:10405400100078004400dd006100b80000f0a70003
:104064001100200003802800731798001500200019
:10407400051f98007e1190008e1990008002d000d8
:104084000203d000068042004220a800838048003a
:104094004200a9004220ae004200a8000080d300e4
:1040a400a20180008101780000007800a30188004b
:1040b40004087800a2018800640047001002780018
:1040c40078004700100078004400dd000080e8001c
:1040d4006100b80000f0a700110020000280280051
:1040e400121f980013002000231f98001e1990002f
:1040f400ae1990008002d0000203d0000680420076
:104104004220a800838048004200a9004220ae005b
:104114004200a8000080d300a20180008101780041
:1041240000007800a301880004087800a201880038
:1041340068004700100278007800470010007800fb
:104144004400dd00640040006100b80000f0a700f6
:104154001100200002802800321f98001300200064
:10416400431f98003e199000ce1990008002d000a1
:104174000203d000068042004220a8008380480049
:104184004200a9004220ae004200a8000080d300f3
:10419400a20180008101780000007800a30188005a
:1041a40004087800a20188004f06be004f05be0037
:1041b4004f04be000080fa00000006001a00fa0056
:1041c400889fbe008a9fbe008c9fbe00000f7800af
:1041d4000e80e800010878006400470002087800b7
:1041e4006600470003087800680047000408780068
:1041f4006a004700050878006c004700060878004c
:1042040064004700100078006101b8000002eb0070
:104214008000eb001e007800c1fe07001e0078003d
:104224004400dd00640040006100b80000f0a70015
:10423400110020000280280072079800130020005b
:10424400030f98007e0290008e0a90000003d000b5
:104254000401d000020043004220a80085804800e9
:104264004200a9004220ae004200a8000080d30012
:10427400920180008101780003d0fe0000007800e4
:104284009000780002d0fe0000ff2f000080600044
:104294008e80e80091007800810140001e007800c3
:1042a4004400dd00640040006100b80000f0a70095
:1042b4001100200004802800140f9800150020002d
:1042c400250f98001e0a9000ae0a90000003d0004b
:1042d4000401d000020043004220a8008580480069
:1042e4004200a9004220ae004200a8000080d30092
:1042f400a20180000102780000007800a401880077
:1043040003087800a20188006600470010007800c6
:10431400c800dd004800de00008070009e007800c8
:10432400c408dd00e68040006109b80002f0a7007f
:104334001300200004802800340f9800150020008a
:10434400450f98003e0a9000ce0a90000203d00068
:104354008400d000010143004220a8008581490067
:104364004200a9004220ae004200a8000281d3000e
:10437400a10180000302780002017800a4018800f2
:1043840000097800a1018800680047001000780047
:10439400c800dd004800de00008070009e00780048
:1043a400c408dd00e88040006109b80002f0a700fd
:1043b400130020000c8028001d0020000202d00001
:1043c4008c02d000050142004220a8008d814900e2
:1043d4004200a9004220ae004200a8000281d3009e
:1043e400a10180000302780002017800a401880082
:1043f40000097800a10188006a00470010007800d5
:10440400c800dd004800de00008070009e007800d7
:10441400c408dd00ea8040006109b80002f0a7008a
:10442400130020000a8028001b0020000203d00093
:104434008a00d000010143004220a8008b8149007a
:104444004200a9004220ae004200a8000281d3002d
:10445400a10180000302780002017800a401880011
:1044640000097800a10188006c0047001000780062
:10447400c800dd004800de00008070009e00780067
:10448400c408dd00ec8040006109b80002f0a70018
:104494001300200008802800190020000202d00028
:1044a4008802d000050142004220a8008981490009
:1044b4004200a9004220ae004200a8000281d300bd
:1044c400a10180000302780002017800a4018800a1
:1044d40000097800a10188004f06be004f05be0008
:1044e4004f04be000080fa00000006002c00fa0011
:1044f400881f78008a9fbe008c9fbe00700447000e
:10450400000c78007200470001087800740047002e
:1045140002087800760047000348780077004700d7
:10452400044878007800470005487800790047007f
:10453400064878007a00470007487800740047006e
:10454400100078006101b8000002eb008000eb006d
:104554007000470010007800f1fd07007600470066
:10456400104078000080fb00000f780077004700bf
:10457400104078008080fb000e80e800010878007d
:1045840078004700104078008080fb0064004700fa
:104594000108780079004700104078008080fb0013
:1045a40066004700010878007a0047001040780050
:1045b4008080fb006800470001087800680057000d
:1045c400104078008080fb006a00470001087800f2
:1045d4006a005700104078008080fb006c004700a0
:1045e400010878006c005700104078008080fb00c0
:1045f4006e00470001087800700047001000780042
:104604004400dd00640040006100b80000f0a70031
:104614001100200002802800620f9800130020007f
:10462400730f98006e0a9000fe0a90000003d000f9
:104634000401d000020043004220a8008580480005
:104644004200a9004220ae004200a8000080d3002e
:10465400920180008101780003d0fe000000780000
:104664009000780002d0fe0000ff2f000080600060
:10467400f20047009100780081014000700047007b
:10468400100078004400dd00640040006100b800c0
:1046940000f0a700110020000480280004179800ef
:1046a40015002000151798000e1290009e1290001d
:1046b4000003d0000401d000020043004220a800ff
:1046c400858048004200a9004220ae004200a800b4
:1046d4000080d300a201800001027800000078006d
:1046e400a401880003087800a20188000e80e80075
:1046f40010007800c800dd00f00f20001e006000ec
:104704008101700070004700100078004400dd0053
:10471400660040006100b80000f0a700110020000e
:1047240004802800241798001500200035179800ed
:104734002e129000be1290000003d0000401d0009d
:10474400020043004220a800858048004200a900de
:104754004220ae004200a8000080d300a2018000e5
:104764000102780000007800a401880003087800a2
:10477400a20188006600470010007800c800dd0030
:104784006400470010017800f00f20000000610071
:104794008101700070004700100078004400dd00c3
:1047a400680040006100b80000f0a700110020007c
:1047b400048028004417980015002000551798001d
:1047c4004e129000de1290000003d0000401d000cd
:1047d400020043004220a800858048004200a9004e
:1047e4004220ae004200a8000080d300a201800055
:1047f4000102780000007800a40188000308780012
:10480400a20188006a00470010007800c800dd009b
:104814006800470010017800f00f200000006100dc
:104824008101700070004700100078004400dd0032
:104834006a0040006100b80000f0a70011002000e9
:104844000c8028001d0020000002d0008c02d00043
:10485400050042004220a8008d8048004200a900c3
:104864004220ae004200a8000080d300a2018000d4
:104874000102780000007800a40188000308780091
:10488400a20188006e00470010007800c800dd0017
:104894006c00470010017800f00f20000000610058
:1048a4008101700070004700100078004400dd00b2
:1048b4006c0040006100b80000f0a7001100200067
:1048c4000a8028001b0020000003d0000a01d00049
:1048d400020043004220a8008b8048004200a90047
:1048e4004220ae004200a8000080d300a201800054
:1048f4000102780000007800a40188000308780011
:10490400a20188004f06be004f05be004f04780088
:104914000080fa00000006000400fa008e80e8001f
:10492400800878000004a80040412000000f7800af
:104934001e00780010017800100020008e80e8002e
:10494400910078000100dd000080ea008000610031
:104954001e007800010878000004a9000080fa0015
:10496400000006000200fa000021800061006000df
:104974000000e000030032000040eb00004f78002c
:10498400f100370000218000620060000000e000b8
:104994000300320010c0b300004f7800ea00370073
:1049a40000218000640060000000e0000300320089
:1049b40020c0b300004f7800e300370000218000de
:1049c400680060000000e0000300320030c0b30063
:1049d400004f7800dc003700002180007000600088
:1049e4000000e0000300320040c0b300004f780034
:1049f400d500370001218000000220000080600003
:104a04000000e0000300320050c0b300004f780003
:104a1400cd003700012180000004200000806000e8
:104a24000000e0000300320060c0b300004f7800d3
:104a3400c5003700012180000008200000806000cc
:104a44000000e0000300320070c0b300004f7800a3
:104a5400bd003700012180000010200000806000ac
:104a64000000e0000300320080c0b300004f780073
:104a7400b500370001218000002020000080600084
:104a84000000e0000300320090c0b300004f780043
:104a9400ad0037000121800000402000008060004c
:104aa4000000e00003003200a0c0b300004f780013
:104ab400a5003700012180000080200000806000f4
:104ac4000000e00003003200b0c0b300004f7800e3
:104ad4009d0037000121800000002100008060005b
:104ae4000000e00003003200c0c0b300004f7800b3
:104af4009500370001218000000022000080600042
:104b04000000e00003003200d0c0b300004f780082
:104b14008d00370001218000000024000080600027
:104b24000000e00003003200e0c0b300004f780052
:104b3400850037000121800000002800008060000b
:104b44000000e00003003200f0c0b300004f780022
:104b54007d00370010218000610060000000e0004b
:104b64000300320000c1b300004f78007600370024
:104b740010218000620060000000e00003003200a9
:104b840010c1b300004f78006f003700102180007f
:104b9400640060000000e0000300320020c1b300a4
:104ba400004f780068003700102180006800600022
:104bb4000000e0000300320030c1b300004f780071
:104bc4006100370010218000700060000000e000e8
:104bd4000300320040c1b300004f78005a00370090
:104be4001121800000022000008060000000e0002d
:104bf4000300320050c1b300004f78005200370068
:104c04001121800000042000008060000000e0000a
:104c14000300320060c1b300004f78004a0037003f
:104c24001121800000082000008060000000e000e6
:104c34000300320070c1b300004f78004200370017
:104c44001121800000102000008060000000e000be
:104c54000300320080c1b300004f78003a003700ef
:104c64001121800000202000008060000000e0008e
:104c74000300320090c1b300004f780032003700c7
:104c84001121800000402000008060000000e0004e
:104c940003003200a0c1b300004f78002a0037009f
:104ca4001121800000802000008060000000e000ee
:104cb40003003200b0c1b300004f78002200370077
:104cc4001121800000002100008060000000e0004d
:104cd40003003200c0c1b300004f78001a0037004f
:104ce4001121800000002200008060000000e0002c
:104cf40003003200d0c1b300004f78001200370027
:104d04001121800000002400008060000000e00009
:104d140003003200e0c1b300004f78000a003700fe
:104d24001121800000002800008060000000e000e5
:104d340003003200f0c1b300004f780002003700d6
:104d440000c0eb00004f78001e4078000080fa009d
:104d5400000006000000fa000021800000f0a70017
:104d64000000ea000000e9004f00de008040780007
:104d74001021800000f0a7000000ea000000e90014
:104d84004f00de000040780000c060000004e00036
:104d94000200320010c0b300010037000040eb00f5
:104da4000080fa00000006002800fa00889fbe0078
:104db4008a9fbe008c9fbe00f200470080487800a6
:104dc40072004700104078000080fb004400dd00c2
:104dd4006101b80002f0a70013002000620f9800e0
:104de400730f980003802800031798001400200014
:104df400141798006e089000fe0890000e119000a1
:104e04009e1190000002d0008202d00005004200f2
:104e14004220a800838048004200a9004220ae003e
:104e24004200a8000080d300600f9800710f980022
:104e3400930180006e089000fe0890000101780044
:104e440002d0fe00000078001000780003d0fe00bd
:104e5400e100600064004700010878006400470036
:104e6400100078000000e0002c003a0072004700b7
:104e7400104078000080fb004400dd006100b800b1
:104e840000f0a7001100200002802800220f9800e3
:104e940013002000330f98002e0a9000be0a9000e1
:104ea4000001d0008401d000030041004220a8008a
:104eb400858048004200a9004220ae004200a800bc
:104ec4000080d300920180008101780003d0fe00ad
:104ed400000078001000780002d0fe004200de00de
:104ee4006101b800f07f2000010020000202780078
:104ef40003017800800178008100780003006200db
:104f040081006100510f9800400f98004e0a9000f4
:104f1400de0a9000048fbe008b0037007200470049
:104f2400104078000080fb004400dd006100b80000
:104f340000f0a70011002000058028002517980024
:104f440012002000321798002e129000be1290001a
:104f54000001d0008401d000030041004220a800d9
:104f6400858048004200a9004220ae004200a8000b
:104f74000080d300920180008101780003d0fe00fc
:104f8400000078001000780002d0fe008000eb00e2
:104f9400660147000089be0066004700900090004b
:104fa40010007800c001dd00020020000000200095
:104fb400f17f20000202780003017800800178006c
:104fc400810078000300620081006100810678009e
:104fd400000678000c00be00660147000089be0090
:104fe40072004700104078000080fb004400dd00a0
:104ff4000080e8006100b80000f0a7001100200064
:105004000a8028001b0020000002d0008a02d00081
:10501400050042004220a8008b8048004200a900fd
:105024004220ae004200a8000080d300920180001c
:105034008101780003d0fe000000780010007800a1
:1050440002d0fe008000eb006a0147000089be0028
:105054006a00470090009000100078004609dd00c7
:10506400ca01de00830171004601dd0000fc2f004f
:1050740031002000020278000301780080017800ea
:1050840081007800030062008100610081047800df
:10509400000478000800be006a0147000089be00d1
:1050a40072004700104078000080fb004400dd00df
:1050b400640040006100b80000f0a7001100200067
:1050c40006802800170020000001d0008601d000cf
:1050d400030041004220a800878048004200a90044
:1050e4004220ae004200a8000080d300920180005c
:1050f4008101780003d0fe000000780010007800e1
:1051040002d0fe004a00de008000eb006e01470082
:105114000089be00660047001001780090019000ed
:105124006a004700900090001000780000017100b0
:10513400818171006e00470090009000100078009b
:10514400001f7100019771001e0078009e009000fe
:105154004f06be004f05be004f04be000080fa009b
:10516400000006000400fa008e80e8008048780001
:105174000e80e800104078000080fb004400dd0051
:10518400640040006100b80000f0a7001100200096
:1051940002802800130020000002d0008202d00008
:1051a400050042004220a800838048004200a90074
:1051b4004220ae004200a8000080d300920180008b
:1051c4008101780003d0fe00000078001000780010
:1051d40002d0fe00004078006f4f60001e4078004f
:1051e4000080fa00000006000400fa000e82e800c5
:1051f400004a780063004700014878000e80e80008
:10520400104078008080fb00630047001040780065
:105214000080fb0063004000c308dd000080400004
:10522400000040006100b80000f0a7001100200059
:1052340002802800130020000002d0008202d00067
:10524400050042004220a800838048004200a900d3
:105254004220ae004200a8000080d30092018000ea
:105264008101780003d0fe0000007800100f780060
:1052740002d0fe001e007800c800dd004800de00f9
:10528400008f70001e0078000080fa000000060005
:105294002c00fa00889fbe008a9fbe008c9fbe002f
:1052a40074034700000b7800760047000288be00b4
:1052b4007a004700010878007c0047000408780061
:1052c4007e004700050878006000b800008fbe002b
:1052d4006000b800640147000089be006000b800a7
:1052e400680147000089be000005a800740047005b
:1052f40010007800000040000000400080007800aa
:1053040000542000808040006c00470001087800b1
:1053140074004700100078004280de000000400066
:105324008000780000522000808040006e0047001a
:105334000108780074004700100078004380de0004
:1053440000004000800078008051200080804000f0
:1053540070004700010878004151200072004700a6
:10536400010878007a00470010007800e10f50002f
:1053740044003a0076004700900090001000780046
:10538400f2ff2f0003002000800278000102780061
:1053940002007800830078000080620081006200cf
:1053a40031179800201798002e109000be1090001e
:1053b400640147000089be00760047009000900019
:1053c400100078004089de00021798004f89de0043
:1053d400121798000e1090009e10900000007800a4
:1053e400630060008000eb0051179800401798009c
:1053f4004e109000de109000680147000089be0046
:10540400760047009000900010007800428ede0085
:10541400cf8ede000c01be00f07f200001002000d2
:10542400020278000301780080017800810078008e
:1054340003006200810061008105780000057800a6
:105444000a8fbe001e0078004500dd00e80047001a
:105454009100780001004000e80040006c00470023
:1054640010007800010878006c00470010007800f4
:105474000080e800e400470091007800010878000b
:105484001800370076004700100178009001900062
:10549400f07f200001002000020278000301780060
:1054a40080017800810078000300620081006100bf
:1054b4008104780000047800088fbe001e00780084
:1054c400c500dd006c00470010007800010878007a
:1054d4006c004700100078000080e8008000eb00ba
:1054e400010878006e004700100078001001780071
:1054f4007400470010007800630060004200dd0083
:10550400f10020000008dd000080ea008000610056
:105514006e0047001000780001087800740047000e
:1055240010007800630060004200dd00fc004700ca
:10553400910078000008dd00ee004700910078003b
:1055440091007800808070006e00470010007800a1
:1055540001087800700047001000780010017800fe
:1055640074004700100078006700600000004000ed
:10557400310020000008dd000080ea0080006100a6
:10558400700047001000780001087800740047009c
:10559400100078006700600000004000fe00470033
:1055a400910078000008dd00f000470091007800c9
:1055b400910078008080700070004700100078002f
:1055c4000108780010002000f400470091007800e2
:1055d4000100dd00f200470091007800910078009e
:1055e4008080700072004700100078000108780085
:1055f4000005a9004f06be004f05be004f04be00c3
:105604000080fa00000006002000fa00889fbe0017
:105614008a9fbe008c9fbe00ee024700800a78007d
:10562400700047000288be0074004700010878003b
:1056340076004700040878006000b800008fbe00c0
:105644006000b800640147000089be006000b80033
:10565400680147000089be000005a8006e004700ed
:105664001000780000004000000040008000780036
:1056740000532000808040006c004700010878003f
:105684007600470010007800e10f50004f003a0008
:10569400700047009000900010007800f2ff2f0087
