:020000040000fa
:080000000002040000000000f2
:020000040000fa
:04000800521700008b
:020000040000fa
:04000c005217000087
:020000040000fa
:040010005217000083
:020000040000fa
:04001400521700007f
:020000040000fa
:04001800521700007b
:020000040000fa
:04001c005217000077
:020000040000fa
:040020005217000073
:020000040000fa
:04002400521700006f
:020000040000fa
:04002800521700006b
:020000040000fa
:04002c005217000067
:020000040000fa
:040030005217000063
:020000040000fa
:04003400521700005f
:020000040000fa
:04003800321700007b
:020000040000fa
:04003c005217000057
:020000040000fa
:040040005217000053
:020000040000fa
:04004400fa020000bc
:020000040000fa
:04004800521700004b
:020000040000fa
:04004c005217000047
:020000040000fa
:040050005217000043
:020000040000fa
:04005400521700003f
:020000040000fa
:04005800521700003b
:020000040000fa
:04005c005217000037
:020000040000fa
:040060003a1700004b
:020000040000fa
:04006400521700002f
:020000040000fa
:04006800521700002b
:020000040000fa
:04006c005217000027
:020000040000fa
:040070005217000023
:020000040000fa
:04007400521700001f
:020000040000fa
:04007800521700001b
:020000040000fa
:04007c005217000017
:020000040000fa
:040080005217000013
:020000040000fa
:04008400521700000f
:020000040000fa
:04008800421700001b
:020000040000fa
:04008c005217000007
:020000040000fa
:040090005217000003
:020000040000fa
:0400940052170000ff
:020000040000fa
:0400980052170000fb
:020000040000fa
:04009c0052170000f7
:020000040000fa
:0400a00052170000f3
:020000040000fa
:0400a40052170000ef
:020000040000fa
:0400a80052170000eb
:020000040000fa
:0400ac0052170000e7
:020000040000fa
:0400b00052170000e3
:020000040000fa
:0400b400ee03000057
:020000040000fa
:0400b8004a170000e3
:020000040000fa
:0400bc0052170000d7
:020000040000fa
:0400c00052170000d3
:020000040000fa
:0400c40052170000cf
:020000040000fa
:0400c80052170000cb
:020000040000fa
:0400cc0052170000c7
:020000040000fa
:0400d00052170000c3
:020000040000fa
:0400d40052170000bf
:020000040000fa
:0400d80052170000bb
:020000040000fa
:0400dc0052170000b7
:020000040000fa
:0400e00052170000b3
:020000040000fa
:0400e40052170000af
:020000040000fa
:0400e80052170000ab
:020000040000fa
:0400ec0052170000a7
:020000040000fa
:0400f00052170000a3
:020000040000fa
:0400f400521700009f
:020000040000fa
:0400f800521700009b
:020000040000fa
:0400fc005217000097
:020000040000fa
:040100005217000092
:020000040000fa
:04010400521700008e
:020000040000fa
:040108009a04000055
:020000040000fa
:04010c005217000086
:020000040000fa
:040110005217000082
:020000040000fa
:04011400521700007e
:020000040000fa
:04011800521700007a
:020000040000fa
:04011c005217000076
:020000040000fa
:040120005217000072
:020000040000fa
:04012400521700006e
:020000040000fa
:04012800521700006a
:020000040000fa
:04012c005217000066
:020000040000fa
:040130005217000062
:020000040000fa
:04013400521700005e
:020000040000fa
:04013800521700005a
:020000040000fa
:04013c005217000056
:020000040000fa
:040140005217000052
:020000040000fa
:04014400521700004e
:020000040000fa
:04014800521700004a
:020000040000fa
:04014c005217000046
:020000040000fa
:040150005217000042
:020000040000fa
:04015400521700003e
:020000040000fa
:04015800521700003a
:020000040000fa
:04015c005217000036
:020000040000fa
:040160005217000032
:020000040000fa
:04016400521700002e
:020000040000fa
:04016800521700002a
:020000040000fa
:04016c005217000026
:020000040000fa
:040170005217000022
:020000040000fa
:04017400521700001e
:020000040000fa
:04017800521700001a
:020000040000fa
:04017c005217000016
:020000040000fa
:040180005217000012
:020000040000fa
:04018400521700000e
:020000040000fa
:04018800521700000a
:020000040000fa
:04018c005217000006
:020000040000fa
:040190005217000002
:020000040000fa
:0401940052170000fe
:020000040000fa
:0401980052170000fa
:020000040000fa
:04019c0052170000f6
:020000040000fa
:0401a00052170000f2
:020000040000fa
:0401a40052170000ee
:020000040000fa
:0401a80052170000ea
:020000040000fa
:0401ac0052170000e6
:020000040000fa
:0401b00052170000e2
:020000040000fa
:0401b40052170000de
:020000040000fa
:0401b80052170000da
:020000040000fa
:0401bc0052170000d6
:020000040000fa
:0401c00052170000d2
:020000040000fa
:0401c40052170000ce
:020000040000fa
:0401c80052170000ca
:020000040000fa
:0401cc0052170000c6
:020000040000fa
:0401d00052170000c2
:020000040000fa
:0401d40052170000be
:020000040000fa
:0401d80052170000ba
:020000040000fa
:0401dc0052170000b6
:020000040000fa
:0401e00052170000b2
:020000040000fa
:0401e40052170000ae
:020000040000fa
:0401e80052170000aa
:020000040000fa
:0401ec0052170000a6
:020000040000fa
:0401f00052170000a2
:020000040000fa
:0401f400521700009e
:020000040000fa
:0401f800521700009a
:020000040000fa
:0401fc005217000096
:020000040000fa
:040200005217000091
:020000040000fa
:04020400521700008d
:020000040000fa
:040208005217000089
:020000040000fa
:04020c005217000085
:020000040000fa
:040210005217000081
:020000040000fa
:04021400521700007d
:020000040000fa
:040218005217000079
:020000040000fa
:04021c005217000075
:020000040000fa
:040220005217000071
:020000040000fa
:04022400521700006d
:020000040000fa
:040228005217000069
:020000040000fa
:04022c005217000065
:020000040000fa
:040230005217000061
:020000040000fa
:04023400521700005d
:020000040000fa
:040238005217000059
:020000040000fa
:04023c005217000055
:020000040000fa
:040240005217000051
:020000040000fa
:04024400521700004d
:020000040000fa
:040248005217000049
:020000040000fa
:04024c005217000045
:020000040000fa
:040250005217000041
:020000040000fa
:04025400521700003d
:020000040000fa
:040258005217000039
:020000040000fa
:04025c005217000035
:020000040000fa
:040260005217000031
:020000040000fa
:04026400521700002d
:020000040000fa
:040268005217000029
:020000040000fa
:04026c005217000025
:020000040000fa
:040270005217000021
:020000040000fa
:04027400521700001d
:020000040000fa
:040278005217000019
:020000040000fa
:04027c005217000015
:020000040000fa
:040280005217000011
:020000040000fa
:100400006f3121000eff27000e0188000000000060
:10041000000020000000e000020032000001200087
:100420002002880014000700a00a07000000e00076
:1004300003003a00203524000100200002003700ac
:100440000000200001002000810f70000100320038
:100450000f000700000020000000e0000200320052
:1004600000000200000000006e3a020000000000e0
:100470000040da000000fe00200020000000e00044
:1004800002003200100020009001880000000600e9
:10049000a1028800800478000000eb001f003700f4
:1004a000e284440054a0b4009905ba00e2844400f8
:1004b00054a0b4009906ba00e284440054a0b400e9
:1004c0000006eb00476fde00fd07b200ae018800ba
:1004d000636ce10003003a000ad801000000eb0061
:1004e0000e003700606ce10008003a00004deb00a0
:1004f0000a05e800020039003420ec000af0a000f0
:100500008b05e900f9ff3e00040037006168e10057
:10051000010032000086eb000b00070019c7ba008b
:100520000e04e0001905ba0003003a000a00e000da
:10053000dbff3a0000000600fe07b200ae028800b2
:100540008a047800f5ff37000cd0a300e20f4d00bd
:100550001c00390089027800354dba000a05e80010
:10056000020039003420ec000af0a0008b05e900fd
:100570000f003200254dba000a05e80002003900dc
:100580003420ec000af0a0008b05e90008003200de
:100590000c00e0000600320015cdba000a05e800a4
:1005a000020039003420ec000af0a0008b05e900bd
:1005b0008984e80054a0b4000b00e000e2ff3a0098
:1005c000000006009902ba00055d78008b05e9007d
:1005d000f7ff3200c82ade00055d78008b05e900d0
:1005e000f3ff32000c00e000f1ff320019ddba0029
:1005f000eeff3700809fbe000000fa00008f2d0044
:100600003008880070828000818280006100400094
:10061000e08048007082880081828800d08180005c
:10062000e10f500006003a00b0868000c1868000cd
:1006300061004000e0804800b0868800c1868800e4
:10064000e0818000e10f500006003a00d086800073
:10065000e186800061004000e0804800d08688008c
:10066000e1868800f0818000e10f500006003a002a
:10067000f08680000187800061004000e080480033
:10068000f08688000187880000828000e10f50001a
:1006900003003a00708780000000e800708788003f
:1006a000908680000000e8009086880050868000d8
:1006b0000000e80050868800a08680000000e80066
:1006c000a08688001087800021878000610040009c
:1006d000e0804800108788002187880030878000ec
:1006e0004187800061004000e0804800308788003a
:1006f000418788005087800061878000610040004a
:10070000e0804800508788006187880090818000e1
:10071000e10f50002d003a00608580000000e800e5
:1007200060858800708580000000e8007085880082
:10073000808580000000e80080858800908580002a
:100740000000e80090858800a08580000000e80097
:10075000a0858800b08580000000e800b085880092
:10076000c08580000000e800c0858800d08580003a
:100770000000e800d0858800e08580000000e800e7
:10078000e0858800f08580000000e800f0858800a2
:10079000008680000000e800008688001086800047
:1007a0000000e80010868800208680000000e80035
:1007b00020868800308680000000e80030868800af
:1007c000408680000000e8004086880000e8a9001c
:1007d0000080fa004f00be00004006003600f8001e
:1007e000809fbe00829fbe00849fbe00869fbe0089
:1007f0000000fa000468a900502080006100600039
:100800000000e000010032000a04a900502080002e
:10081000620060000000e0003f003200b60e0700fa
:100820000080fb002080880020808000004078004d
:10083000c20f0700000078003080880031808000ff
:1008400000082000808f500002003a0010002000b5
:10085000108288003180800000092000808f5000c5
:100860002a003a0020808000004078008040eb00a1
:10087000a910070040808800408080004880de008a
:100880004080880040808000e60f500004003a005d
:100890001000200060808800120ea8001b003700a6
:1008a00040808000e30f500004003a001000200058
:1008b000d0808800120ea80014003700408080000d
:1008c000e80f500004003a001000200070808800fb
:1008d000120ea9000d00370040808000e90f500083
:1008e00004003a0010002000e0808800120ea800ea
:1008f00006003700408080000000e00003003a005e
:100900001000200080808800120ea9002024ef0033
:100910002224ef000a24a9000080fa004f03be0041
:100920004f02be004f01be004f00be003600f9006e
:10093000004006003600f800809fbe00829fbe0087
:10094000849fbe00869fbe000000fa000708a90031
:1009500050288000610060000000e00001003200cb
:100960000a05a90050288000620060000000e00035
:1009700035093200a81407000080fb0000808800c1
:100980000080800000407800b41507000000780067
:1009900010808800108080006101b900e0f72f000e
:1009a000f1ff2f000200400083804800e233200066
:1009b00003002000820f5000838f58001f093e0063
:1009c000000601004103370050033700640337007d
:1009d0006e0337008303370018093700960337008a
:1009e000ab033700bf033700c9033700de0337000e
:1009f000f2033700fc033700110437000f093700fa
:100a000024043700390437004d04370057043700f9
:100a10006c043700800437008a0437009f043700d5
:100a200006093700b2043700c7043700db0437007b
:100a3000e5043700fa0437000e05370018053700c3
:100a40002d053700fd0837004005370055053700f4
:100a50006905370073053700880537009c053700a6
:100a6000a6053700bb053700f4083700ce05370070
:100a7000e3053700f7053700f0083700ef083700c7
:100a8000ee083700ed083700ec083700eb083700b8
:100a9000ea083700e9083700e8083700e7083700b8
:100aa000e6083700e5083700e4083700e3083700b8
:100ab000e2083700e1083700e0083700f0053700aa
:100ac00004063700170637002b0637003f063700ad
:100ad00053063700670637007b0637008f0637005e
:100ae000a3063700b7063700cb063700df0637000e
:100af000f3063700070737001b0737002f073700bb
:100b000043073700570737006b0737007f07370069
:100b100093073700a7073700bb073700cf07370019
:100b2000e3073700f70737000b0837001f083700c7
:100b300033083700c1083700c008370045083700c0
:100b40004b08370051083700570837005d08370059
:100b500063083700690837006f08370075083700e9
:100b60007b08370081083700870837008d08370079
:100b70009308370099083700b0083700af083700ee
:100b8000ae083700ad083700ac083700ab083700b7
:100b9000aa083700a9083700a8083700a7083700b7
:100ba000a6083700a5083700a4083700a3083700b7
:100bb000a2083700a1083700c10237009f0837009c
:100bc0009e0837009d0837009c0837009b083700b7
:100bd0009a083700990837009808370097083700b7
:100be00096083700950837009408370093083700b7
:100bf0009208370091083700900837008f083700b7
:100c00008e0837008d0837008c0837008b083700b6
:100c10008a083700890837008808370087083700b6
:100c200086083700850837008408370083083700b6
:100c30008208370081083700800837007f083700b6
:100c40007e0837007d0837007c0837007b083700b6
:100c50007a083700790837007808370077083700b6
:100c600076083700750837007408370073083700b6
:100c70007208370071083700700837006f083700b6
:100c80006e0837006d0837006c0837006b083700b6
:100c90006a083700690837006808370067083700b6
:100ca00066083700650837006408370063083700b6
:100cb0006208370061083700600837005f083700b6
:100cc0005e0837005d0837005c0837005b083700b6
:100cd0005a083700590837005808370057083700b6
:100ce00056083700550837005408370053083700b6
:100cf0005208370051083700500837004f083700b6
:100d00004e0837004d0837004c0837004b083700b5
:100d10004a083700490837004808370047083700b5
:100d200046083700450837004408370043083700b5
:100d30004208370041083700400837003f083700b5
:100d40003e0837003d0837003c0837003b083700b5
:100d50003a083700390837003808370037083700b5
:100d600036083700350837003408370033083700b5
:100d70003208370031083700300837002f083700b5
:100d80002e0837002d0837002c0837002b083700b5
:100d90002a083700290837002808370027083700b5
:100da00026083700250837002408370023083700b5
:100db0002208370021083700200837001f083700b5
:100dc0001e0837001d0837001c0837001b083700b5
:100dd0001a083700190837001808370017083700b5
:100de00016083700150837001408370013083700b5
:100df0001208370011083700100837000f083700b5
:100e00000e0837000d0837000c0837000b083700b4
:100e10000a083700090837000808370007083700b4
:100e200006083700050837000408370003083700b4
:100e3000020837000108370000083700ff073700b5
:100e4000fe073700fd073700fc073700fb073700b8
:100e5000fa073700f9073700f8073700f7073700b8
:100e6000f6073700f5073700f4073700f3073700b8
:100e7000f2073700f1073700f0073700ef073700b8
:100e8000ee073700ed073700ec073700eb073700b8
:100e9000ea073700e9073700e8073700e7073700b8
:100ea000e6073700e5073700e4073700e3073700b8
:100eb000e2073700e1073700e0073700df073700b8
:100ec000de073700dd073700dc073700db073700b8
:100ed000da073700d9073700d8073700d7073700b8
:100ee000d6073700d5073700d4073700d3073700b8
:100ef000d2073700d1073700d0073700cf073700b8
:100f0000ce073700cd073700cc073700cb073700b7
:100f1000ca073700c9073700c8073700c7073700b7
:100f2000c6073700c5073700c4073700c3073700b7
:100f3000c2073700c1073700c0073700bf073700b7
:100f4000be073700bd073700bc073700bb073700b7
:100f5000ba073700b9073700b8073700b7073700b7
:100f6000b6073700b5073700b4073700b3073700b7
:100f7000b2073700b1073700b0073700af073700b7
:100f8000ae073700ad073700ac073700ab073700b7
:100f9000aa073700a9073700a8073700a7073700b7
:100fa000a6073700a5073700a4073700a3073700b7
:100fb000a2073700a1073700a00737009f073700b7
:100fc0009e0737009d0737009c0737009b073700b7
:100fd0009a073700990737009807370097073700b7
:100fe00096073700950737009407370093073700b7
:100ff0009207370091073700900737008f073700b7
:101000008e0737008d0737008c0737008b073700b6
:101010008a073700890737008807370087073700b6
:1010200086073700850737008407370083073700b6
:101030008207370081073700800737007f073700b6
:101040007e0737007d0737007c0737007b073700b6
:101050007a073700790737007807370077073700b6
:1010600076073700750737007407370073073700b6
:101070007207370071073700700737006f073700b6
:101080006e0737006d0737006c0737006b073700b6
:101090006a073700690737006807370067073700b6
:1010a00066073700650737006407370063073700b6
:1010b0006207370061073700600737005f073700b6
:1010c0005e0737005d0737005c0737005b073700b6
:1010d0005a073700590737005807370057073700b6
:1010e00056073700550737005407370053073700b6
:1010f0005207370051073700500737004f073700b6
:101100004e0737004d0737004c0737004b073700b5
:101110004a073700490737004807370047073700b5
:1011200046073700450737004407370043073700b5
:101130004207370041073700400737003f073700b5
:101140003e0737003d0737003c0737003b073700b5
:101150003a073700390737003807370037073700b5
:1011600036073700350737003407370033073700b5
:101170003207370031073700300737002f073700b5
:101180002e0737002d0737002c0737002b073700b5
:101190002a073700290737002807370027073700b5
:1011a00026073700250737002407370023073700b5
:1011b0002207370021073700200737001f073700b5
:1011c0001e0737001d0737001c0737001b073700b5
:1011d0001a073700190737001807370017073700b5
:1011e00016073700150737001407370013073700b5
:1011f0001207370011073700100737000f073700b5
:101200000e0737000d0737000c0737000b073700b4
:101210000a073700090737000807370007073700b4
:1012200006073700050737000407370003073700b4
:10123000020737000107370000073700ff063700b5
:10124000fe063700fd063700fc063700fb063700b8
:10125000fa063700f9063700f8063700f7063700b8
:10126000f6063700f5063700f4063700f3063700b8
:10127000f2063700f1063700f0063700ef063700b8
:10128000ee063700ed063700ec063700eb063700b8
:10129000ea063700e9063700e8063700e7063700b8
:1012a000e6063700e5063700e4063700e3063700b8
:1012b000e2063700e1063700e0063700df063700b8
:1012c000de063700dd063700dc063700db063700b8
:1012d000da063700d9063700d8063700d7063700b8
:1012e000d6063700d5063700d4063700d3063700b8
:1012f000d2063700d1063700d0063700cf063700b8
:10130000ce063700cd063700cc063700cb063700b7
:10131000ca063700c9063700c8063700c7063700b7
:10132000c6063700c5063700c4063700c3063700b7
:10133000c2063700c1063700c0063700bf063700b7
:10134000be063700bd063700bc063700bb063700b7
:10135000ba063700b9063700b8063700b7063700b7
:10136000b6063700b5063700b4063700b3063700b7
:10137000b2063700b1063700b0063700af063700b7
:10138000ae063700ad063700ac063700ab063700b7
:10139000aa063700a9063700a8063700a7063700b7
:1013a000a6063700a5063700a4063700a3063700b7
:1013b000a2063700a1063700a00637009f063700b7
:1013c0009e0637009d0637009c0637009b063700b7
:1013d0009a063700990637009806370097063700b7
:1013e00096063700950637009406370093063700b7
:1013f0009206370091063700900637008f063700b7
:101400008e0637008d0637008c0637008b063700b6
:101410008a063700890637008806370087063700b6
:1014200086063700850637008406370083063700b6
:101430008206370081063700800637007f063700b6
:101440007e0637007d0637007c0637007b063700b6
:101450007a063700790637007806370077063700b6
:1014600076063700750637007406370073063700b6
:101470007206370071063700700637006f063700b6
:101480006e0637006d0637006c0637006b063700b6
:101490006a063700690637006806370067063700b6
:1014a00066063700650637006406370063063700b6
:1014b0006206370061063700600637005f063700b6
:1014c0005e0637005d0637005c0637005b063700b6
:1014d0005a063700590637005806370057063700b6
:1014e00056063700550637005406370053063700b6
:1014f0005206370051063700500637004f063700b6
:101500004e0637004d0637004c0637004b063700b5
:101510004a063700490637004806370047063700b5
:1015200046063700450637004406370043063700b5
:101530004206370041063700400637003f063700b5
:101540003e0637003d0637003c0637003b063700b5
:101550003a063700390637003806370037063700b5
:1015600036063700350637003406370033063700b5
:101570003206370031063700300637002f063700b5
:101580002e0637002d0637002c0637002b063700b5
:101590002a063700290637002806370027063700b5
:1015a00026063700250637002406370023063700b5
:1015b0002206370021063700200637001f063700b5
:1015c0001e0637001d0637001c0637001b063700b5
:1015d0001a063700190637001806370017063700b5
:1015e00016063700150637001406370013063700b5
:1015f0001206370011063700100637000f063700b5
:101600000e0637000d0637000c0637000b063700b4
:101610000a063700090637000806370007063700b4
:1016200006063700050637000406370003063700b4
:10163000020637000106370000063700ff053700b5
:10164000fe053700fd053700fc053700fb053700b8
:10165000fa053700f9053700f8053700f7053700b8
:10166000f6053700f5053700f4053700f3053700b8
:10167000f2053700f1053700f0053700ef053700b8
:10168000ee053700ed053700ec053700eb053700b8
:10169000ea053700e9053700e8053700e7053700b8
:1016a000e6053700e5053700e4053700e3053700b8
:1016b000e2053700e1053700e0053700ce053700c9
:1016c0004e30ef005030ef00dc053700ac30ef005b
:1016d0001091800070888800708b8000808888005e
:1016e000008080000040780021c0b3005213070042
:1016f00090888800008080000040780031c0b300ee
:101700004d130700a0888800cc05370000808000ba
:10171000004078008040eb0047130700b088880045
:10172000008080000040780011c0b3004213070021
:10173000c0888800008080000040780021c0b3008d
:101740003d130700d08888000080800000407800aa
:1017500031c0b30038130700e0888800b7053700b0
:1017600000808000004078008040eb0032130700ca
:10177000f0888800008080000040780011c0b3002d
:101780002d13070000898800ac053700ae30ef004c
:1017900000808000004078008040eb0026130700a6
:1017a00010898800008080000040780011c0b300dc
:1017b0002113070020898800008080000040780005
:1017c00021c0b3001c13070030898800008080000e
:1017d0000040780031c0b30017130700408988002b
:1017e0009605370000808000004078008040eb00c4
:1017f00011130700508988000080800000407800a5
:1018000011c0b3000c1307006089880000808000bd
:101810000040780021c0b3000713070070898800da
:10182000008080000040780031c0b3000213070040
:101830008089880081053700b030ef00008080008b
:10184000004078008040eb00fb1207009089880080
:10185000008080000040780011c0b300f61207003d
:10186000a0898800008080000040780021c0b3007b
:10187000f1120700b08988000080800000407800e5
:1018800031c0b300ec120700c08988006b05370037
:1018900000808000004078008040eb00e6120700e6
:1018a000d0898800008080000040780011c0b3001b
:1018b000e1120700e0898800008080000040780085
:1018c00021c0b300dc120700f0898800008080008e
:1018d0000040780031c0b300d7120700008a8800aa
:1018e0005605370000808000004078008040eb0003
:1018f000d1120700108a8800008080000040780024
:1019000011c0b300cc120700208a88004b053700b5
:10191000b230ef0000808000004078008040eb0093
:10192000c5120700308a88000080800000407800df
:1019300011c0b300c0120700408a880000808000f8
:101940000040780021c0b300bb120700508a880015
:10195000008080000040780031c0b300b61207005c
:10196000608a8800350537000080800000407800dc
:101970008040eb00b0120700708a88000080800071
:101980000040780011c0b300ab120700808a8800c5
:10199000008080000040780021c0b300a61207003c
:1019a000908a8800008080000040780031c0b30039
:1019b000a1120700a08a880020053700008080005f
:1019c000004078008040eb009b120700b08a88003e
:1019d000008080000040780011c0b300961207001c
:1019e000c08a880015053700b430ef000080800001
:1019f000004078008040eb008f120700d08a8800fa
:101a0000008080000040780011c0b3008a120700f7
:101a1000e08a8800008080000040780021c0b30088
:101a200085120700f08a880000808000004078005e
:101a300031c0b30080120700008b8800ff0437001c
:101a400000808000004078008040eb007a120700a0
:101a5000108b8800008080000040780011c0b30027
:101a600075120700208b88000080800000407800fd
:101a700021c0b30070120700308b88000080800006
:101a80000040780031c0b3006b120700408b880023
:101a9000ea043700b630ef00008080000040780094
:101aa0008040eb0064120700508b880000808000ab
:101ab0000040780011c0b3005f120700608b8800ff
:101ac000008080000040780021c0b3005a12070057
:101ad000708b8800008080000040780031c0b30027
:101ae00055120700808b8800d404370000808000e6
:101af000004078008040eb004f120700908b880078
:101b0000008080000040780011c0b3004a12070036
:101b1000a08b8800008080000040780021c0b300c6
:101b200045120700b08b88000080800000407800dc
:101b300031c0b30040120700c08b8800bf043700db
:101b400000808000004078008040eb003a120700df
:101b5000d08b8800008080000040780011c0b30066
:101b600035120700e08b8800b4043700b830ef006e
:101b700000808000004078008040eb002e120700bb
:101b8000f08b8800008080000040780011c0b30016
:101b900029120700008c8800008080000040780037
:101ba00021c0b30024120700108c88000080800040
:101bb0000040780031c0b3001f120700208c88005d
:101bc0009e04370000808000004078008040eb00d9
:101bd00019120700308c88000080800000407800d7
:101be00011c0b30014120700408c880000808000f0
:101bf0000040780021c0b3000f120700508c88000d
:101c0000008080000040780031c0b3000a12070055
:101c1000608c8800890437000080800000407800d4
:101c20008040eb0004120700708c88000080800068
:101c30000040780011c0b300ff110700808c8800bd
:101c40007e043700ba30ef0000808000004078004a
:101c50008040eb00f8110700908c88000080800025
:101c60000040780011c0b300f3110700a08c880079
:101c7000008080000040780021c0b300ee11070012
:101c8000b08c8800008080000040780031c0b30034
:101c9000e9110700c08c88006804370000808000cc
:101ca000004078008040eb00e3110700d08c8800f2
:101cb000008080000040780011c0b300de110700f2
:101cc000e08c8800008080000040780021c0b300d4
:101cd000d9110700f08c8800008080000040780057
:101ce00031c0b300d4110700008d880053043700c1
:101cf000bc30ef0000808000004078008040eb00a6
:101d0000cd110700108d8800008080000040780011
:101d100011c0b300c8110700208d8800008080002a
:101d20000040780021c0b300c3110700308d880047
:101d3000008080000040780031c0b300be11070071
:101d4000408d88003d04370000808000004078000e
:101d50008040eb00b8110700508d880000808000a3
:101d60000040780011c0b300b3110700608d8800f7
:101d7000008080000040780021c0b300ae11070051
:101d8000708d8800008080000040780031c0b30072
:101d9000a9110700808d880028043700008080008a
:101da000004078008040eb00a3110700908d880070
:101db000008080000040780011c0b3009e11070031
:101dc000a08d88001d043700be30ef000080800029
:101dd000004078008040eb0097110700b08d88002c
:101de000008080000040780011c0b300921107000d
:101df000c08d8800008080000040780021c0b300c2
:101e00008d110700d08d8800008080000040780090
:101e100031c0b30088110700e08d88000704370047
:101e200000808000004078008040eb0082110700b5
:101e3000f08d8800008080000040780011c0b30061
:101e40007d110700008e880000808000004078002f
:101e500021c0b30078110700108e88000080800038
:101e60000040780031c0b30073110700208e880055
:101e7000f203370000808000004078008040eb00d3
:101e80006d110700308e88000080800000407800cf
:101e900011c0b30068110700408e8800e7033700c7
:101ea000c030ef0000808000004078008040eb00f0
:101eb00061110700508e880000808000004078008b
:101ec00011c0b3005c110700608e880000808000a4
:101ed0000040780021c0b30057110700708e8800c1
:101ee000008080000040780031c0b300521107002c
:101ef000808e8800d1033700008080000040780089
:101f00008040eb004c110700908e8800008080001c
:101f10000040780011c0b30047110700a08e880070
:101f2000008080000040780021c0b300421107000b
:101f3000b08e8800008080000040780031c0b3007f
:101f40003d110700c08e8800bc033700c230ef008f
:101f500000808000004078008040eb0036110700d0
:101f6000d08e8800008080000040780011c0b3004f
:101f700031110700e08e880000808000004078006a
:101f800021c0b3002c110700f08e88000080800073
:101f90000040780031c0b30027110700008f88008f
:101fa000a603370000808000004078008040eb00ee
:101fb00021110700108f8800008080000040780009
:101fc00011c0b3001c110700208f88000080800022
:101fd0000040780021c0b30017110700308f88003f
:101fe000008080000040780031c0b300121107006b
:101ff000408f880091033700008080000040780007
:102000008040eb000c110700508f8800008080009a
:102010000040780011c0b30007110700608f8800ee
:1020200086033700c430ef00008080000040780055
:102030008040eb0000110700708f88000080800056
:102040000040780011c0b300fb100700808f8800ab
:10205000008080000040780021c0b300f610070027
:10206000908f8800008080000040780031c0b3006d
:10207000f1100700a08f88007003370000808000f7
:10208000004078008040eb00eb100700b08f880024
:10209000008080000040780011c0b300e610070007
:1020a000c08f8800008080000040780021c0b3000d
:1020b000e1100700d08f8800008080000040780089
:1020c00031c0b300dc100700e08f88005b033700ed
:1020d00000808000004078008040eb00d6100700b0
:1020e000f08f8800008080000040780011c0b300ad
:1020f000d11007000090880050033700c630ef0071
:1021000000808000004078008040eb00ca1007008b
:1021100010908800008080000040780011c0b3005b
:10212000c5100700209088000080800000407800e3
:1021300021c0b300c01007003090880000808000ec
:102140000040780031c0b300bb1007004090880009
:102150003a03370000808000004078008040eb00a8
:10216000b510070050908800008080000040780083
:1021700011c0b300b010070060908800008080009c
:102180000040780021c0b300ab10070070908800b9
:10219000008080000040780031c0b300a610070026
:1021a0008090880025033700c830ef000080800051
:1021b000004078008040eb009f100700909088005e
:1021c000008080000040780011c0b3009a10070022
:1021d000a0908800008080000040780021c0b300fb
:1021e00095100700b09088000080800000407800c3
:1021f00031c0b30090100700c09088000f03370073
:1022000000808000004078008040eb008a100700ca
:10221000d0908800008080000040780011c0b3009a
:1022200085100700e0908800008080000040780062
:1022300021c0b30080100700f0908800008080006b
:102240000040780031c0b3007b1007000091880087
:10225000fa02370000808000004078008040eb00e8
:102260007510070010918800008080000040780001
:1022700011c0b3007010070020918800ef023700f2
:1022800000808000004078008040eb006a1007006a
:1022900030918800008080000040780011c0b300b9
:1022a00065100700409188000080800000407800a1
:1022b00021c0b300601007005091880000808000aa
:1022c0000040780031c0b3005b10070060918800c7
:1022d000da02370000808000004078008040eb0088
:1022e0005510070070918800008080000040780041
:1022f00011c0b3005010070080918800008080005a
:102300000040780021c0b3004b1007009091880076
:10231000008080000040780031c0b3004610070004
:10232000a091880000808000004078008040eb0091
:1023300041100700b09188000080800000407800c4
:1023400011c0b3003c100700c091880000808000dd
:102350000040780021c0b30037100700d0918800fa
:10236000008080000040780031c0b30032100700c8
:10237000e0918800b10237000080800000407800c2
:102380008040eb002c100700f09188000080800056
:102390000040780011c0b3002710070000928800a9
:1023a000008080000040780021c0b30022100700a8
:1023b00010928800008080000040780031c0b30097
:1023c0001d100700209288009c02370000808000ca
:1023d000004078008040eb00171007003092880022
:1023e000008080000040780011c0b3001210070088
:1023f00040928800008080000040780021c0b30037
:102400000d10070050928800008080000040780086
:1024100031c0b300081007006092880087023700bf
:1024200000808000004078008040eb000210070030
:1024300070928800008080000040780011c0b300d6
:10244000fd0f070080928800008080000040780027
:1024500021c0b300f80f0700909288000080800030
:102460000040780031c0b300f30f0700a09288004d
:102470007202370000808000004078008040eb004e
:10248000ed0f0700b09288000080800000407800c7
:1024900011c0b300e80f0700c092880000808000e0
:1024a0000040780021c0b300e30f0700d0928800fd
:1024b000008080000040780031c0b300de0f0700cc
:1024c000e09288005d0237000080800000407800c4
:1024d0008040eb00d80f0700f09288000080800059
:1024e0000040780011c0b300d30f070000938800ac
:1024f000008080000040780021c0b300ce0f0700ac
:1025000010938800008080000040780031c0b30044
:10251000c90f070020938800480237000080800020
:10252000004078008040eb00c30f07003093880024
:10253000008080000040780011c0b300be0f07008b
:1025400040938800008080000040780021c0b300e4
:10255000b90f070050938800008080000040780089
:1025600031c0b300b40f0700609388003302370016
:1025700000808000004078008040eb00ae0f070034
:1025800070938800008080000040780011c0b30084
:10259000a90f070080938800008080000040780029
:1025a00021c0b300a40f0700909388000080800032
:1025b0000040780031c0b3009f0f0700a09388004f
:1025c0001e02370000808000004078008040eb0051
:1025d000990f0700b09388000080800000407800c9
:1025e00011c0b300940f0700c093880000808000e2
:1025f0000040780021c0b3008f0f0700d0938800ff
:10260000008080000040780031c0b3008a0f0700ce
:10261000e0938800090237000080800000407800c5
:102620008040eb00840f0700f0938800008080005a
:102630000040780011c0b3007f0f070000948800ad
:10264000008080000040780021c0b3007a0f0700ae
:1026500010948800008080000040780031c0b300f2
:10266000750f070020948800f40137000080800077
:10267000004078008040eb006f0f07003094880026
:10268000008080000040780011c0b3006a0f07008e
:1026900040948800008080000040780021c0b30092
:1026a000650f07005094880000808000004078008b
:1026b00031c0b300600f070060948800df0137006d
:1026c00000808000004078008040eb005a0f070037
:1026d00070948800008080000040780011c0b30032
:1026e000550f07008094880000808000004078002b
:1026f00021c0b300500f0700909488000080800034
:102700000040780031c0b3004b0f0700a094880050
:10271000ca01370000808000004078008040eb0054
:10272000450f0700b09488000080800000407800ca
:1027300011c0b300400f0700c094880000808000e3
:102740000040780021c0b3003b0f0700d094880000
:10275000008080000040780031c0b300360f0700d1
:10276000e0948800b50137000080800000407800c8
:102770008040eb00300f0700f0948800008080005c
:102780000040780011c0b3002b0f070000958800af
:10279000008080000040780021c0b300260f0700b1
:1027a00010958800008080000040780031c0b300a0
:1027b000210f070020958800a001370000808000cd
:1027c000004078008040eb001b0f07003095880028
:1027d000008080000040780011c0b300160f070091
:1027e00040958800008080000040780021c0b30040
:1027f000110f07005095880000808000004078008d
:1028000031c0b3000c0f0700609588008b013700c2
:1028100000808000004078008040eb00060f070039
:1028200070958800008080000040780011c0b300df
:10283000010f07008095880000808000004078002c
:1028400021c0b300fc0e0700909588000080800036
:102850000040780031c0b300f70e0700a095880053
:102860007601370000808000004078008040eb0057
:10287000f10e0700b09588000080800000407800cd
:1028800011c0b300ec0e0700c095880000808000e6
:102890000040780021c0b300e70e0700d095880003
:1028a000008080000040780031c0b300e20e0700d5
:1028b000e0958800610137000080800000407800ca
:1028c0008040eb00dc0e0700f0958800008080005f
:1028d0000040780011c0b300d70e070000968800b2
:1028e000008080000040780021c0b300d20e0700b5
:1028f00010968800008080000040780031c0b3004e
:10290000cd0e0700209688004c0137000080800023
:10291000004078008040eb00c70e0700309688002a
:10292000008080000040780011c0b300c20e070094
:1029300040968800008080000040780021c0b300ed
:10294000bd0e07005096880000808000004078008f
:1029500031c0b300b80e0700609688003701370019
:1029600000808000004078008040eb00b20e07003d
:1029700070968800008080000040780011c0b3008d
:10298000ad0e07008096880000808000004078002f
:1029900021c0b300a80e0700909688000080800038
:1029a0000040780031c0b300a30e0700a096880055
:1029b0002201370000808000004078008040eb005a
:1029c0009d0e0700b09688000080800000407800cf
:1029d00011c0b300980e0700c096880000808000e8
:1029e0000040780021c0b300930e0700d096880005
:1029f000008080000040780031c0b3008e0e0700d8
:102a0000e09688000d0137000080800000407800cb
:102a10008040eb00880e0700f09688000080800060
:102a20000040780011c0b300830e070000978800b3
:102a3000008080000040780021c0b3007e0e0700b7
:102a400010978800008080000040780031c0b300fb
:102a5000790e070020978800f8003700008080007a
:102a6000004078008040eb00730e0700309788002c
:102a7000008080000040780011c0b3006e0e070097
:102a800040978800008080000040780021c0b3009b
:102a9000690e070050978800008080000040780091
:102aa00031c0b300640e070060978800e300370070
:102ab00000808000004078008040eb005e0e070040
:102ac00070978800008080000040780011c0b3003b
:102ad000590e070080978800008080000040780031
:102ae00021c0b300540e070090978800008080003a
:102af0000040780031c0b3004f0e0700a097880057
:102b0000ce00370000808000004078008040eb005d
:102b1000490e0700b09788000080800000407800d0
:102b200011c0b300440e0700c097880000808000e9
:102b30000040780021c0b3003f0e0700d097880006
:102b4000008080000040780031c0b3003a0e0700da
:102b5000e0978800b90037000080800000407800ce
:102b60008040eb00340e0700f09788000080800062
:102b70000040780011c0b3002f0e070000988800b5
:102b8000008080000040780021c0b3002a0e0700ba
:102b900010988800008080000040780031c0b300a9
:102ba000250e070020988800a400370000808000d0
:102bb000004078008040eb001f0e0700309888002e
:102bc000008080000040780011c0b3001a0e07009a
:102bd00040988800008080000040780021c0b30049
:102be000150e070050988800008080000040780093
:102bf00031c0b300100e0700609888008f003700c6
:102c000000808000004078008040eb000a0e070042
:102c100070988800008080000040780011c0b300e8
:102c2000050e070080988800008080000040780032
:102c300021c0b300000e070090988800008080003b
:102c40000040780031c0b300fb0d0700a098880059
:102c50007a00370000808000004078008040eb0060
:102c6000f50d07004800de0070848800730037000f
:102c700000808000004078008040eb00ee0d0700ef
:102c80004800de00808488006c00370000808000ef
:102c9000004078008040eb00e70d07004800de00b0
:102ca0009084880065003700008080000040780034
:102cb0008040eb00e00d07004800de00a0848800a3
:102cc0005e00370000808000004078008040eb000c
:102cd000d90d07004800de00b08488005700370097
:102ce00000808000004078008040eb00d20d07009b
:102cf0004800de00c084880050003700008080005b
:102d0000004078008040eb00cb0d07004800de005b
:102d1000d08488004900370000808000004078009f
:102d20008040eb00c40d07004800de00e08488000e
:102d30004200370000808000004078008040eb00b7
:102d4000bd0d07004800de00f08488003b0037001e
:102d500000808000004078008040eb00b60d070046
:102d60004800de00008588003400370000808000c5
:102d7000004078008040eb00af0d07004800de0007
:102d8000108588002d00370000808000004078000a
:102d90008040eb00a80d07004800de002085880079
:102da0002600370000808000004078008040eb0063
:102db000a10d07004800de00308588001f003700a5
:102dc00000808000004078008040eb009a0d0700f2
:102dd0004800de0040858800180037000080800031
:102de000004078008040eb00930d07004800de00b3
:102df00050858800110037001000200020828800d4
:102e000000808000004078008040eb008a0d0700c1
:102e100080007800400521000108780000808000d3
:102e20000040780011c0b300830d070080007800d7
:102e30004005210011009800000000002025ef004f
:102e40002225ef000a25a9000080fa004f03be00ea
:102e50004f02be004f01be004f00be003600f90019
:102e6000004006000000fa000088a9000080fa0077
:102e7000004006000000fa0001c8a9000080fa0026
:102e8000004006000000fa000308a9000080fa00d4
:102e9000004006000000fa000488a9000080fa0043
:102ea000004006000040da000000fe0000000500bf
:102eb000889fbe008a9fbe008c1f78009d0007007f
:102ec000a400330003866c006450e1002e00320041
:102ed0006420e100330032006150e1002f00320035
:102ee0006120e1003100320085855500eb07b0001c
:102ef00009002000080420000500370008044400f1
:102f000089844c000a0031000603430087834b008c
:102f10000001530081815b00f8ff33000203be0013
:102f20000800a0000804440089844c00f6ff390022
:102f3000c639dd0083017300010032001300200058
:102f40008904d1000884d3000998a3000500320049
:102f50000800a7000300a0008904d1000884d30062
:102f60008b05e8008904d1000884d3000001eb0040
:102f70000281d2003400070001f0a1000cf0a7008c
:102f800001f0a0007c0037006420e1007e003200e8
:102f90000801be000200be00f7ff37006120e1001b
:102fa000790032006000b800f3ff37000000200015
:102fb00001f82700f0ff37000001be0048000700bd
:102fc0000470a70003f0a1006509b10016003200eb
:102fd0000d0035006828e10006003500f0ff2f00e5
:102fe000f1ff27000300e00013003b000100280070
:102ff0000000050000004000818048008502e900d3
:10300000fcff3a0008003700f88f420002003c0045
:103010008000eb00000005008100d1000080d3009b
:103020008502e800fcff3a000300e00002003b00dc
:1030300060001000e0801800000006004f89de00ec
:103040008201780053003700810020006180550024
:103050000b003d000b00200061fe2f000100e1008d
:103060001d00340082817100610164008904d10077
:103070000884d3000000e800faff3a007100200045
:10308000610064000300700002006000090032006b
:1030900061044400e0844c000988a500050032006a
:1030a0008b05e8006808e10002003a008904d100bd
:1030b0000884d300f20f20000258e10005003d0013
:1030c000c75ddd00f907b20089807500080078004f
:1030d000000006000bf827008b00780000000500b8
:1030e000c70ade00f107b200f50fb2000800320097
:1030f000e1cf4200020032000170a0002400050070
:10310000810f700001003200040805004400050032
:10311000810f700002003a00140005008502e900ea
:103120000000400081c04800fcff3b000170a0008f
:10313000240005000004be00e9ff07000003be00f4
:103140000405be000200be00e5ff0700844f7500c5
:10315000000006000200be006450e10005003600d9
:103160006420e100020036000968a30001003a0073
:103170000800be000160a0004f0678004f05be00a9
:103180004f04be0000000600f0ff2f00f1ff2700f3
:10319000f9ff3700881f7800030478000300e0007f
:1031a00007003d0060001000e08018006001190079
:1031b000e081190002003b0001f02d000300370000
:1031c0000400070008f0a70001f0a0004f047800f9
:1031d00000000600889fbe008a9fbe00008270002b
:1031e0000402710004827100260032000004be0057
:1031f0000200be006011b8006b092000950220009b
:103200000182cf000a0039000541b1000082cf00e1
:10321000070039000541b1000982cf0004003900e0
:103220000541b1000882cf00010039000541b1001d
:1032300005425200120032000a003b0082817100f8
:10324000610164008100d1000080d3008984d30033
:103250000884d3008b05e8000442e800f7ff3a0039
:10326000070037000804440089844c00000048002f
:10327000818048008b05e9000442e900f9ff3a002b
:1032800071ff07004f05be004f04be00000006009e
:020000040000fa
:103290002000fa00889fbe00200f9800320f98008f
:1032a000430f9800510f9800640f9800750f980015
:1032b0006000b800008fbe006000b80020079800d2
:1032c000310798006000b800400798005107980047
:1032d0000004a8002e0890000000400000004000fc
:1032e00080007800004420000080400060079800c3
:1032f0002e0890004280de00000040008000780030
:103300000042200000804000700798002e089000c6
:103310004380de00000040008000780080412000f3
:1033200000804000000f980040412000100f9800de
:103330005e089000e10f500049003a003e099000fd
:10334000ce099000f0ff2f0001002000020278005b
:103350000301780080017800010078000302620018
:10336000000061008000eb00c000dd0000002000d4
:103370000001be006120b800000171008181710070
:1033800022079800330798003e089000ce0890006e
:10339000408cde00cf8cde000801be003000200033
:1033a000010020000202780003017800800178000b
:1033b0000100780003026200000061008000eb0061
:1033c000c000dd00000020000001be006120b80048
:1033d0000001710081817100420798005307980035
:1033e0003e089000ce089000428bde00cf8bde00be
:1033f0000601be00f07f20000100200002027800dc
:103400008301780000017800010078000201620069
:10341000008061008000eb00c000dd0000002000a3
:10342000008fbe006110b8001e1f70001e97700054
:103430001e007800c500dd004e00900000804000b6
:10344000e80040006e009000010878006e009000d7
:103450000080e800ae0090000108780019003700f5
:103460003e099000ce099000f07f2000010020006e
:1034700002027800830178000001780001007800e2
:1034800002016200008061008000eb00c000dd00ee
:1034900000002000008fbe006110b8001e1f7000e9
:1034a0001e9770001e007800c500dd006e009000c1
:1034b000010878006e0090000080e8008000eb00ba
:1034c000010878007e009000900078002e0890009f
:1034d000630060004200dd00f20020000010dd000b
:1034e0000080ea00808060007e0090000108780083
:1034f0002e089000630060004200dd00ee0890009e
:103500008008dd007e0090001000780081007000cf
:103510007e009000010878000e089000900078006e
:103520002e0890006700600000004000320020007c
:103530000010dd000080ea00808060000e0890002e
:10354000010878002e08900067006000000040002d
:10355000fe0890008008dd000e0890001000780042
:10356000810070000e089000010878001100200012
:103570002e0890000008dd00800078001e089000f2
:1035800010007800810070001e089000010878008b
:103590000004a9004f04be000080fa0000000600ed
:1035a0001800fa00889fbe0070079800020f98006c
:1035b000130f9800210f9800340f98006000b80096
:1035c000008fbe006000b800200798003107980007
:1035d0006000b80040079800510798000004a80058
:1035e0007e00900000004000000040008000780055
:1035f0000043200000804000600798003e089000d3
:10360000e10f500053003a000e0990009e0990000f
:10361000f0ff2f0001002000020278000301780073
:103620008001780001007800030262000000610060
:103630008000eb00c000dd00000020000001be00a3
:103640006120b8000001710081817100220798009b
:10365000330798000e0890009e089000408cde0012
:10366000cf8cde000801be003000200001002000e9
:1036700002027800030178008001780001007800e0
:1036800003026200000061008000eb00c000dd006a
:10369000000020000001be006120b80000017100a0
:1036a0008181710042079800530798000e0890002e
:1036b0009e089000428bde00cf8bde000601be002c
:1036c000f07f2000010020000202780083017800d2
:1036d00000017800010078000201620000806100b2
:1036e0008000eb00c000dd0000002000008fbe0065
:1036f0006110b8001e1f70001e9770002e08900009
:10370000e10f500008003a001e007800c500dd00ff
:103710004e00900000804000e80040006e009000e5
:1037200001087800060037001e007800c500dd00a3
:103730004e009000808040006e00900001087800ec
:103740006e0090000080e800ae0090000108780054
:10375000220037000e0990009e099000f07f2000a3
:103760000100200002027800830178000001780047
:103770000100780002016200008061008000eb001f
:10378000c000dd0000002000008fbe006110b80006
:103790001e1f70001e9770002e089000e10f500051
:1037a00006003a001e0078004500dd00e8004000f9
:1037b0006e00900001087800040037001e007800b9
:1037c000c500dd006e009000010878006e009000da
:1037d0000080e8008000eb00010878000004a900e8
:1037e0004f04be000080fa00000006002a00fa0024
:1037f000889fbe008a9fbe008c9fbe00400f98002d
:10380000520f9800630f9800710f980004179800ea
:103810006000b800008fbe006000b800200798006c
:10382000310798006000b8004007980051079800e1
:103830006000b80060079800710798006000b80049
:10384000000f9800110f98006000b800200f98003a
:10385000310f98007e0890000000e000490032001f
:103860005e089000ee089000f203200003002000a4
:10387000000278008102780082007800030078005e
:1038800001026200008062006101b800c011dd0029
:10389000020020000200be006121b800020070009a
:1038a00083807000000f9800110f98005e08900050
:1038b000ee0890004a09dd004603de0006037100b1
:1038c000c68bde000600be00f2ff200003002000d1
:1038d00080027800810078000202780003007800fe
:1038e00004826200008060008000eb00c000dd0008
:1038f000000020000001be006120b800000171003e
:1039000081817100220f9800330f98005e089000ab
:10391000ee089000c289de00131798004f8ade007f
:10392000241798001e119000ae119000f07f200027
:103930000100200002027800030178008001780075
:103940000100780003026200000061008000eb00cb
:10395000c000dd00000020000001be006120b800b2
:10396000000171008181710062079800730798005f
:103970002e099000be099000220798003307980096
:10398000130037005e099000ee099000f07f2000e0
:103990000100200002027800030178008001780015
:1039a0000100780003026200000061008000eb006b
:1039b000c000dd00000020000001be006120b80052
:1039c00000017100818171006207980073079800ff
:1039d0000e109000e10f500017003a006e009000aa
:1039e000fe0090004209dd00ce01de00830171007f
:1039f0004201dd007e0890008000eb0000007100b5
:103a0000818071000002be000410a000048fbe007f
:103a10000e0990009e0990004a18dd00c610de00d5
:103a2000810070004a10dd000090a000400798005f
:103a300051079800120037006e009000fe009000c1
:103a40004209dd00ce01de00830171004201dd008c
:103a50007e0890008000eb00001f7100019771004c
:103a60000e0990009e0990004a18dd00c610de0085
:103a7000810070004a10dd0040079800510798004f
:103a80007e0890000000e0001e0032001e0078005a
:103a9000800178000310a0004e0890004400dd0073
:103aa0006100b80000f0a7001100200005c0280048
:103ab0003517980016002000461798003e12900017
:103ac000ce1290000003d0000401d0000200430099
:103ad0004220a800858048004200a9004220ae0094
:103ae0004200a8000080d300a201800001027800fb
:103af00000007800a401880003087800a201880073
:103b0000170037009e0178004e0890004400dd0049
:103b10006100b80000f0a700110020000cc02800d0
:103b20001d0020000002d0008c02d00005004200e1
:103b30004220a8008d8048004200a9004220ae002b
:103b40004200a8000080d300a2018000010278009a
:103b500000007800a401880003087800a201880012
:103b6000ae0190004e0890004400dd000080e800a7
:103b70006100b80000f0a700110020000ac0280072
:103b80001b0020000003d0000a01d0000200430007
:103b90004220a8008b8048004200a9004220ae00cd
:103ba0004200a8000080d300a2018000010278003a
:103bb00000007800a401880003087800a2018800b2
:103bc000ce0190004e0890004400dd0064004000eb
:103bd0006100b80000f0a7001100200008c0280014
:103be000190020000002d0008802d0000500420029
:103bf0004220a800898048004200a9004220ae006f
:103c00004200a8000080d300a201800001027800d9
:103c100000007800a401880003087800a201880051
:103c20004f06be004f05be004f04be000080fa00e4
:103c3000000006001a00fa00889fbe008a9fbe009e
:103c40008c9fbe00000f7800110798002207980093
:103c500033079800440798005507980066079800b6
:103c60002e0090006101b8000002eb008000eb0024
:103c70001e007800ddfe07001e0078004400dd0015
:103c8000640040006100b80000f0a70011002000af
:103c900002c028007207980013002000030f98004c
:103ca0007e0290008e0a90000003d0000401d00034
:103cb000020043004220a800858048004200a9007d
:103cc0004220ae004200a8000080d3009201800094
:103cd0008101780003d0fe00000078009000780099
:103ce00002d0fe0000ff2f00808060001e009000c8
:103cf000808140001e0078004400dd006400400028
:103d00006100b80000f0a7001100200004c02800e6
:103d1000140f980015002000250f98001e0a90002f
:103d2000ae0a90000003d0000401d000020043005e
:103d30004220a800858048004200a9004220ae0031
:103d40004200a8000080d300a20180000102780098
:103d500000007800a401880003087800a201880010
:103d60003e009000c800dd004800de0000807000ca
:103d70009e007800c408dd00e68040006109b800bc
:103d800002f0a7001300200004c02800340f9800a0
:103d900015002000450f98003e0a9000ce0a9000c2
:103da0000203d0008400d000010143004220a8009b
:103db000858149004200a9004220ae004200a800cf
:103dc0000281d300a1018000030278000201780083
:103dd000a401880000097800a10188004e0090002d
:103de000c800dd004800de00008070009e00780002
:103df000c408dd00e88040006109b80002f0a700b7
:103e0000130020000cc028001d0020000202d0007a
:103e10008c02d000050142004220a8008d8149009b
:103e20004200a9004220ae004200a8000281d30057
:103e3000a10180000302780002017800a40188003b
:103e400000097800a10188005e009000c800dd0034
:103e50004800de00008070009e007800c408dd008d
:103e6000ea8040006109b80002f0a70013002000ba
:103e70000ac028001b0020000203d0008a00d000e6
:103e8000010143004220a8008b8149004200a900a3
:103e90004220ae004200a8000281d300a1018000b0
:103ea0000302780002017800a4018800000978006c
:103eb000a10188006e009000c800dd004800de000f
:103ec000008070009e007800c408dd00ec80400097
:103ed0006109b80002f0a7001300200008c0280004
:103ee000190020000202d0008802d0000501420023
:103ef0004220a800898149004200a9004220ae006a
:103f00004200a8000281d300a101800003027800d2
:103f100002017800a401880000097800a10188004e
:103f20004f06be004f05be004f04be000080fa00e1
:103f3000000006002800fa00889fbe008a9fbe008d
:103f40008c9fbe00000f9800110f9800220f980060
:103f50006357980074579800055f9800165f9800a3
:103f6000275f98002e0890006101b8000002eb0066
:103f70008000eb000e0890001cfe07006e509000c1
:103f80000080fb00000f78007e5090000080fb0056
:103f9000100798000e5890000080fb002007980042
:103fa0001e5890000080fb00300798002e589000ab
:103fb0000080fb00400798000ef897000080fb008f
:103fc000500798006ef097000080fb006007980093
:103fd0004ef097000080fb00700798000e089000dc
:103fe0004400dd00640040006100b80000f0a7005c
:103ff0001100200002c02800620f9800130020006a
:10400000730f98006e0a9000fe0a90000003d00023
:104010000401d000020043004220a800858048002f
:104020004200a9004220ae004200a8000080d30058
:10403000920180008101780003d0fe00000078002a
:104040009000780002d0fe0000ff2f00808060000a
:104050001e089000808140000e0890004400dd00a2
:10406000640040006100b80000f0a70011002000cb
:1040700004c02800041798001500200015179800a8
:104080000e1290009e1290000003d0000401d00098
:10409000020043004220a800858048004200a90099
:1040a0004220ae004200a8000080d300a2018000a0
:1040b0000102780000007800a4018800030878005d
:1040c000a20188001e009000c800dd00f00f200053
:1040d0001e006000810170000e0890004400dd00a9
:1040e000660040006100b80000f0a7001100200049
:1040f00004c02800241798001500200035179800e8
:104100002e129000be1290000003d0000401d000d7
:10411000020043004220a800858048004200a90018
:104120004220ae004200a8000080d300a20180001f
:104130000102780000007800a401880003087800dc
:10414000a20188003e009000c800dd002e01900012
:10415000f00f200000006100810170000e08900047
:104160004400dd00680040006100b80000f0a700d6
:10417000110020000cc028001d0020000002d0000b
:104180008c02d000050042004220a8008d8048002b
:104190004200a9004220ae004200a8000080d300e7
:1041a000a20180000102780000007800a4018800cc
:1041b00003087800a20188005e009000c800dd00be
:1041c0004e019000f00f200000006100810170009e
:1041d0000e0890004400dd006a0040006100b80055
:1041e00000f0a700110020000ac028001b002000da
:1041f0000003d0000a01d000020043004220a800c2
:104200008b8048004200a9004220ae004200a80076
:104210000080d300a2018000010278000000780035
:10422000a401880003087800a20188007e009000a5
:10423000c800dd006e019000f00f2000000061005a
:10424000810170000e0890004400dd006c00400009
:104250006100b80000f0a7001100200008c028008d
:10426000190020000002d0008802d00005004200a2
:104270004220a800898048004200a9004220ae00e8
:104280004200a8000080d300a20180000102780053
:1042900000007800a401880003087800a2018800cb
:1042a0004f06be004f05be004f04be000080fa005e
:1042b000000006000400fa00100798000004a8009f
:1042c00040412000000f78001e0078009000780028
:1042d000120020001e0090000010dd000080ea00a7
:1042e000808060001e007800010878000004a900aa
:1042f0000080fa00000006000200fa0000218000a1
:10430000610060000000e000030032000040eb00ac
:10431000004f7800f100370000218000620060004b
:104320000000e0000300320010c0b300004f78002e
:10433000ea00370000218000640060000000e00017
:104340000300320020c0b300004f7800e3003700c4
:1043500000218000680060000000e00003003200df
:1043600030c0b300004f7800dc003700002180002f
:10437000700060000000e0000300320040c0b300a5
:10438000004f7800d5003700012180000002200096
:10439000008060000000e0000300320050c0b30065
:1043a000004f7800cd00370001218000000420007c
:1043b000008060000000e0000300320060c0b30035
:1043c000004f7800c5003700012180000008200060
:1043d000008060000000e0000300320070c0b30005
:1043e000004f7800bd003700012180000010200040
:1043f000008060000000e0000300320080c0b300d5
:10440000004f7800b5003700012180000020200017
:10441000008060000000e0000300320090c0b300a4
:10442000004f7800ad0037000121800000402000df
:10443000008060000000e00003003200a0c0b30074
:10444000004f7800a5003700012180000080200087
:10445000008060000000e00003003200b0c0b30044
:10446000004f78009d0037000121800000002100ee
:10447000008060000000e00003003200c0c0b30014
:10448000004f7800950037000121800000002200d5
:10449000008060000000e00003003200d0c0b300e4
:1044a000004f78008d0037000121800000002400bb
:1044b000008060000000e00003003200e0c0b300b4
:1044c000004f78008500370001218000000028009f
:1044d000008060000000e00003003200f0c0b30084
:1044e000004f78007d0037001021800061006000df
:1044f0000000e0000300320000c1b300004f78006c
:104500007600370010218000620060000000e000ab
:104510000300320010c1b300004f78006f00370075
:1045200010218000640060000000e0000300320001
:1045300020c1b300004f78006800370010218000d0
:10454000680060000000e0000300320030c1b300ea
:10455000004f78006100370010218000700060007b
:104560000000e0000300320040c1b300004f7800bb
:104570005a003700112180000002200000806000f6
:104580000000e0000300320050c1b300004f78008b
:1045900052003700112180000004200000806000dc
:1045a0000000e0000300320060c1b300004f78005b
:1045b0004a003700112180000008200000806000c0
:1045c0000000e0000300320070c1b300004f78002b
:1045d00042003700112180000010200000806000a0
:1045e0000000e0000300320080c1b300004f7800fb
:1045f0003a00370011218000002020000080600078
:104600000000e0000300320090c1b300004f7800ca
:10461000320037001121800000402000008060003f
:104620000000e00003003200a0c1b300004f78009a
:104630002a003700112180000080200000806000e7
:104640000000e00003003200b0c1b300004f78006a
:10465000220037001121800000002100008060004e
:104660000000e00003003200c0c1b300004f78003a
:104670001a00370011218000000022000080600035
:104680000000e00003003200d0c1b300004f78000a
:10469000120037001121800000002400008060001b
:1046a0000000e00003003200e0c1b300004f7800da
:1046b0000a003700112180000000280000806000ff
:1046c0000000e00003003200f0c1b300004f7800aa
:1046d0000200370000c0eb00004f78001e40780059
:1046e0000080fa00000006000000fa0000218000af
:1046f00000f0a7000000ea000000e9004f00de0023
:10470000804078001021800000f0a7000000ea003f
:104710000000e9004f00de000040780000c06000ab
:104720000004e0000200320010c0b30001003700b6
:104730000040eb000080fa00000006001400fa00c0
:10474000889fbe008a9fbe008c9fbe0020579800a5
:104750002e5090000080fb004400dd006100b80096
:1047600000f0a700110020000ac028001b00200054
:104770000006d0008a06d0000d0046004220a800a6
:104780008b8048004200a9004220ae004200a800f1
:104790000080d3009a018000810578000bd0fe00d4
:1047a00000007800100078000ad0fe006100600070
:1047b000200798002e0090000000e00029003a0039
:1047c0002e5090000080fb004400dd006100b80026
:1047d00000f0a7001100200008c0280019002000e8
:1047e0000001d0008801d000030041004220a80051
:1047f000898048004200a9004220ae004200a80083
:104800000080d300920180008101780003d0fe0077
:10481000000078001000780002d0fe004200de00a8
:104820006101b800f07f2000010020000202780042
:104830008301780000017800010078000201620025
:10484000008061008000eb00c000dd00000020005f
:10485000008fbe006110b8001e1f70001e97700010
:10486000870037002e5090000080fb004400dd00e0
:104870006100b80000f0a7001100200002c028006d
:10488000130020000002d0008202d0000500420088
:104890004220a800838048004200a9004220ae00c8
:1048a0004200a8000080d3009201800081017800be
:1048b00003d0fe00000078001000780002d0fe0057
:1048c0008000eb0030079800410798003e00900000
:1048d000ce009000c001dd0002002000000020009a
:1048e000f17f200002047800030178008001780045
:1048f0000100780003046400000061008000eb0008
:10490000c000dd00000020000001be006140b800d2
:1049100000017100818171003207980043079800ff
:104920002e5090000080fb004400dd000080e80075
:104930006100b80000f0a7001100200006c02800a8
:10494000170020000006d0008606d0000d004600ab
:104950004220a800878048004200a9004220ae0003
:104960004200a8000080d3009201800081017800fd
:1049700003d0fe00000078001000780002d0fe0096
:104980008000eb0050079800610798005e009000df
:10499000ee0090004609dd00ca01de0083017100cf
:1049a0004601dd0000fc2f003100200002037800ea
:1049b00003017800800178000100780003036300a0
:1049c000000061008000eb00c000dd00000020005e
:1049d0000001be006130b8000001710081817100ea
:1049e00052079800630798002e5090000080fb004b
:1049f0004400dd00640040006100b80000f0a70042
:104a00001100200004c02800150020000001d00083
:104a10008401d000030041004220a80085804800a6
:104a20004200a9004220ae004200a8000080d3004e
:104a3000920180008101780003d0fe000000780020
:104a40001000780002d0fe004a00de008000eb007b
:104a500070079800010f98003e019000ce01900071
:104a60005e009000ee0090000001710081817100f5
:104a70007e0090008e089000001f71000197710069
:104a80001e0078009e0090004f06be004f05be003d
:104a90004f04be000080fa00000006000400fa0087
:104aa000204798002e4090000080fb004400dd006d
:104ab000640040006100b80000f0a7001100200071
:104ac00002c02800130020000002d0008202d000a3
:104ad000050042004220a800838048004200a9004f
:104ae0004220ae004200a8000080d3009201800066
:104af0008101780003d0fe000000780010007800eb
:104b000002d0fe00004078006f4f60001e40780029
:104b10000080fa00000006000400fa002047980018
:104b2000314798002e4090008080fb003e4090006e
:104b30000080fb0063004000c308dd0000804000ef
:104b4000000040006100b80000f0a7001100200044
:104b500002c02800130020000002d0008202d00012
:104b6000050042004220a800838048004200a900be
:104b70004220ae004200a8000080d30092018000d5
:104b80008101780003d0fe0000007800100f78004b
:104b900002d0fe001e007800c800dd004800de00e4
:104ba000008f70001e0078000080fa0000000600f0
:104bb0002000fa00889fbe00200f9800320f980056
:104bc000430f9800510f9800640f9800750f9800dc
:104bd0006000b800008fbe006000b8002007980099
:104be000310798006000b80040079800510798000e
:104bf0000005a8002e0890000000400000004000c2
:104c00008000780000542000008040006007980079
:104c10002e0890004280de000000400080007800f6
:104c20000052200000804000700798002e0890007d
:104c30004380de00000040008000780080512000aa
:104c400000804000000f980040512000100f980095
:104c50005e089000e10f500049003a003e099000c4
:104c6000ce099000f0ff2f00010020000202780022
:104c700003017800800178000100780003026200df
:104c8000000061008000eb00c000dd00000020009b
:104c90000001be006120b800000171008181710037
:104ca00022079800330798003e089000ce08900035
:104cb000408cde00cf8cde000801be0030002000fa
:104cc00001002000020278000301780080017800d2
:104cd0000100780003026200000061008000eb0028
:104ce000c000dd00000020000001be006120b8000f
:104cf00000017100818171004207980053079800fc
:104d00003e089000ce089000428bde00cf8bde0084
:104d10000601be00f07f20000100200002027800a2
:104d20008301780000017800010078000201620030
:104d3000008061008000eb00c000dd00000020006a
:104d4000008fbe006110b8001e1f70001e9770001b
:104d50001e007800c500dd004e009000008040007d
:104d6000e80040006e009000010878006e0090009e
:104d70000080e800ae0090000108780019003700bc
:104d80003e099000ce099000f07f20000100200035
:104d900002027800830178000001780001007800a9
:104da00002016200008061008000eb00c000dd00b5
:104db00000002000008fbe006110b8001e1f7000b0
:104dc0001e9770001e007800c500dd006e00900088
:104dd000010878006e0090000080e8008000eb0081
:104de000010878007e009000900078002e08900066
:104df000630060004200dd00f20020000010dd00d2
:104e00000080ea00808060007e0090000108780049
:104e10002e089000630060004200dd00ee08900064
:104e20008008dd007e009000100078008100700096
:104e30007e009000010878000e0890009000780035
:104e40002e08900067006000000040003200200043
:104e50000010dd000080ea00808060000e089000f5
:104e6000010878002e0890006700600000004000f4
:104e7000fe0890008008dd000e0890001000780009
:104e8000810070000e0890000108780011002000d9
:104e90002e0890000008dd00800078001e089000b9
:104ea00010007800810070001e0890000108780052
:104eb0000005a9004f04be000080fa0000000600b3
:104ec0001800fa00889fbe0070079800020f980033
:104ed000130f9800210f9800340f98006000b8005d
:104ee000008fbe006000b8002007980031079800ce
:104ef0006000b80040079800510798000005a8001e
:104f00007e0090000000400000004000800078001b
:104f10000053200000804000600798003e08900089
:104f2000e10f500053003a000e0990009e099000d6
:104f3000f0ff2f000100200002027800030178003a
:104f40008001780001007800030262000000610027
:104f50008000eb00c000dd00000020000001be006a
:104f60006120b80000017100818171002207980062
:104f7000330798000e0890009e089000408cde00d9
:104f8000cf8cde000801be003000200001002000b0
:104f900002027800030178008001780001007800a7
:104fa00003026200000061008000eb00c000dd0031
:104fb000000020000001be006120b8000001710067
:104fc0008181710042079800530798000e089000f5
:104fd0009e089000428bde00cf8bde000601be00f3
:104fe000f07f200001002000020278008301780099
:104ff0000001780001007800020162000080610079
:105000008000eb00c000dd0000002000008fbe002b
:105010006110b8001e1f70001e9770002e089000cf
:10502000e10f500008003a001e007800c500dd00c6
:105030004e00900000804000e80040006e009000ac
:1050400001087800060037001e007800c500dd006a
:105050004e009000808040006e00900001087800b3
:105060006e0090000080e800ae009000010878001b
:10507000220037000e0990009e099000f07f20006a
:10508000010020000202780083017800000178000e
:105090000100780002016200008061008000eb00e6
:1050a000c000dd0000002000008fbe006110b800cd
:1050b0001e1f70001e9770002e089000e10f500018
:1050c00006003a001e0078004500dd00e8004000c0
:1050d0006e00900001087800040037001e00780080
:1050e000c500dd006e009000010878006e009000a1
:1050f0000080e8008000eb00010878000005a900ae
:105100004f04be000080fa00000006002a00fa00ea
:10511000889fbe008a9fbe008c9fbe00400f9800f3
:10512000520f9800630f9800710f980004179800b1
:105130006000b800008fbe006000b8002007980033
:10514000310798006000b8004007980051079800a8
:105150006000b80060079800710798006000b80010
:10516000000f9800110f98006000b800200f980001
:10517000310f98007e0890000000e00049003200e6
:105180005e089000ee089000f2032000030020006b
:105190000002780081027800820078000300780025
:1051a00001026200008062006101b800c011dd00f0
:1051b000020020000200be006121b8000200700061
:1051c00083807000000f9800110f98005e08900017
:1051d000ee0890004a09dd004603de000603710078
:1051e000c68bde000600be00f2ff20000300200098
:1051f00080027800810078000202780003007800c5
:1052000004826200008060008000eb00c000dd00ce
:10521000000020000001be006120b8000001710004
:1052200081817100220f9800330f98005e08900072
:10523000ee089000c289de00131798004f8ade0046
:10524000241798001e119000ae119000f07f2000ee
:10525000010020000202780003017800800178003c
:105260000100780003026200000061008000eb0092
:10527000c000dd00000020000001be006120b80079
:105280000001710081817100620798007307980026
:105290002e099000be09900022079800330798005d
:1052a000130037005e099000ee099000f07f2000a7
:1052b00001002000020278000301780080017800dc
:1052c0000100780003026200000061008000eb0032
:1052d000c000dd00000020000001be006120b80019
:1052e00000017100818171006207980073079800c6
:1052f0000e109000e10f500017003a006e00900071
:10530000fe0090004209dd00ce01de008301710045
:105310004201dd007e0890008000eb00000071007b
:10532000818071000002be000410a000048fbe0046
:105330000e0990009e0990004a18dd00c610de009c
:10534000810070004a10dd000090a0004007980026
:1053500051079800120037006e009000fe00900088
:105360004209dd00ce01de00830171004201dd0053
:105370007e0890008000eb00001f71000197710013
:105380000e0990009e0990004a18dd00c610de004c
:10539000810070004a10dd00400798005107980016
:1053a0007e0890000000e0001e0032001e00780021
:1053b000800178000310a0004e0890004400dd003a
:1053c0006100b80000f0a70011002000058028004f
:1053d0003517980016002000461798003e129000de
:1053e000ce1290000003d0000401d0000200430060
:1053f0004220a800858048004200a9004220ae005b
:105400004200a8000080d300a201800001027800c1
:1054100000007800a401880003087800a201880039
:10542000170037009e0178004e0890004400dd0010
:105430006100b80000f0a700110020000c802800d7
:105440001d0020000002d0008c02d00005004200a8
:105450004220a8008d8048004200a9004220ae00f2
:105460004200a8000080d300a20180000102780061
:1054700000007800a401880003087800a2018800d9
:10548000ae0190004e0890004400dd000080e8006e
:105490006100b80000f0a700110020000a80280079
:1054a0001b0020000003d0000a01d00002004300ce
:1054b0004220a8008b8048004200a9004220ae0094
:1054c0004200a8000080d300a20180000102780001
:1054d00000007800a401880003087800a201880079
:1054e000ce0190004e0890004400dd0064004000b2
:1054f0006100b80000f0a70011002000088028001b
:10550000190020000002d0008802d00005004200ef
:105510004220a800898048004200a9004220ae0035
:105520004200a8000080d300a201800001027800a0
:1055300000007800a401880003087800a201880018
:105540004f06be004f05be004f04be000080fa00ab
:10555000000006001a00fa00889fbe008a9fbe0065
:105560008c9fbe00000f780011079800220798005a
:10557000330798004407980055079800660798007d
:105580002e0090006101b8000002eb008000eb00eb
:105590001e007800ddfe07001e0078004400dd00dc
:1055a000640040006100b80000f0a7001100200076
:1055b000028028007207980013002000030f980053
:1055c0007e0290008e0a90000003d0000401d000fb
:1055d000020043004220a800858048004200a90044
:1055e0004220ae004200a8000080d300920180005b
:1055f0008101780003d0fe00000078009000780060
:1056000002d0fe0000ff2f00808060001e0090008e
:10561000808140001e0078004400dd0064004000ee
:105620006100b80000f0a7001100200004802800ed
:10563000140f980015002000250f98001e0a9000f6
:10564000ae0a90000003d0000401d0000200430025
:105650004220a800858048004200a9004220ae00f8
:105660004200a8000080d300a2018000010278005f
:1056700000007800a401880003087800a2018800d7
:105680003e009000c800dd004800de000080700091
:105690009e007800c408dd00e68040006109b80083
