:08000000981C04000000000040
:040044001A0D000091
:0800B000E20D0000400D00000C
:100400003220EF006315200083015000040031000A
:1004100003222000008041001000BA000000060006
:100420000022200083814100808141003380BA0096
:100430009381BA00C819DD00008071000000060039
:100440000000080099C50600ABCEF500320BD500C0
:10045000CFD86C00561D100064165E00FDD31B0043
:1004600007F4C7009E31DE00AC3AAA0035FF540005
:10047000C82C330051E9910063E20100FA279A0089
:1004800097AD98000E685F003C636500A5A68C00E0
:100490005875FC00C1B04900F3BBCE006A7E420033
:1004A00090595700099C87003B97AD00A252A000CD
:1004B0005F813400C6446500F44F06006D8A6E000B
:1004C0002E5B9F00B79EAB00859562001C507800A4
:1004D000E183FB007846BD004A4DC900D388B600D1
:1004E00029AF5000B06A73008261D6001BA451008E
:1004F000E6774F007FB294004DB97D00D47C9F0019
:10050000B9F6E40020335A00123819008BFD890037
:10051000762E8000EFEB4C00DDE0B2004425470072
:10052000BE022B0027C7820015CCD1008C09A50084
:1005300071DA4800E81F6000DA147A0043D16B00DA
:10054000C5F3E3005C36AE006E3D1E00F7F87D009B
:100550000A2B870093EEB800A1E5B5003820B30060
:10056000C2072C005BC2760069C94100F00CFC0098
:100570000DDFD800941A3900A611EA003FD43200EA
:10058000525E7300CB9BF700F9908E0060552400FB
:100590009D8617000443E10036482500AF8DEA0030
:1005A00055AABC00CC6F2F00FE64460067A108006E
:1005B0009A72DF0003B7CD0031BCED00A879C60008
:1005C000EBA87400726D030040668900D9A3D000C7
:1005D00024701000BDB515008FBE2200167B1E00D2
:1005E000EC5CBB007599DB004792F800DE570A000F
:1005F00023846100BA41CF00884A5300118FC400A0
:100600007C05CA00E5C00100D7CB37004E0ED200F2
:10061000B3DDAE002A18170018139C0081D61C0009
:100620007BF10500E234D900D03FFF0049FAFE001B
:10063000B42966002DEC3B001FE7540086223000F1
:1006400013A2CD008A67F500B86C300021A92600FE
:10065000DC7AA90045BFE30077B49B00EE71E800A7
:10066000145602008D932D00BF986F00265DA700E1
:10067000DB8EF600424B62007040C400E9856900E1
:10068000840F5D001DCAAC002FC1A000B6047F001E
:100690004BD73900D212BA00E0190B0079DCB10057
:1006A00083FB92001A3E740028356800B1F05300B5
:1006B0004C23F100D5E69600E7EDC3007E289D00AF
:1006C0003DF95A00A43C58009637A7000FF28B0062
:1006D000F2213E006BE44E0059EF0C00C02A4500A9
:1006E0003A0D9500A3C8800091C300003220EF00AE
:1006F000234B2000830150000400310063392000A7
:10070000008041001000BA0000000600603920009F
:1007100083814100808141003380BA009381BA0017
:10072000C819DD00008071000000060000005900BB
:100730000100020002005A000300020004005B00F6
:100740000500020006005C000700020008005D00D2
:10075000090002000A005E000B0002000C005F00AE
:100760000D0002000E0060000F000200100061008A
:100770001100020012006200130002001400630066
:100780001500020016006400170002001800650042
:10079000190002001A0066001B0002001C0067001E
:1007A0001D0002001E0068001F00020020006900FA
:1007B0002100020022006A002300020024006B00D6
:1007C0002500020026006C002700020028006D00B2
:1007D000290002002A006E002B0002002C006F008E
:1007E0002D0002002E0070002F000200300071006A
:1007F0003100020032007200330002003400730046
:100800003500020036007400370002003800750021
:10081000390002003A0076003B0002003C007700FD
:100820003D0002003E0078003F00020040007900D9
:100830004100020042007A004300020044007B00B5
:100840004500020046007C004700020048007D0091
:10085000490002004A007E004B0002004C007F006D
:100860004D0002004E0080004F0002005000810049
:100870005100020052008200530002005400830025
:100880005500020056008400570002005800850001
:10089000590002005A0086005B0002005C008700DD
:1008A0005D0002005E0088005F00020060008900B9
:1008B0006100020062008A006300020064008B0095
:1008C0006500020066008C006700020068008D0071
:1008D000690002006A008E006B0002006C008F004D
:1008E0006D0002006E0090006F0002007000910029
:1008F0007100020072009200730002007400930005
:1009000075000200760094007700020078009500E0
:10091000790002007A0096007B0002007C009700BC
:100920007D0002007E0098007F0002008000990098
:100930008100020082009A008300020084009B0074
:100940008500020086009C008700020088009D0050
:10095000890002008A009E008B0002008C009F002C
:100960008D0002008E00A0008F0002009000A10008
:10097000910002009200A200930002009400A300E4
:10098000950002009600A400970002009800A500C0
:10099000990002009A00A6009B0002009C00A7009C
:1009A0009D0002009E00A8009F000200A000A90078
:1009B000A1000200A200AA00A3000200A400AB0054
:1009C000A5000200A600AC00A7000200A800AD0030
:1009D000A9000200AA00AE00AB000200AC00AF000C
:1009E000AD000200AE00B000AF000200B000B100E8
:1009F000B1000200B200B200B3000200B400B300C4
:100A0000B5000200B600B400B7000200B800B5009F
:100A1000B9000200BA00B600BB000200BC00B7007B
:100A2000BD000200BE00B800BF000200C000B90057
:100A3000C1000200C200BA00C3000200C400BB0033
:100A4000C5000200C600BC00C7000200C800BD000F
:100A5000C9000200CA00BE00CB000200CC00BF00EB
:100A6000CD000200CE00C000CF000200D000C100C7
:100A7000D1000200D200C200D3000200D400C300A3
:100A8000D5000200D600C400D7000200D800C5007F
:100A9000D9000200DA00C600DB000200DC00C7005B
:100AA000DD000200DE00C800DF000200E000C90037
:100AB000E1000200E200CA00E3000200E400CB0013
:100AC000E5000200E600CC00E7000200E800CD00EF
:100AD000E9000200EA00CE00EB000200EC00CF00CB
:100AE000ED000200EE00D000EF000200F000D100A7
:100AF000F1000200F200D200F3000200F400D30083
:100B0000F5000200F600D400F7000200F800D5005E
:100B1000F9000200FA00D600FB000200FC00D7003A
:100B2000FD000200FE00D800FF0002000001D90015
:100B3000010102000201DA00030102000401DB00EE
:100B4000050102000601DC00070102000801DD00CA
:100B5000090102000A01DE000B0102000C01DF00A6
:100B60000D0102000E01E0000F0102001001E10082
:100B7000110102001201E200130102001401E3005E
:100B8000150102001601E400170102001801E5003A
:100B9000190102001A01E6001B0102001C01E70016
:100BA0001D0102001E01E8001F0102002001E900F2
:100BB000210102002201EA00230102002401EB00CE
:100BC000250102002601EC00270102002801ED00AA
:100BD000290102002A01EE002B0102002C01EF0086
:100BE0002D0102002E01F0002F0102003001F10062
:100BF000310102003201F200330102003401F3003E
:100C0000350102003601F400370102003801F50019
:100C1000390102003A01F6003B0102003C01F700F5
:100C20003D0102003E01F8003F0102004001F900D1
:100C3000410102004201FA00430102004401FB00AD
:100C4000450102004601FC00470102004801FD0089
:100C5000490102004A01FE004B0102004C01FF0065
:100C60004D0102004E0100004F0103005001010040
:100C7000510103005201020053010300540103001B
:100C800055010300560104005701030058010500F7
:100C9000590103005A0106005B0103005C010700D3
:100CA0005D0103005E0108005F01030060010900AF
:100CB0006101030062010A006301030064010B008B
:100CC0006501030066010C006701030068010D0067
:100CD000690103006A010E006B0103006C010F0043
:100CE0006D0103006E0110006F010300700111001F
:100CF00071010300720112007301030074011300FB
:100D000075010300760114007701030078011500D6
:100D1000790103007A0116007B0103007C011700B2
:100D20007D0103007E0118007F010300800119008E
:100D30008101030082011A008301030084011B006A
:100D40008501030086011C008701030088011D0046
:100D5000890103008A011E008B0103008C011F0022
:100D60008D0103008E0120008F01030090012100FE
:100D700091010300920122009301030094012300DA
:100D800095010300960124009701030098012500B6
:100D9000990103009A0126009B0103009C01270092
:100DA0009D0103009E0128009F010300A00129006E
:100DB000A1010300A2012A00A3010300A4012B004A
:100DC000A5010300A6012C00A7010300A8012D0026
:100DD000A9010300AA012E00AB010300AC012F0002
:100DE000AD010300AE013000AF010300B0013100DE
:100DF000B1010300B2013200B3010300B4013300BA
:100E0000B5010300B6013400B7010300B801350095
:100E1000B9010300BA013600BB010300BC01370071
:100E2000BD010300BE013800BF010300C00139004D
:100E3000C1010300C2013A00C3010300C4013B0029
:100E4000C5010300C6013C00C7010300C8013D0005
:100E5000C9010300CA013E00CB010300CC013F00E1
:100E6000CD010300CE014000CF010300D0014100BD
:100E7000D1010300D2014200D3010300D401430099
:100E8000D5010300D6014400D7010300D801450075
:100E9000D9010300DA014600DB010300DC01470051
:100EA000DD010300DE014800DF010300E00149002D
:100EB000E1010300E2014A00E3010300E4014B0009
:100EC000E5010300E6014C00E7010300E8014D00E5
:100ED000E9010300EA014E00EB010300EC014F00C1
:100EE000ED010300EE015000EF010300F00151009D
:100EF000F1010300F2015200F3010300F401530079
:100F0000F5010300F6015400F7010300F801550054
:100F1000F9010300FA015600FB010300FC01570030
:100F2000FD010300FE015800FF010300000259000B
:100F30000102030002025A000302030004025B00E4
:100F40000502030006025C000702030008025D00C0
:100F5000090203000A025E000B0203000C025F009C
:100F60000D0203000E0260000F0203001002610078
:100F70001102030012026200130203001402630054
:100F80001502030016026400170203001802650030
:100F9000190203001A0266001B0203001C0267000C
:100FA0001D0203001E0268001F02030020026900E8
:100FB0002102030022026A002302030024026B00C4
:100FC0002502030026026C002702030028026D00A0
:100FD000290203002A026E002B0203002C026F007C
:100FE0002D0203002E0270002F0203003002710058
:100FF0003102030032027200330203003402730034
:10100000350203003602740037020300380275000F
:10101000390203003A0276003B0203003C027700EB
:101020003D0203003E0278003F02030040027900C7
:101030004102030042027A004302030044027B00A3
:101040004502030046027C004702030048027D007F
:10105000490203004A027E004B0203004C027F005B
:101060004D0203004E0280004F0203005002810037
:101070005102030052028200530203005402830013
:101080005502030056028400570203005802000074
:101090003220EF00234B2000830150000400310078
:1010A00083862000008041001000BA000000060086
:1010B0008086200083814100808141003380BA0016
:1010C0009381BA00C819DD0000807100000006009D
:1010D0002808210026080200230820002108020019
:1010E0001E081E001C08020019081D001608020038
:1010F00014081B00110802000F081A000C08020057
:101100000A08180007080200040817000208020075
:10111000FF071500FD070200FA071400F707020099
:10112000F5071200F2070200EF071100ED070200B9
:10113000EA070F00E7070200E5070E00E2070200DA
:10114000DF070C00DD070200DA070B00D7070200FB
:10115000D5070900D2070200CF070800CD0702001B
:10116000CA070700C7070200C5070500C20702003B
:10117000BF070400BC070200BA070200B70702005D
:10118000B4070100B1070200AF07FF00AC07010080
:10119000A907FE00A6070100A407FD00A1070100A2
:1011A0009E07FB009B0701009807FA0096070100C5
:1011B0009307F800900701008D07F7008A070100E8
:1011C0008807F600850701008207F4007F07010009
:1011D0007C07F3007A0701007707F100740701002C
:1011E0007107F0006E0701006B07EF006807010050
:1011F0006607ED00630701006007EC005D07010072
:101200005A07EB00570701005407E9005107010096
:101210004F07E8004C0701004907E60046070100B8
:101220004307E500400701003D07E4003A070100DD
:101230003707E200340701003207E1002F07010001
:101240002C07E000290701002607DE002307010024
:101250002007DD001D0701001A07DC001707010049
:101260001407DA00110701000E07D9000B0701006F
:101270000807D800050701000207D700FF06010094
:10128000FC06D500FA060100F706D400F4060100BA
:10129000F106D300EE060100EB06D100E8060100DE
:1012A000E506D000E2060100DF06CF00DC06010003
:1012B000D906CE00D6060100D306CC00D006010028
:1012C000CD06CB00CA060100C706CA00C40601004D
:1012D000C106C800BE060100BB06C700B706010074
:1012E000B406C600B1060100AE06C500AB0601009B
:1012F000A806C300A5060100A206C2009F060100C1
:101300009C06C100990601009606C00093060100E4
:101310009006BE008D0601008A06BD00870601000A
:101320008406BC00810601007E06BB007B0601002E
:101330007806BA00750601007206B8006E06010054
:101340006B06B700680601006506B600620601007C
:101350005F06B5005C0601005906B40056060100A0
:101360005306B200500601004D06B1004A060100C6
:101370004706B000440601004106AF003D060100EB
:101380003A06AE00370601003406AC003106010013
:101390002E06AB002B0601002806AA002506010038
:1013A0002206A9001F0601001C06A800190601005C
:1013B0001606A700120601000F06A5000C06010084
:1013C0000906A400060601000306A30000060100AA
:1013D000FD05A200FA050100F705A100F4050100D2
:1013E000F105A000EE050100EB059E00E7050100F8
:1013F000E4059D00E1050100DE059C00DB05010020
:10140000D8059B00D5050100D2059A00CF05010043
:10141000CC059900C9050100C6059800C305010067
:10142000C0059700BD050100BA059500B60501008D
:10143000B3059400B0050100AD059300AA050100B5
:10144000A7059200A4050100A10591009E050100D9
:101450009B0590009805010095058F0092050100FD
:101460008F058E008C05010089058D008605010021
:1014700083058C00800501007D058B007A05010045
:101480007705890074050100710588006E0501006B
:101490006B05870067050100640586006105010092
:1014A0005E0585005B0501005805840055050100B7
:1014B000520583004F0501004C05820049050100DB
:1014C0004605810043050100400580003D050100FF
:1014D0003A057F003705010034057E003105010023
:1014E0002E057D002C05010029057C002605010044
:1014F00023057B00200501001D057A001A05010067
:101500001705790014050100110578000E0501008A
:101510000B057700080501000505760002050100AE
:10152000FF047500FC040100F9047400F6040100D6
:10153000F3047300F0040100EE047200EB040100F8
:10154000E8047100E5040100E2047000DF0401001A
:10155000DC046F00D9040100D6046E00D30401003E
:10156000D0046D00CE040100CB046C00C80401005F
:10157000C5046B00C2040100BF046A00BC04010082
:10158000B9046900B7040100B4046800B1040100A3
:10159000AE046700AB040100A8046600A5040100C6
:1015A000A3046500A00401009D0464009A040100E6
:1015B0009704630094040100920462008F04010008
:1015C0008C04610089040100860460008404010029
:1015D00081045F007E0401007B045E00780401004A
:1015E00076045D007304010070045C006D0401006A
:1015F0006B045B006804010065045A00620401008A
:10160000600459005D0401005A04580057040100A9
:1016100055045700520401004F0457004C040100C8
:101620004A045600470401004404550042040100E6
:101630003F0454003C040100390453003704010006
:1016400034045200310401002F0451002C04010025
:10165000290450002704010024044F002104010044
:101660001F044E001C04010019044D001704010062
:1016700014044D00110401000F044C000C0401007F
:101680000A044B000704010004044A00020401009C
:10169000FF034900FD030100FA034800F7030100BE
:1016A000F5034700F2030100F0034600ED030100DB
:1016B000EB034600E8030100E5034500E3030100F6
:1016C000E0034400DE030100DB034300D903010013
:1016D000D6034200D4030100D1034100CF0301002F
:1016E000CC034000CA030100C7033F00C50301004B
:1016F000C2033F00C0030100BD033E00BB03010065
:10170000B8033D00B6030100B3033C00B103010080
:10171000AE033B00AC030100A9033A00A70301009C
:10172000A4033A00A2030100A00339009D030100B5
:101730009B033800980301009603370094030100CF
:10174000910336008F0301008C0335008A030100EA
:101750008803350085030100830334008003010002
:101760007E0333007C03010079033200770301001C
:101770007503310072030100700331006E03010034
:101780006B0330006903010067032F00640301004D
:1017900062032E00600301005E032D005B03010065
:1017A00059032D005703010054032C00520301007C
:1017B00050032B004E0301004B032A004903010094
:1017C00047032900450301004203290040030100AB
:1017D0003E0328003C0301003903270037030100C2
:1017E0003503260033030100310325002E030100D9
:1017F0002C0325002A0301002803240026030100EE
:1018000024032300210301001F0322001D03010004
:101810001B03220019030100170321001403010018
:1018200012032000100301000E031F000C0301002F
:101830000A031F000803010006031E000403010041
:1018400001031D00FF020100FD021C00FB0201005C
:10185000F9021C00F7020100F5021B00F30201006F
:10186000F1021A00EF020100ED021900EB02010083
:10187000E9021900E7020100E5021800E302010095
:10188000E1021700DF020100DD021600DB020100A9
:10189000D9021600D7020100D5021500D3020100BB
:1018A000D1021400CF020100CD021400CB020100CE
:1018B000C9021300C7020100C5021200C3020100E1
:1018C000C1021100BF020100BD021100BB020100F4
:1018D000B9021000B7020100B6020F00B402010005
:1018E000B2020F00B0020100AE020E00AC02010015
:1018F000AA020D00A8020100A6020C00A502010028
:10190000A3020C00A10201009F020B009D02010036
:101910009B020A009A02010098020A009602010046
:101920009402090092020100900208008F02010057
:101930008D0208008B020100890207008702010066
:101940008602060084020100820206008002010075
:101950007E0205007D0201007B0204007902010085
:101960007702040076020100740203007202010093
:10197000710202006F0201006D0202006B020100A1
:101980006A020100680201006602000065020100AF
:1019900063020000610201005F02FF005E020000BE
:1019A0005C02FE005A0200005902FE0057020000CD
:1019B0005502FD00540200005202FC0050020000DB
:1019C0004F02FC004D0200004C02FB004A020000E6
:1019D0004802FA00470200004502FA0043020000F4
:1019E0004202F900400200003F02F9003D020000FF
:1019F0003B02F8003A0200003802F700370200000C
:101A00003502F700340200003202F6003002000016
:101A10002F02F5002D0200002C02F5002A02000022
:101A20002902F400270200002602F300240200002D
:101A3000230200004200F8003600F8003200F800EF
:101A4000801F7800200020000C000900B01F7800E3
:101A50005828EC004220AF005A28EC0084E0A9008E
:101A6000A00120000C0009004F1078004F00780002
:101A70003200F9003600F9004200F900004006008B
:101A80004200F8003600F8003200F800801F7800AD
:101A9000200020000C000900B01F78008860A90019
:101AA000A00120000C0009004F1078004F007800C2
:101AB0003200F9003600F9004200F900004006004B
:101AC000851F7800F628EF00F828EF00F4C8BF0063
:101AD0000160EF00C402DD00E482420005007800EE
:101AE0000400220004004000FAA8B700F548E20014
:101AF00024003200FA88BF009002780000C02F0056
:101B000085026000CA2ADE0005027800F403B200F4
:101B1000E4478800D447800062005200FAA8B7006A
:101B2000FA88BF0090027800F53FB2004628DD0039
:101B3000FC28B700FA88BF009002780000C020009F
:101B4000850260004A28DE00FEA8B700D447800066
:101B500062005200FAA8B700FA88BF00900278002D
:101B6000C0FF210005006000FE28B700FE08F80055
:101B7000F808F900FC08F800F608F900DA0D04008E
:101B800000000000D447800064005200FAA8B700AB
:101B9000FA88BF0090027800C0FF21008502600033
:101BA000C22ADE00F07F200005006000F6A8B70022
:101BB000F828EF00F688BF00C1478000CF02780008
:101BC000000006004200F8003600F8003200F8007D
:101BD000801F7800200020000C000900B01F780052
:101BE0002004E20002003A002204E2007F023200F8
:101BF00044862000F44688002004AE000700370029
:101C00005D68EF005E08A9002804AF005E08A80028
:101C10002804A9007E100400000000002024AE006B
:101C20000800370010C0B3005DE8B7005E08A900E7
:101C30002824AF005E08A8002824A9007E10040014
:101C4000000000002044AE000800370020C0B300B0
:101C50005DE8B7005E08A9002844AF005E08A80050
:101C60002844A9007E100400000000002064AE009B
:101C70000800370030C0B3005DE8B7005E08A90077
:101C80002864AF005E08A8002864A9007E10040044
:101C9000000000002084AE000800370040C0B30000
:101CA0005DE8B7005E08A9002884AF005E08A800C0
:101CB0002884A9007E1004000000000020A4AE00CB
:101CC0000800370050C0B3005DE8B7005E08A90007
:101CD00028A4AF005E08A80028A4A9007E10040074
:101CE0000000000020C4AE000800370060C0B30050
:101CF0005DE8B7005E08A90028C4AF005E08A80030
:101D000028C4A9007E1004000000000020E4AE00FA
:101D10000800370070C0B3005DE8B7005E08A90096
:101D200028E4AF005E08A80028E4A9007E100400A3
:101D3000000000002104AE000800370080C0B3009E
:101D40005DE8B7005E08A9002904AF005E08A8009E
:101D50002904A9007E100400000000002124AE0028
:101D60000800370090C0B3005DE8B7005E08A90026
:101D70002924AF005E08A8002924A9007E100400D1
:101D8000000000002144AE0008003700A0C0B300EE
:101D90005DE8B7005E08A9002944AF005E08A8000E
:101DA0002944A9007E100400000000002164AE0058
:101DB00008003700B0C0B3005DE8B7005E08A900B6
:101DC0002964AF005E08A8002964A9007E10040001
:101DD000000000002184AE0008003700C0C0B3003E
:101DE0005DE8B7005E08A9002984AF005E08A8007E
:101DF0002984A9007E1004000000000021A4AE0088
:101E000008003700D0C0B3005DE8B7005E08A90045
:101E100029A4AF005E08A80029A4A9007E10040030
:101E20000000000021C4AE0008003700E0C0B3008D
:101E30005DE8B7005E08A90029C4AF005E08A800ED
:101E400029C4A9007E1004000000000021E4AE00B7
:101E500008003700F0C0B3005DE8B7005E08A900D5
:101E600029E4AF005E08A80029E4A9007E10040060
:101E7000000000002204AE000800370000C1B300DB
:101E80005DE8B7005E08A9002A04AF005E08A8005C
:101E90002A04A9007E100400000000002224AE00E5
:101EA0000800370010C1B3005DE8B7005E08A90064
:101EB0002A24AF005E08A8002A24A9007E1004008E
:101EC000000000002244AE000800370020C1B3002B
:101ED0005DE8B7005E08A9002A44AF005E08A800CC
:101EE0002A44A9007E100400000000002264AE0015
:101EF0000800370030C1B3005DE8B7005E08A900F4
:101F00002A64AF005E08A8002A64A9007E100400BD
:101F1000000000002284AE000800370040C1B3007A
:101F20005DE8B7005E08A9002A84AF005E08A8003B
:101F30002A84A9007E1004000000000022A4AE0044
:101F40000800370050C1B3005DE8B7005E08A90083
:101F50002AA4AF005E08A8002AA4A9007E100400ED
:101F60000000000022C4AE000800370060C1B300CA
:101F70005DE8B7005E08A9002AC4AF005E08A800AB
:101F80002AC4A9007E1004000000000022E4AE0074
:101F90000800370070C1B3005DE8B7005E08A90013
:101FA0002AE4AF005E08A8002AE4A9007E1004001D
:101FB000000000002304AE000800370080C1B30019
:101FC0005DE8B7005E08A9002B04AF005E08A8001A
:101FD0002B04A9007E100400000000002324AE00A2
:101FE0000800370090C1B3005DE8B7005E08A900A3
:101FF0002B24AF005E08A8002B24A9007E1004004B
:10200000000000002344AE0008003700A0C1B30068
:102010005DE8B7005E08A9002B44AF005E08A80089
:102020002B44A9007E100400000000002364AE00D1
:1020300008003700B0C1B3005DE8B7005E08A90032
:102040002B64AF005E08A8002B64A9007E1004007A
:10205000000000002384AE0008003700C0C1B300B8
:102060005DE8B7005E08A9002B84AF005E08A800F9
:102070002B84A9007E1004000000000023A4AE0001
:1020800008003700D0C1B3005DE8B7005E08A900C2
:102090002BA4AF005E08A8002BA4A9007E100400AA
:1020A0000000000023C4AE0008003700E0C1B30008
:1020B0005DE8B7005E08A9002BC4AF005E08A80069
:1020C0002BC4A9007E1004000000000023E4AE0031
:1020D00008003700F0C1B3005DE8B7005E08A90052
:1020E0002BE4AF005E08A8002BE4A9007E100400DA
:1020F000000000000060EF00120137000A24A90070
:102100005DC8BF000160EF00C402DD0004002200D2
:1021100004804200E2A8B700E288BF009002780085
:10212000618062005E48A9000000AF005E48A80020
:10213000E288BF009002780061806200E408A90094
:102140000000AF00E408A8001447800064024200C9
:1021500014478800E288BF00900278006FC06200D8
:1021600057E8B700E288BF00900278000BC0BF00BC
:10217000004078000160EF00620360004130DE0043
:102180005E28A9000000AF005E28A8001447800068
:102190006A02420014478800E288BF00900278007B
:1021A0000BC0BF00004078007F4060005CE8B700D3
:1021B0000000EB00E408AF000000E8008042780077
:1021C000801F78005DC8BF00F4E8B7004F007800BA
:1021D000F408F800F5FF9F00F408F900600D020014
:1021E0000000000060A8B700114388005DC8BF0070
:1021F0000160EF00C402DD00E682420005007800C5
:102200000400220004004000E2A8B700E028EF002C
:1022100057C8BF000160EF00044780000020E100C4
:102220001F003100E088BF00DE08B40080027800A3
:10223000E288BF001003780006407800804A7800EA
:1022400004478000610242008402780057C8BF0042
:102250000160EF000500E1000B0032000447800040
:10226000610242008402780005007800DE08B400B4
:1022700000037800E288BF00900378000FC0BF0021
:1022800000407800004B7800E2A8EC000447800092
:1022900062024200044788000811040000000000A8
:1022A0005E68A9000AE4AF005E68A8000AE4A9001D
:1022B0005DC8BF000160EF000080B2003F00320047
:1022C0001080B200400032003080B2004100320085
:1022D0001080B200420032007080B2004300320031
:1022E0001080B200440032003080B200450032005D
:1022F0001080B20046003200F080B2004700320089
:102300001080B200480032003080B2004900320034
:102310001080B2004A0032007080B2004B003200E0
:102320001080B2004C0032003080B2004D0032000C
:102330001080B2004E003200F081B2004F00320037
:102340001080B200500032003080B20051003200E4
:102350001080B200520032007080B2005300320090
:102360001080B200540032003080B20055003200BC
:102370001080B20056003200F080B20057003200E8
:102380001080B200580032003080B2005900320094
:102390001080B2005A0032007080B2005B00320040
:1023A0001080B2005C0032003080B2005D0032006C
:1023B0001080B2005E003200600037002004A900E7
:1023C0009E120400000000002024A9009E120400B8
:1023D000000000002044A9009E120400000000003C
:1023E0002064A9009E120400000000002084A900BF
:1023F0009E1204000000000020A4A9009E12040008
:102400000000000020C4A9009E120400000000008B
:1024100020E4A9009E120400000000002104A9008D
:102420009E120400000000002124A9009E12040056
:10243000000000002144A9009E12040000000000DA
:102440002164A9009E120400000000002184A9005C
:102450009E1204000000000021A4A9009E120400A6
:102460000000000021C4A9009E120400000000002A
:1024700021E4A9009E120400000000002204A9002B
:102480009E120400000000002224A9009E120400F5
:10249000000000002244A9009E1204000000000079
:1024A0002264A9009E120400000000002284A900FA
:1024B0009E1204000000000022A4A9009E12040045
:1024C0000000000022C4A9009E12040000000000C9
:1024D00022E4A9009E120400000000002304A900C9
:1024E0009E120400000000002324A9009E12040094
:1024F000000000002344A9009E1204000000000018
:102500002364A9009E120400000000002384A90097
:102510009E1204000000000023A4A9009E120400E3
:102520000000000023C4A9009E1204000000000067
:1025300023E4A9009E1204000000000010C0B300B4
:1025400000E0B700044380000488B20020003A0095
:102550006208E2001E003A0010C0B3000CE8B700A9
:1025600064C8BF000BE0B7008042EB0065C8BF0045
:102570000160EF00008072004CA8B70066C8BF0081
:102580000BE0B7008042EB0067C8BF000160EF00BE
:10259000008072004EA8B70068C8BF000BE0B7000B
:1025A0008042EB0069C8BF000160EF00008072004C
:1025B00050A8B7006AC8BF000BE0B7008042EB002C
:1025C0006BC8BF000160EF000080720052A8B70026
:1025D000044380001488B20004003A006208E2005C
:1025E00002003A0064C8BF000DE8B7008840A900A7
:1025F000A00120000C0009004F1078004F00780067
:102600003200F9003600F9004200F90000400600EF
:10261000851F780080FF2F000164B6008CC8BF00C2
:102620007000B2000164B70000C4BF004502DE00C4
:102630007400B200044078008C48E300FAFF3A00CE
:10264000CF0278000000060084208000043CB20025
:102650000400B3000440780010E4B7008420800038
:10266000F433B2000400B3000440780010E4B70073
:1026700094208000843FB2001400B300044078002E
:1026800012E4B70094208000743CB2000402B3004E
:102690000440780012E4B70012C4A90012E4A800B4
:1026A000942080004822DE00843FB2001400B30072
:1026B0000440780013E4B70013C4A900000006002A
:1026C000D44380006424E10008003A0034208000F4
:1026D0004822DE00F431B2000400B3000440780068
:1026E00007E4B700F013040000000000D4438000AA
:1026F0006624E10008003A00342080004822DE0011
:10270000F431B2000402B3000440780007E4B700DB
:10271000F013040000000000D44380006824E100AE
:1027200008003A00342080004822DE00F431B20074
:102730000404B3000440780007E4B700F013040079
:1027400000000000D44380006C24E10008003A003F
:10275000342080004822DE00F431B2000406B300C9
:102760000440780007E4B700F01304000000000004
:10277000D44380007024E10008003A003420800037
:102780004822DE00F431B2000408B30004407800AF
:1027900007E4B700F013040000000000D4438000F9
:1027A0007824E10008003A00342080004822DE004E
:1027B000F431B200040AB3000440780007E4B70023
:1027C000F013040000000000342080004822DE00E6
:1027D000F431B200040CB3000440780007E4B70001
:1027E0000000060000C2B30081E3B70060C4B3007C
:1027F00082E3B70024442000441C880081E3A90040
:1028000000C2B30080E3B70004002200241C88004B
:1028100074002000541C880081E3A8008D63EF0041
:1028200020C2B3008EE3B70004442000A41C88003B
:102830008DE3A90000C2B3008CE3B70004002200BE
:10284000841C880074002000B41C88008DE3A8005C
:1028500000000600851F7800861F780000C4BF00B6
:102860004502DE007400B2000008F800E4FF9F009B
:102870000008F90040C0B3008CE8B700081302005C
:10288000000000000004A8008048E200230032009D
:10289000D54380008000EB007C88BF00800A780070
:1028A000D4438000620052007AA8B700D54380006C
:1028B000150078007C006000800A78008002EB0040
:1028C0007E88BF0063036000164488008002EB002E
:1028D000C0FF21007E08B60000037800D40020006D
:1028E00005007800860078000402E8000402E90090
:1028F000030032008100D1000080D300FBFF3700CD
:102900008228B700D5438000150078008208B70000
:10291000800A7800C814040000000000D54380003D
:10292000804AEB0000C0B30090429800D44380007E
:10293000620052007AA8B700D543800015007800E5
:102940007C006000800A7800F07F20007C08B600E0
:10295000800278000003EB0054002000050078009E
:10296000860078000402E8000402E9000300320057
:102970000000D0008180D200FBFF370082A8B700A2
:10298000D5438000150078008208B700800A7800DF
:102990000004A90000C8BF008CE8B70008130200BB
:1029A000000000004F037800CF027800000006000E
:1029B00000C4BF004502DE007400B2000008F80049
:1029C000E4FF9F000008F90040C0B3008CE8B700A6
:1029D00008130200000000000004A8007BC8BF002C
:1029E0000160EF000080B2001F0032001080B200D2
:1029F000240032003080B2002A0032001080B20081
:102A00002F0032007080B200350032001080B2001A
:102A10003A0032003080B200400032001080B20034
:102A200045003200F080B2004B0032001080B2004E
:102A3000500032003080B200560032001080B200E8
:102A40005B0032007080B200610032001080B20082
:102A5000660032003080B2006C0032001080B2009C
:102A6000710032007800370000FF2F002064B600AC
:102A70007AC8BF00F000B2002064B700241604003A
:102A800000000000F0F02F002064B6007AC8BF00FC
:102A9000F000B2004400DD002064B70024160400FA
:102AA0000000000000FF2F002164B6007AC8BF00BC
:102AB000F000B2002164B7002416040000000000FA
:102AC000F0F02F002164B6007AC8BF00F000B20019
:102AD0004400DD002164B70024160400000000005B
:102AE00000FF2F002264B6007AC8BF00F000B200D9
:102AF0002264B7002416040000000000F0F02F004C
:102B00002264B6007AC8BF00F000B2004400DD00C5
:102B10002264B700241604000000000000FF2F000C
:102B20002364B6007AC8BF00F000B2002364B70087
:102B30002416040000000000F0F02F002364B6000B
:102B40007AC8BF00F000B2004400DD002364B70083
:102B5000241604000000000000FF2F002464B600CB
:102B60007AC8BF00F000B2002464B7002416040045
:102B700000000000F0F02F002464B6007AC8BF0007
:102B8000F000B2004400DD002464B7002416040005
:102B90000000000000FF2F002564B6007AC8BF00C7
:102BA000F000B2002564B700241604000000000005
:102BB000F0F02F002564B6007AC8BF00F000B20024
:102BC0004400DD002564B700241604000000000066
:102BD00000FF2F002664B6007AC8BF00F000B200E4
:102BE0002664B7002416040000000000F0F02F0057
:102BF0002664B6007AC8BF00F000B2004400DD00D1
:102C00002664B700241604000000000000FF2F0017
:102C10002764B6007AC8BF00F000B2002764B7008E
:102C20002416040000000000F0F02F002764B60016
:102C30007AC8BF00F000B2004400DD002764B7008E
:102C400024160400000000000004A90000C8BF0012
:102C50008CE8B70008130200000000000000060026
:102C6000851F780000C4BF004502DE007400B2007A
:102C70000008F800E4FF9F000008F90040C0B3001E
:102C80008CE8B70008130200000000004441200057
:102C9000E4438800E5438000150078007A08B70017
:102CA000800A780000C8BF008CE8B7000813020053
:102CB00000000000CF0278000000060040C0B30012
:102CC0008CE8B70008130200000000000064A900AF
:102CD0000164A800241302000000000000C2B30039
:102CE0007AE8B7006013020000000000F21302004F
:102CF000000000008068EF0024432000D4438800D7
:102D00007C28EF007E28EF002A140200000000005B
:102D10008068EF0064432000D44388007C28EF00E3
:102D20007E28EF002A140200000000008068EF00F7
:102D300064432000D44388007C28EF007E28EF0005
:102D40002A140200000000008068EF0024442000E4
:102D5000D44388007C28EF007E28EF002A1402006C
:102D6000000000008068EF0064442000D443880025
:102D70007C28EF007E28EF002A14020000000000EB
:102D80008068EF00A4442000D44388007C28EF0032
:102D90007E28EF002A140200000000008068EF0087
:102DA000E4442000D44388007C28EF007E28EF0014
:102DB0002A140200000000008068EF002445200073
:102DC000D44388007C28EF007E28EF002A140200FC
:102DD000000000008068EF0064452000D4438800B4
:102DE0007C28EF007E28EF002A140200000000007B
:102DF0008068EF00A4452000D44388007C28EF00C1
:102E00007E28EF002A140200000000008068EF0016
:102E1000E4452000D44388007C28EF007E28EF00A2
:102E20002A140200000000008068EF002446200001
:102E3000D44388007C28EF007E28EF002A1402008B
:102E4000000000008068EF0064462000D443880042
:102E50007C28EF007E28EF002A140200000000000A
:102E60008068EF00A4462000D44388007C28EF004F
:102E70007E28EF002A140200000000008068EF00A6
:102E8000E4462000D44388007C28EF007E28EF0031
:102E90002A140200000000008068EF002447200090
:102EA000D44388007C28EF007E28EF002A1402001B
:102EB000000000008068EF0064472000D4438800D1
:102EC0007C28EF007E28EF002A140200000000009A
:102ED0008068EF00A4472000D44388007C28EF00DE
:102EE0007E28EF002A140200000000008068EF0036
:102EF000E4472000D44388007C28EF007E28EF00C0
:102F00002A140200000000001424EF00F0C0B300F7
:102F10007AE8B7007B68EF00D814020000000000D8
:102F200014002000D4438800301602000000000086
:102F30008C68EF000813020000000000000006008B
:102F40007AC8BF000160EF000080B2000F003200BD
:102F50001080B200100032003080B2001100320048
:102F60001080B200120032007080B20013003200F4
:102F70001080B200140032003080B2001500320020
:102F80001080B200160032001800370030E4A800AC
:102F9000F61704000000000031E4A800F617040052
:102FA0000000000032E4A800F61704000000000052
:102FB00033E4A800F61704000000000034E4A80081
:102FC000F61704000000000035E4A800F61704001E
:102FD0000000000036E4A800F6170400000000001E
:102FE00037E4A800F61704000000000037E4AE0044
:102FF0000700370034208000043EB2008400B30094
:103000000440780006E4B7007E18040000000000C9
:1030100036E4AE000700370034208000043EB200E2
:103020007400B3000440780006E4B7007E18040082
:103030000000000035E4AE000700370034208000B7
:10304000043EB2006400B3000440780006E4B70018
:103050007E1804000000000034E4AE0007003700D2
:1030600034208000043EB2005400B30004407800D5
:1030700006E4B7007E1804000000000033E4AE0050
:103080000700370034208000043EB2004400B30043
:103090000440780006E4B7007E1804000000000039
:1030A00032E4AE000700370034208000043EB20056
:1030B0003400B3000440780006E4B7007E18040032
:1030C0000000000031E4AE0007003700342080002B
:1030D000043EB2002400B3000440780006E4B700C8
:1030E0007E1804000000000034208000043EB2007E
:1030F0001400B3000440780006E4B70000000600A6
:10310000851F7800C4402000F44388007E88BF00FB
:10311000901F78007C08F900F54380007C88BF0090
:103120007A08B700800A7800CF0278000000060015
:10313000851F7800861F7800871F78000002200016
:1031400084025000040032000281D2008381D20048
:103150008502E900FCFF3A00C8E2A800C8C2A90045
:10316000C8A2A900CCA2A80084027800CCA2A90021
:103170000000000003F0A600CCC2A90003F0A700E5
:10318000CCC2A8000281D2008381D200CCA2A800C8
:103190000080D2008180D200CAE2AE000000A90007
:1031A000CAE2AF000000A8008502E900EFFF3A0084
:1031B000CF0378004F037800CF02780000000600AC
:1031C000C002A900C402A900861309000000000083
:1031D000C002A900C402A8006200090000000000AB
:1031E000C002A900C402A900840020003208200007
:1031F0000300200098180200000000008400200056
:1032000002062000030020009818020000000000C1
:1032100084002000420820000300200098180200CB
:10322000000000008400200082072000030020002E
:103230009818020000000000C002A900C402A80003
:1032400000000600851F78007C68EF007D68EF00B5
:103250008028EF008228EF007E68EF007EC8BF0064
:103260000000FB006800E10044003D00C082A900AE
:10327000C482A9007EC8BF000000FB007800700077
:103280007FE8B7007FC8BF00004178000201FB0063
:103290008001EB0002F0A7008081EB008400200099
:1032A000981802000000000084002000020E200098
:1032B0000300200098180200000000007CE8B7001E
:1032C00084002000F20F2000030020009818020064
:1032D000000000007DE8B7007CC8BF000000FB00D4
:1032E000EF0260007DC8BF0080E8B70005407800AD
:1032F00081E8B700140020001444880014448000C2
:10330000533820000418E1001500340014448000F4
:103310006220B80048080200000000000444800059
:103320000020E1000B003C007EC8BF000000FB0055
:10333000000278006220B800D4438000840240007C
:10334000144480006220B8007603020000000000F0
:10335000800A78008228EC007E190400000000003A
:10336000C082A900C482A800F20109000000000088
:103370007E68EC002E19040000000000CF027800E7
:10338000000006000000E0004220AF00040037000B
:103390000B270900000000000000E900FCFF3A00D4
:1033A00000000600851F7800861F7800871F7800C0
:1033B000881F780030E4AE00070037003064AF00AB
:1033C000050037003044AF00030037008C28EF00C1
:1033D0007C1A04000000000031E4AE000800370051
:1033E0003164AF00060037003144AF0004003700FD
:1033F00014002000644488007C1A040000000000CF
:1034000032E4AE00080037003264AF000600370037
:103410003244AF00040037002400200064448800D8
:103420007C1A04000000000033E4AE0008003700FE
:103430003364AF00060037003344AF0004003700A8
:1034400034002000644488007C1A0400000000005E
:1034500034E4AE00080037003464AF0006003700E3
:103460003444AF0004003700440020006444880066
:103470007C1A04000000000035E4AE0008003700AC
:103480003564AF00060037003544AF000400370054
:1034900054002000644488007C1A040000000000EE
:1034A00036E4AE00080037003664AF00060037008F
:1034B0003644AF00040037006400200064448800F4
:1034C0007C1A04000000000037E4AE00080037005A
:1034D0003764AF00060037003744AF000400370000
:1034E00074002000644488007C1A0400000000007E
:1034F0000060EF00090137008648E2004D0032000D
:103500008002EB00C0FF21008008B60000037800B5
:10351000860278000600200087C8BF00804378003C
:103520000F60EF00C13BDD0086C8BF000160EF0007
:103530000080730080827200F0FF210005006000AF
:103540008EA8B70065448000C42ADD000400220074
:1035500004834200744480000403980000FC2F00A0
:103560007E08B600800278008088BF006303600098
:10357000640020000402E8000402E90003003200B5
:103580000603D1008582D300FBFF3700F0FF200047
:10359000050060008EA8B70065448000C42ADD00E5
:1035A000E28242000500780004002200840240000C
:1035B0007444800084029800F5438000F503B20053
:1035C0000003EB00A40020000402E8000402E9006C
:1035D000030032008502D0000683D200FBFF3700D3
:1035E00087C8BF00804378000F60EF00C93BDD0053
:1035F00084C8BF000160EF00008073008082720009
:10360000F0F12F00050060008EA8B700654480002F
:10361000C42ADD00E4824200050078000400220094
:10362000840240007444800084029800881B0400D7
:1036300000000000F07F20007E08B60080027800C5
:103640000003EB00240020000402E8000402E9006B
:10365000030032008502D0000683D200FBFF370052
:1036600087C8BF00804378000F60EF00C13BDD00DA
:1036700086C8BF000160EF00008073008082720086
:10368000F0FF2100050060008EA8B70065448000AF
:10369000C42ADD0004002200048342007444800038
:1036A0000403980065448000C42ADD00E2824200E1
:1036B000050078000400220084024000804AEB00EC
:1036C00000C0B3009042980087C8BF0080427800D5
:1036D0000B60EF00C92ADD0084C8BF000160EF0065
:1036E00080827200F0F12F00050060008EA8B70004
:1036F00065448000C42ADD00E482420005007800B1
:103700000400220084024000744480008402980077
:1037100065448000C42ADD00E6824200050078008E
:10372000040022000400400088A8B7008A28EF00A7
:103730008A88BF00244480000960EF000020E10077
:103740002200360054448000610242008402780066
:10375000244480000960EF000520E10009003A00E0
:10376000454480008A88BF008208B4001043780076
:10377000864A780000C0B30090429800DA1B04002B
:103780000000000045448000544480006102420073
:1037900004037800060078008208B40090437800A3
:1037A0008A88BF008208B40010447800884A7800F4
:1037B0009742980088A8EC005444800062024200BE
:1037C00054448800981B0400000000008C88BF004F
:1037D0000080B2000F0032001080B20015003200ED
:1037E0003080B2001B0032001080B2002100320095
:1037F0007080B200270032001080B2002D0032002D
:103800003080B200330032001080B2003900320044
:1038100040003700C0FF2F003064B60085C8BF00ED
:103820003000B2003064B7003064A8008A1C040085
:1038300000000000C0FF2F003164B60085C8BF0043
:103840003000B2003164B7003164A8008A1C040063
:1038500000000000C0FF2F003264B60085C8BF0022
:103860003000B2003264B7003264A8008A1C040041
:1038700000000000C0FF2F003364B60085C8BF0001
:103880003000B2003364B7003364A8008A1C04001F
:1038900000000000C0FF2F003464B60085C8BF00E0
:1038A0003000B2003464B7003464A8008A1C0400FD
:1038B00000000000C0FF2F003564B60085C8BF00BF
:1038C0003000B2003564B7003564A8008A1C0400DB
:1038D00000000000C0FF2F003664B60085C8BF009E
:1038E0003000B2003664B7003664A8008A1C0400B9
:1038F00000000000C0FF2F003764B60085C8BF007D
:103900003000B2003764B7003764A8008A1C040096
:103910000000000010C0B30000E0B7004F047800C2
:10392000CF0378004F037800CF0278000000060034
:103930000FF82100F0FF210020A0B70000000000D8
:10394000404424003005880040442400A00588003D
:1039500081E0A8006004200042E7B7007005200065
:1039600042E7B70042C7A90070F02300A8A6B7003D
:10397000E0F02300B4A6B70000802000C4A6B70082
:1039800070002000C6A6B70000002100CEA6B70038
:103990006004200042E7B7007005200042E7B7004E
:1039A00042C7A800C8E2A800C8C2A900C8A2A900CE
:1039B000CCA2A800C962A900CD62A8000168EF00EE
:1039C0000268EF0010C0B30003E8B7000C68EF0016
:1039D000840121006442880024FD20007442880094
:1039E0003406210084428800C42B200094428800C1
:1039F000242B2000A442880020C0B3000DE8B700AB
:103A0000A0C0B30056E8B7005828EF005A28EF00CE
:103A100010C0B3005FE8B7002CA3EF0094012100B1
:103A2000744088003401210084408800D4012100C2
:103A300094408800D4012100A4408800D4012100D2
:103A4000B4408800D4012100C4408800D401210082
:103A5000D4408800D4012100E4408800D401210032
:103A6000F4408800D401210004418800D4012100E1
:103A7000144188003401210024418800C862A80054
:103A80006C28EF00CA62AF006C28EC00C022A800CE
:103A90006E28EF00C222AF006E28EC00C902A80019
:103AA0007028EF00CB02AF007028EC00C922A800FC
:103AB0007228EF00CB22AF007228EC007443800024
:103AC0006220B80064438000840240008443800088
:103AD0006420B80085024000944380006820B8004C
:103AE00005004000F40020000000520074A8B70058
:103AF0003E1D0400000000001021EF00743821007A
:103B00006408880004002800840888005E1602000B
:103B1000000000007A68EF00A0170200000000001B
:103B200010C0B3007AE8B700A01702000000000040
:103B300020C0B3007AE8B700A01702000000000020
:103B400030C0B3007AE8B700A01702000000000000
:103B500040C0B3007AE8B700A017020000000000E0
:103B600050C0B3007AE8B700A017020000000000C0
:103B700060C0B3007AE8B700A017020000000000A0
:103B800070C0B3007AE8B700A01702000000000080
:103B900020C0B3007AE8B7008018020000000000DF
:103BA0009860A8009840A8009860A80094E0A80039
:103BB00081E0A9004220EF0081E0A800C9A2A9008D
:103BC000CDA2A900E0180200000000005828EF0074
:103BD0005A28EF00C4822000D44388002219020032
:103BE000000000000268EF0002C8BF000000FB00F8
:103BF0006800E10010003D0002C8BF000000FB00AB
:103C0000000278006220B800C483200084024000D3
:103C100002C8BF000000FB00000278006220B8006C
:103C2000C482200004004000900A78000268EC0082
:103C3000F41D040000000000D44280006020E10078
:103C400007003C0004003500C442800063042000EB
:103C50000418E100020036001C1E040000000000F1
:103C6000E4802000D44388002808F8007C08F9008C
:103C70002A08F8007E08F900C002A900C402A900C1
:103C80006200090000000000C002A900C402A800F0
:103C90006200090000000000C002A900C402A900DF
:103CA0008400200002082000030020009818020071
:103CB00000000000840020004200200003002000DB
:103CC0009818020000000000840020007207200005
:103CD000030020009818020000000000840020006B
:103CE000620D200003002000981802000000000070
:103CF0009868EF0098C8BF000000FB006600E10074
:103D00000D003D0098C8BF000000FB0004882000A3
:103D10008402400084002000F20F200003002000F5
:103D20009818020000000000804A78009868EC00B3
:103D30007A1E040000000000C002A900C402A8000E
:103D4000C002A900C402A90062000900000000002E
:103D5000C002A900C402A80062000900000000001F
:103D6000C002A900C402A9008400200002082000AB
:103D700003002000981802000000000084002000CA
:103D800062002000030020009818020000000000DC
:103D900084002000A20E20000300200098180200DA
:103DA0000000000084002000020820000300200022
:103DB00098180200000000009868EF0098C8BF0043
:103DC0000000FB006600E1000D003D0098C8BF0048
:103DD0000000FB0064882000840240008400200072
:103DE000F20F2000030020009818020000000000DD
:103DF000804A78009868EC00DE1E04000000000095
:103E0000C002A900C402A800C002A900C402A900FF
:103E10006200090000000000C002A900C402A8005E
:103E20006200090000000000C002A900C402A9004D
:103E300084002000020820000300200098180200DF
:103E40000000000084002000820020000300200009
:103E5000981802000000000084002000E202200008
:103E600003002000981802000000000084002000D9
:103E700062042000030020009818020000000000E7
:103E80009868EF0098C8BF000000FB006600E100E2
:103E90000D003D0098C8BF000000FB00C488200052
:103EA0008402400084002000F20F20000300200064
:103EB0009818020000000000804A78009868EC0022
:103EC000421F040000000000C002A900C402A800B4
:103ED000C002A900C402A90062000900000000009D
:103EE000C002A900C402A80062000900000000008E
:103EF000C002A900C402A90084002000020820001A
:103F00000300200098180200000000008400200038
:103F1000A20020000300200098180200000000000A
:103F200084002000320B20000300200098180200BB
:103F30000000000084002000020120000300200097
:103F400098180200000000009868EF0098C8BF00B1
:103F50000000FB006600E1000D003D0098C8BF00B6
:103F60000000FB002489200084024000840020001F
:103F7000F20F20000300200098180200000000004B
:103F8000804A78009868EC00A61F0400000000003A
:103F9000C002A900C402A8009968EF002628EF001B
:103FA0007CA8EF007E28EF009868EF0098C8BF005B
:103FB0000000FB006600E10051003D0099C8BF0011
:103FC0000000FB00000278006220B800D4438000AB
:103FD0008402400098C8BF000000FB006100400060
:103FE0000003780004882000040043009043780018
:103FF00098C8BF000000FB000488200004004000B7
:1040000010447800884478000740780013E0B70037
:1040100009027800A3002000110009000382D800E3
:10402000800A780099C8BF000000FB0000027800F9
:104030006220B800D44380000400400000027800F1
:10404000140078002628B40099C8BF000000FB00C7
:10405000000278006220B800D443800004004000D1
:1040600090027800E44380000520E100080036005B
:1040700099C8BF000000FB00000278006220B80071
:10408000D443800004004000901F78007C08F900B1
:1040900099C8BF000000FB00000278006220B80051
:1040A000D44380000400400090027800F443800074
:1040B0000520E1000800310099C8BF000000FB00A6
:1040C000000278006220B800D44380000400400061
:1040D000901F78007E08F90099C8BF000000FB001F
:1040E0006100400099E8B70098C8BF000000FB00DD
:1040F0006200400098E8B700D61F040000000000EE
:104100009868EF0098C8BF000000FB006600E1005F
:1041100051003D0099C8BF000000FB00000278007C
:104120006220B800D44380008402400098C8BF00D9
:104130000000FB006100400000037800648820005C
:10414000040043009043780098C8BF000000FB00C3
:1041500064882000040040001044780088447800FF
:104160000740780013E0B70009027800A3002000A0
:10417000110009000382D800800A780099C8BF00A6
:104180000000FB00000278006220B800D4438000E9
:104190000400400000027800140078002628B400D3
:1041A00099C8BF000000FB00000278006220B80040
:1041B000D44380000400400090027800E443800073
:1041C0000520E1000800360099C8BF000000FB0090
:1041D000000278006220B800D44380000400400050
:1041E000901F78007C08F90099C8BF000000FB0010
:1041F000000278006220B800D44380000400400030
:1042000090027800F44380000520E10008003100AE
:1042100099C8BF000000FB00000278006220B800CF
:10422000D443800004004000901F78007E08F9000D
:1042300099C8BF000000FB006100400099E8B7008A
:1042400098C8BF000000FB006200400098E8B7007B
:1042500082200400000000009868EF0098C8BF00AA
:104260000000FB006600E10051003D0099C8BF005E
:104270000000FB00000278006220B800D4438000F8
:104280008402400098C8BF000000FB0061004000AD
:1042900000037800C48820000400430090437800A5
:1042A00098C8BF000000FB00C48820000400400044
:1042B00010447800884478000740780013E0B70085
:1042C00009027800A3002000110009000382D80031
:1042D000800A780099C8BF000000FB000002780047
:1042E0006220B800D443800004004000000278003F
:1042F000140078002628B40099C8BF000000FB0015
:10430000000278006220B800D4438000040040001E
:1043100090027800E44380000520E10008003600A8
:1043200099C8BF000000FB00000278006220B800BE
:10433000D443800004004000901F78007C08F900FE
:1043400099C8BF000000FB00000278006220B8009E
:10435000D44380000400400090027800F4438000C1
:104360000520E1000800310099C8BF000000FB00F3
:10437000000278006220B800D443800004004000AE
:10438000901F78007E08F90099C8BF000000FB006C
:104390006100400099E8B70098C8BF000000FB002A
:1043A0006200400098E8B7002E21040000000000E1
:1043B0009868EF0098C8BF000000FB006600E100AD
:1043C00051003D0099C8BF000000FB0000027800CA
:1043D0006220B800D44380008402400098C8BF0027
:1043E0000000FB00610040000003780024892000E9
:1043F000040043009043780098C8BF000000FB0011
:10440000248920000400400010447800884478008B
:104410000740780013E0B70009027800A3002000ED
:10442000110009000382D800800A780099C8BF00F3
:104430000000FB00000278006220B800D443800036
:104440000400400000027800140078002628B40020
:1044500099C8BF000000FB00000278006220B8008D
:10446000D44380000400400090027800E4438000C0
:104470000520E1000800360099C8BF000000FB00DD
:10448000000278006220B800D4438000040040009D
:10449000901F78007C08F90099C8BF000000FB005D
:1044A000000278006220B800D4438000040040007D
:1044B00090027800F44380000520E10008003100FC
:1044C00099C8BF000000FB00000278006220B8001D
:1044D000D443800004004000901F78007E08F9005B
:1044E00099C8BF000000FB006100400099E8B700D8
:1044F00098C8BF000000FB006200400098E8B700C9
:10450000DA21040000000000007D2000C219020032
:1045100000000000C082A900C482A800C002A90057
:10452000C402A8000C68EF000CC8BF000000FB002C
:104530006100E100DB043A00C9A2A900CDA2A800F5
:104540000C68EF005828EF005A28EF000168EF00D0
:104550000268EF0002C8BF000000FB006800E10035
:1045600023003D0002C8BF000000FB004480200083
:104570008402400001C8BF000000FB000002780078
:104580006220B800E480200004004000100378009E
:104590000160EF000DC0BF0000407800804A780045
:1045A00002C8BF000000FB006100400080027800EC
:1045B000448020000483420001C8BF000000FB00CB
:1045C000000278006220B800E4802000040040006F
:1045D000104B78000168EC0002C8BF000000FB002F
:1045E0006200400002E8B700AA22040000000000B8
:1045F0005FC8BF000000FB00000278006320B80025
:104600002408200084024000801F780080C0B3008E
:1046100084E8B7004F0078008568EF008668EF00F7
:104620008768EF00F54388000002EB007FE8AF00E9
:104630000082EB0004448800448020001444880079
:10464000D2190200000000000268EF0002C8BF009B
:104650000000FB006800E10023003D0002C8BF002D
:104660000000FB00448020008402400001C8BF001D
:104670000000FB00000278006220B800E480200007
:1046800004004000100378000160EF000DC0BF007F
:1046900000407800804A780002C8BF000000FB009C
:1046A00061004000800278004480200004834200C2
:1046B00001C8BF000000FB00000278006220B800C3
:1046C000E480200004004000104B78000168EC00FA
:1046D00002C8BF000000FB006200400002E8B70013
:1046E00026230400000000005FC8BF000000FB009C
:1046F000000278006320B8003408200084024000E3
:10470000801F780080C0B30084E8B7004F007800B5
:104710008568EF008668EF008768EF00F543880042
:104720000002EB007FE8AF000082EB000444880049
:104730004480200014448800D219020000000000C8
:104740005FC8BF000000FB006100E1004E003200C6
:104750005FC8BF000000FB006400E1004A003200B7
:104760005FC8BF000000FB006700E10046003200A8
:104770005FC8BF000000FB006A00E1004200320099
:104780005FC8BF000000FB006D00E1003E0032008A
:104790000268EF0002C8BF000000FB006400E100F7
:1047A00023003D0002C8BF000000FB004480200041
:1047B0008402400001C8BF000000FB000002780036
:1047C0006220B800E480200004004000100378005C
:1047D0000160EF000DC0BF0000407800804A780003
:1047E00002C8BF000000FB006100400080027800AA
:1047F000448020000483420001C8BF000000FB0089
:10480000000278006220B800E4802000040040002C
:10481000104B78000168EC0002C8BF000000FB00EC
:104820006200400002E8B700CA2304000000000054
:104830005FC8BF000000FB00000278006320B800E2
:104840004408200084024000801F780040C0B3006C
:1048500084E8B7004F0078008568EF008668EF00B5
:104860008768EF00F54388000002EB007FE8AF00A7
:104870000082EB0004448800448020001444880037
:10488000D2190200000000000168EF000268EF008A
:1048900002C8BF000000FB006800E10023003D00EB
:1048A00002C8BF000000FB004480200084024000DA
:1048B00001C8BF000000FB00000278006220B800C1
:1048C000C482200004004000100378000160EF0063
:1048D0000DC0BF0000407800804A780002C8BF00C9
:1048E0000000FB006100400080027800448020004E
:1048F0000483420001C8BF000000FB0000027800F2
:104900006220B800C482200004004000104B7800F0
:104910000168EC0002C8BF000000FB00620040001C
:1049200002E8B70048240400000000005FC8BF0090
:104930000000FB00000278006220B800040C200098
:1049400084024000801F780080C0B30084E8B70074
:104950004F0078008568EF008668EF008768EF00F9
:10496000F54388000002EB007FE8AF000082EB0017
:10497000044488004480200014448800D2190200B6
:10498000000000000268EF0002C8BF000000FB004A
:104990006800E10023003D0002C8BF000000FB00EA
:1049A000448020008402400001C8BF000000FB00DA
:1049B000000278006220B800C48220000400400099
:1049C000100378000160EF000DC0BF0000407800C8
:1049D000804A780002C8BF000000FB006100400070
:1049E00080027800448020000483420001C8BF0098
:1049F0000000FB00000278006220B800C4822000A2
:104A000004004000104B78000168EC0002C8BF00B1
:104A10000000FB006200400002E8B700C42404006C
:104A2000000000005FC8BF000000FB00000278002B
:104A30006220B800140C200084024000801F78001F
:104A400080C0B30084E8B7004F0078008568EF00AD
:104A50008668EF008768EF00F54388000002EB00EE
:104A60007FE8AF000082EB0004448800448020000F
:104A700014448800D219020000000000E01802006F
:104A8000000000005828EF005A28EF00E4802000C2
:104A9000D44388008828EF008A28EF007E68EF0062
:104AA0007F68EF007D68EF007DC8BF000000FB005D
:104AB0006C00E10011013D007DC8BF000000FB005B
:104AC000000278006220B800D44380000400400057
:104AD00090027800744280000520E1003600310029
:104AE0005488BF00944280000020E100320036006C
:104AF0007DC8BF000000FB00000278006220B80003
:104B0000D44380000400400090027800844280007A
:104B10000520E1000D0039007DC8BF000000FB004A
:104B2000000278006220B800D443800004004000F6
:104B30009002780064428000848252000DC8BF0059
:104B40000160EF000500E1001B0031008008A800B3
:104B50007DC8BF000000FB006800E1000B003D00C5
:104B6000E44380004822DE000960EF0015002000C9
:104B7000842ADD007EC8BF000000FB000500700035
:104B80007EE8B700D8250400000000007DC8BF0003
:104B90000000FB006800500015002000802ADD00A6
:104BA0007FC8BF000000FB00050070007FE8B70071
:104BB000DE250400000000008008A9008008AE0087
:104BC0008300370080CFB30082E8B7008368EF002E
:104BD0008468EF008568EF007EC8BF0086E8B700F4
:104BE0007FC8BF0087E8B700040120004444880064
:104BF0007C68EF007CC8BF000000FB006600E1009D
:104C000019003D0045448000C72ADE007CC8BF0073
:104C10000000FB002488200004004000000278000F
:104C2000144078000000FB0080826A0005027800D2
:104C3000F40FB2005444880088C8BF000BE0B700EE
:104C40008042EB00544480006220B8000002020061
:104C50000000000000806A0088A8B7007C68EC00B3
:104C6000FA25040000000000444480006220B800DF
:104C70008CA8B700C002A900C402A9006200090004
:104C800000000000C002A900C402A80062000900E0
:104C900000000000C002A900C402A9008400200096
:104CA0000208200003002000981802000000000005
:104CB0008400200012002000030020009818020049
:104CC0000000000084002000D20420000300200027
:104CD000981802000000000084002000A2072000B5
:104CE000030020009818020000000000840020004B
:104CF000820F20000300200098180200000000002E
:104D00008400200002002000030020009818020008
:104D100000000000840020000200200003002000AA
:104D2000981802000000000084002000020020000B
:104D30000300200098180200000000007EC8BF0099
:104D400004E0B7000201FB008001EB0002F0A700C5
:104D50008081EB0084002000981802000000000011
:104D60007FC8BF00004178000201FB008001EB001A
:104D700002F0A7008081EB00840020009818020058
:104D8000000000008DC8BF00804278000B60EF007B
:104D9000840020000501780003002000981802001C
:104DA0000000000084002000624480008001EB00CD
:104DB00002F0A7008081EB009818020000000000BC
:104DC000C002A900C402A800782704000000000067
:104DD000C002A900C402A90062000900000000008E
:104DE000C002A900C402A80062000900000000007F
:104DF000C002A900C402A90084002000020820000B
:104E00000300200098180200000000008400200029
:104E1000120020000300200098180200000000008B
:104E200084002000D2042000030020009818020013
:104E30000000000084002000A207200003002000E2
:104E4000981802000000000084002000820F20005B
:104E500003002000981802000000000084002000D9
:104E6000020020000300200098180200000000004B
:104E70008400200002002000030020009818020097
:104E80000000000084002000020020000300200039
:104E9000981802000000000084002000020020009A
:104EA0000300200098180200000000008400200089
:104EB00002002000030020009818020000000000FB
:104EC00084002000E20B200003002000981802005C
:104ED0000000000084002000220E200003002000BB
:104EE0009818020000000000C002A900C402A80037
:104EF0007D68EC005425040000000000C4822000FE
:104F0000D443880022190200000000000268EF006C
:104F100002C8BF000000FB006800E1002B003D005C
:104F200002C8BF000000FB00000278006220B80049
:104F3000C48220008402400002C8BF000000FB00C1
:104F4000000278006220B800C48220000400400003
:104F50001003780002C8BF000000FB0000027800C8
:104F60006220B800C48320000400400000027800E2
:104F70001400780006034000060278002300200099
:104F8000110009000302D800800A780002C8BF009F
:104F90000000FB00000278006220B800C4832000FB
:104FA0008402400002C8BF000000FB00000278003D
:104FB0006220B800C482200004004000900A7800FB
:104FC0000268EC008827040000000000D442800042
:104FD0006020E10007003C0004003500C44280006E
:104FE000630420000418E10002003600E6270400F4
:104FF00000000000E4802000D44388002808F80066
:105000007C08F9002A08F8007E08F900C002A9000F
:10501000C402A9006200090000000000C002A9004B
:10502000C402A8006200090000000000C002A9003C
:10503000C402A90084002000020820000300200010
:1050400098180200000000008400200042002000A8
:1050500003002000981802000000000084002000D7
:1050600072072000030020009818020000000000D2
:1050700084002000620D2000030020009818020028
:10508000000000009868EF0098C8BF000000FB0017
:105090006600E1000D003D0098C8BF000000FB0065
:1050A000048820008402400084002000F20F2000C9
:1050B000030020009818020000000000804A7800D9
:1050C0009868EC004428040000000000C002A90019
:1050D000C402A800C002A900C402A900620009001D
:1050E00000000000C002A900C402A800620009007C
:1050F00000000000C002A900C402A9008400200032
:1051000002082000030020009818020000000000A0
:105110008400200062002000030020009818020094
:105120000000000084002000A20E200003002000E8
:1051300098180200000000008400200002082000EF
:105140000300200098180200000000009868EF009B
:1051500098C8BF000000FB006600E1000D003D00A4
:1051600098C8BF000000FB00648820008402400053
:1051700084002000F20F2000030020009818020095
:1051800000000000804A78009868EC00A82804001D
:1051900000000000C002A900C402A800C002A900CB
:1051A000C402A9006200090000000000C002A900BA
:1051B000C402A8006200090000000000C002A900AB
:1051C000C402A9008400200002082000030020007F
:1051D00098180200000000008400200082002000D7
:1051E0000300200098180200000000008400200046
:1051F000E2022000030020009818020000000000D6
:10520000840020006204200003002000981802009F
:10521000000000009868EF0098C8BF000000FB0085
:105220006600E1000D003D0098C8BF000000FB00D3
:10523000C48820008402400084002000F20F200077
:10524000030020009818020000000000804A780047
:105250009868EC000C29040000000000C002A900BE
:10526000C402A800C002A900C402A900620009008B
:1052700000000000C002A900C402A80062000900EA
:1052800000000000C002A900C402A90084002000A0
:10529000020820000300200098180200000000000F
:1052A00084002000A20020000300200098180200C3
:1052B0000000000084002000320B200003002000CA
:1052C0009818020000000000840020000201200065
:1052D0000300200098180200000000009868EF000A
:1052E00098C8BF000000FB006600E1000D003D0013
:1052F00098C8BF000000FB00248920008402400001
:1053000084002000F20F2000030020009818020003
:1053100000000000804A78009868EC0070290400C2
:1053200000000000C002A900C402A8009968EF00B4
:105330002628EF007CA8EF007E28EF009868EF0099
:1053400098C8BF000000FB006600E10051003D006E
:1053500099C8BF000000FB00000278006220B8007E
:10536000D44380008402400098C8BF000000FB00C6
:10537000610040000003780004882000040043001E
:105380009043780098C8BF000000FB00048820000C
:1053900004004000104478008844780007407800FA
:1053A00013E0B70009027800A300200011000900F3
:1053B0000382D800800A780099C8BF000000FB0073
:1053C000000278006220B800D4438000040040004E
:1053D00000027800140078002628B40099C8BF00A5
:1053E0000000FB00000278006220B800D443800077
:1053F0000400400090027800E44380000520E100B2
:105400000800360099C8BF000000FB0000027800C9
:105410006220B800D443800004004000901F780050
:105420007C08F90099C8BF000000FB00000278006A
:105430006220B800D443800004004000900278004D
:10544000F44380000520E1000800310099C8BF0046
:105450000000FB00000278006220B800D443800006
:1054600004004000901F78007E08F90099C8BF0032
:105470000000FB006100400099E8B70098C8BF0039
:105480000000FB006200400098E8B700A02904007B
:10549000000000009868EF0098C8BF000000FB0003
:1054A0006600E10051003D0099C8BF000000FB000C
:1054B000000278006220B800D443800084024000DB
:1054C00098C8BF000000FB006100400000037800A6
:1054D00064882000040043009043780098C8BF000F
:1054E0000000FB00648820000400400010447800A5
:1054F000884478000740780013E0B700090278007C
:10550000A3002000110009000382D800800A78005F
:1055100099C8BF000000FB00000278006220B800BC
:10552000D44380000400400000027800140078009A
:105530002628B40099C8BF000000FB0000027800D4
:105540006220B800D443800004004000900278003C
:10555000E44380000520E1000800360099C8BF0040
:105560000000FB00000278006220B800D4438000F5
:1055700004004000901F78007C08F90099C8BF0023
:105580000000FB00000278006220B800D4438000D5
:105590000400400090027800F44380000520E10000
:1055A0000800310099C8BF000000FB00000278002D
:1055B0006220B800D443800004004000901F7800AF
:1055C0007E08F90099C8BF000000FB0061004000A0
:1055D00099E8B70098C8BF000000FB0062004000D7
:1055E00098E8B7004C2A0400000000009868EF001B
:1055F00098C8BF000000FB006600E10051003D00BC
:1056000099C8BF000000FB00000278006220B800CB
:10561000D44380008402400098C8BF000000FB0013
:105620006100400000037800C488200004004300AB
:105630009043780098C8BF000000FB00C488200099
:105640000400400010447800884478000740780047
:1056500013E0B70009027800A30020001100090040
:105660000382D800800A780099C8BF000000FB00C0
:10567000000278006220B800D4438000040040009B
:1056800000027800140078002628B40099C8BF00F2
:105690000000FB00000278006220B800D4438000C4
:1056A0000400400090027800E44380000520E100FF
:1056B0000800360099C8BF000000FB000002780017
:1056C0006220B800D443800004004000901F78009E
:1056D0007C08F90099C8BF000000FB0000027800B8
:1056E0006220B800D443800004004000900278009B
:1056F000F44380000520E1000800310099C8BF0094
:105700000000FB00000278006220B800D443800053
:1057100004004000901F78007E08F90099C8BF007F
:105720000000FB006100400099E8B70098C8BF0086
:105730000000FB006200400098E8B700F82A04006F
:10574000000000009868EF0098C8BF000000FB0050
:105750006600E10051003D0099C8BF000000FB0059
:10576000000278006220B800D44380008402400028
:1057700098C8BF000000FB006100400000037800F3
:1057800024892000040043009043780098C8BF009B
:105790000000FB0024892000040040001044780031
:1057A000884478000740780013E0B70009027800C9
:1057B000A3002000110009000382D800800A7800AD
:1057C00099C8BF000000FB00000278006220B8000A
:1057D000D4438000040040000002780014007800E8
:1057E0002628B40099C8BF000000FB000002780022
:1057F0006220B800D443800004004000900278008A
:10580000E44380000520E1000800360099C8BF008D
:105810000000FB00000278006220B800D443800042
:1058200004004000901F78007C08F90099C8BF0070
:105830000000FB00000278006220B800D443800022
:105840000400400090027800F44380000520E1004D
:105850000800310099C8BF000000FB00000278007A
:105860006220B800D443800004004000901F7800FC
:105870007E08F90099C8BF000000FB0061004000ED
:1058800099E8B70098C8BF000000FB006200400024
:1058900098E8B700A42B040000000000562C040078
:1058A00000000000C9A2A900CDA2A9009422040012
:0858B000000000000040FE00B2
:0200000401F009
:10000000CF0000FFCF0000FF070000FF020000FF4D
:10001000260000FF5F0000FF100000FFC30000FF8C
:00000001FF
;PIC24HJ128GP502
;CRC=C76F  CREATED="10-mar.-23 09:10"
